{
	"contracts/StakingRewards.sol": {
		"StakingRewards": {
			"abi": [
				{
					"inputs": [
						{
							"internalType": "address",
							"name": "_owner",
							"type": "address"
						},
						{
							"internalType": "address",
							"name": "_rewardsDistribution",
							"type": "address"
						},
						{
							"internalType": "address",
							"name": "_rewardsToken",
							"type": "address"
						},
						{
							"internalType": "address",
							"name": "_stakingToken",
							"type": "address"
						}
					],
					"payable": false,
					"stateMutability": "nonpayable",
					"type": "constructor"
				},
				{
					"anonymous": false,
					"inputs": [
						{
							"indexed": false,
							"internalType": "address",
							"name": "oldOwner",
							"type": "address"
						},
						{
							"indexed": false,
							"internalType": "address",
							"name": "newOwner",
							"type": "address"
						}
					],
					"name": "OwnerChanged",
					"type": "event"
				},
				{
					"anonymous": false,
					"inputs": [
						{
							"indexed": false,
							"internalType": "address",
							"name": "newOwner",
							"type": "address"
						}
					],
					"name": "OwnerNominated",
					"type": "event"
				},
				{
					"anonymous": false,
					"inputs": [
						{
							"indexed": false,
							"internalType": "bool",
							"name": "isPaused",
							"type": "bool"
						}
					],
					"name": "PauseChanged",
					"type": "event"
				},
				{
					"anonymous": false,
					"inputs": [
						{
							"indexed": false,
							"internalType": "address",
							"name": "token",
							"type": "address"
						},
						{
							"indexed": false,
							"internalType": "uint256",
							"name": "amount",
							"type": "uint256"
						}
					],
					"name": "Recovered",
					"type": "event"
				},
				{
					"anonymous": false,
					"inputs": [
						{
							"indexed": false,
							"internalType": "uint256",
							"name": "reward",
							"type": "uint256"
						}
					],
					"name": "RewardAdded",
					"type": "event"
				},
				{
					"anonymous": false,
					"inputs": [
						{
							"indexed": true,
							"internalType": "address",
							"name": "user",
							"type": "address"
						},
						{
							"indexed": false,
							"internalType": "uint256",
							"name": "reward",
							"type": "uint256"
						}
					],
					"name": "RewardPaid",
					"type": "event"
				},
				{
					"anonymous": false,
					"inputs": [
						{
							"indexed": false,
							"internalType": "uint256",
							"name": "newDuration",
							"type": "uint256"
						}
					],
					"name": "RewardsDurationUpdated",
					"type": "event"
				},
				{
					"anonymous": false,
					"inputs": [
						{
							"indexed": true,
							"internalType": "address",
							"name": "user",
							"type": "address"
						},
						{
							"indexed": false,
							"internalType": "uint256",
							"name": "amount",
							"type": "uint256"
						}
					],
					"name": "Staked",
					"type": "event"
				},
				{
					"anonymous": false,
					"inputs": [
						{
							"indexed": true,
							"internalType": "address",
							"name": "user",
							"type": "address"
						},
						{
							"indexed": false,
							"internalType": "uint256",
							"name": "amount",
							"type": "uint256"
						}
					],
					"name": "Withdrawn",
					"type": "event"
				},
				{
					"constant": false,
					"inputs": [],
					"name": "acceptOwnership",
					"outputs": [],
					"payable": false,
					"stateMutability": "nonpayable",
					"type": "function"
				},
				{
					"constant": true,
					"inputs": [
						{
							"internalType": "address",
							"name": "account",
							"type": "address"
						}
					],
					"name": "balanceOf",
					"outputs": [
						{
							"internalType": "uint256",
							"name": "",
							"type": "uint256"
						}
					],
					"payable": false,
					"stateMutability": "view",
					"type": "function"
				},
				{
					"constant": true,
					"inputs": [
						{
							"internalType": "address",
							"name": "account",
							"type": "address"
						}
					],
					"name": "earned",
					"outputs": [
						{
							"internalType": "uint256",
							"name": "",
							"type": "uint256"
						}
					],
					"payable": false,
					"stateMutability": "view",
					"type": "function"
				},
				{
					"constant": false,
					"inputs": [],
					"name": "exit",
					"outputs": [],
					"payable": false,
					"stateMutability": "nonpayable",
					"type": "function"
				},
				{
					"constant": false,
					"inputs": [],
					"name": "getReward",
					"outputs": [],
					"payable": false,
					"stateMutability": "nonpayable",
					"type": "function"
				},
				{
					"constant": true,
					"inputs": [],
					"name": "getRewardForDuration",
					"outputs": [
						{
							"internalType": "uint256",
							"name": "",
							"type": "uint256"
						}
					],
					"payable": false,
					"stateMutability": "view",
					"type": "function"
				},
				{
					"constant": true,
					"inputs": [],
					"name": "lastPauseTime",
					"outputs": [
						{
							"internalType": "uint256",
							"name": "",
							"type": "uint256"
						}
					],
					"payable": false,
					"stateMutability": "view",
					"type": "function"
				},
				{
					"constant": true,
					"inputs": [],
					"name": "lastTimeRewardApplicable",
					"outputs": [
						{
							"internalType": "uint256",
							"name": "",
							"type": "uint256"
						}
					],
					"payable": false,
					"stateMutability": "view",
					"type": "function"
				},
				{
					"constant": true,
					"inputs": [],
					"name": "lastUpdateTime",
					"outputs": [
						{
							"internalType": "uint256",
							"name": "",
							"type": "uint256"
						}
					],
					"payable": false,
					"stateMutability": "view",
					"type": "function"
				},
				{
					"constant": false,
					"inputs": [
						{
							"internalType": "address",
							"name": "_owner",
							"type": "address"
						}
					],
					"name": "nominateNewOwner",
					"outputs": [],
					"payable": false,
					"stateMutability": "nonpayable",
					"type": "function"
				},
				{
					"constant": true,
					"inputs": [],
					"name": "nominatedOwner",
					"outputs": [
						{
							"internalType": "address",
							"name": "",
							"type": "address"
						}
					],
					"payable": false,
					"stateMutability": "view",
					"type": "function"
				},
				{
					"constant": false,
					"inputs": [
						{
							"internalType": "uint256",
							"name": "reward",
							"type": "uint256"
						}
					],
					"name": "notifyRewardAmount",
					"outputs": [],
					"payable": false,
					"stateMutability": "nonpayable",
					"type": "function"
				},
				{
					"constant": true,
					"inputs": [],
					"name": "owner",
					"outputs": [
						{
							"internalType": "address",
							"name": "",
							"type": "address"
						}
					],
					"payable": false,
					"stateMutability": "view",
					"type": "function"
				},
				{
					"constant": true,
					"inputs": [],
					"name": "paused",
					"outputs": [
						{
							"internalType": "bool",
							"name": "",
							"type": "bool"
						}
					],
					"payable": false,
					"stateMutability": "view",
					"type": "function"
				},
				{
					"constant": true,
					"inputs": [],
					"name": "periodFinish",
					"outputs": [
						{
							"internalType": "uint256",
							"name": "",
							"type": "uint256"
						}
					],
					"payable": false,
					"stateMutability": "view",
					"type": "function"
				},
				{
					"constant": false,
					"inputs": [
						{
							"internalType": "address",
							"name": "tokenAddress",
							"type": "address"
						},
						{
							"internalType": "uint256",
							"name": "tokenAmount",
							"type": "uint256"
						}
					],
					"name": "recoverERC20",
					"outputs": [],
					"payable": false,
					"stateMutability": "nonpayable",
					"type": "function"
				},
				{
					"constant": true,
					"inputs": [],
					"name": "rewardPerToken",
					"outputs": [
						{
							"internalType": "uint256",
							"name": "",
							"type": "uint256"
						}
					],
					"payable": false,
					"stateMutability": "view",
					"type": "function"
				},
				{
					"constant": true,
					"inputs": [],
					"name": "rewardPerTokenStored",
					"outputs": [
						{
							"internalType": "uint256",
							"name": "",
							"type": "uint256"
						}
					],
					"payable": false,
					"stateMutability": "view",
					"type": "function"
				},
				{
					"constant": true,
					"inputs": [],
					"name": "rewardRate",
					"outputs": [
						{
							"internalType": "uint256",
							"name": "",
							"type": "uint256"
						}
					],
					"payable": false,
					"stateMutability": "view",
					"type": "function"
				},
				{
					"constant": true,
					"inputs": [
						{
							"internalType": "address",
							"name": "",
							"type": "address"
						}
					],
					"name": "rewards",
					"outputs": [
						{
							"internalType": "uint256",
							"name": "",
							"type": "uint256"
						}
					],
					"payable": false,
					"stateMutability": "view",
					"type": "function"
				},
				{
					"constant": true,
					"inputs": [],
					"name": "rewardsDistribution",
					"outputs": [
						{
							"internalType": "address",
							"name": "",
							"type": "address"
						}
					],
					"payable": false,
					"stateMutability": "view",
					"type": "function"
				},
				{
					"constant": true,
					"inputs": [],
					"name": "rewardsDuration",
					"outputs": [
						{
							"internalType": "uint256",
							"name": "",
							"type": "uint256"
						}
					],
					"payable": false,
					"stateMutability": "view",
					"type": "function"
				},
				{
					"constant": true,
					"inputs": [],
					"name": "rewardsToken",
					"outputs": [
						{
							"internalType": "contract IERC20",
							"name": "",
							"type": "address"
						}
					],
					"payable": false,
					"stateMutability": "view",
					"type": "function"
				},
				{
					"constant": false,
					"inputs": [
						{
							"internalType": "bool",
							"name": "_paused",
							"type": "bool"
						}
					],
					"name": "setPaused",
					"outputs": [],
					"payable": false,
					"stateMutability": "nonpayable",
					"type": "function"
				},
				{
					"constant": false,
					"inputs": [
						{
							"internalType": "address",
							"name": "_rewardsDistribution",
							"type": "address"
						}
					],
					"name": "setRewardsDistribution",
					"outputs": [],
					"payable": false,
					"stateMutability": "nonpayable",
					"type": "function"
				},
				{
					"constant": false,
					"inputs": [
						{
							"internalType": "uint256",
							"name": "_rewardsDuration",
							"type": "uint256"
						}
					],
					"name": "setRewardsDuration",
					"outputs": [],
					"payable": false,
					"stateMutability": "nonpayable",
					"type": "function"
				},
				{
					"constant": false,
					"inputs": [
						{
							"internalType": "uint256",
							"name": "amount",
							"type": "uint256"
						}
					],
					"name": "stake",
					"outputs": [],
					"payable": false,
					"stateMutability": "nonpayable",
					"type": "function"
				},
				{
					"constant": true,
					"inputs": [],
					"name": "stakingToken",
					"outputs": [
						{
							"internalType": "contract IERC20",
							"name": "",
							"type": "address"
						}
					],
					"payable": false,
					"stateMutability": "view",
					"type": "function"
				},
				{
					"constant": true,
					"inputs": [],
					"name": "totalSupply",
					"outputs": [
						{
							"internalType": "uint256",
							"name": "",
							"type": "uint256"
						}
					],
					"payable": false,
					"stateMutability": "view",
					"type": "function"
				},
				{
					"constant": true,
					"inputs": [
						{
							"internalType": "address",
							"name": "",
							"type": "address"
						}
					],
					"name": "userRewardPerTokenPaid",
					"outputs": [
						{
							"internalType": "uint256",
							"name": "",
							"type": "uint256"
						}
					],
					"payable": false,
					"stateMutability": "view",
					"type": "function"
				},
				{
					"constant": false,
					"inputs": [
						{
							"internalType": "uint256",
							"name": "amount",
							"type": "uint256"
						}
					],
					"name": "withdraw",
					"outputs": [],
					"payable": false,
					"stateMutability": "nonpayable",
					"type": "function"
				}
			],
			"devdoc": {
				"methods": {
					"setPaused(bool)": {
						"details": "Only the contract owner may call this."
					}
				}
			},
			"evm": {
				"assembly": "    /* \"contracts/StakingRewards.sol\":532:6611  contract StakingRewards is IStakingRewards, RewardsDistributionRecipient, ReentrancyGuard, Pausable {\r... */\n  mstore(0x40, 0x80)\n    /* \"contracts/StakingRewards.sol\":854:855  0 */\n  0x00\n    /* \"contracts/StakingRewards.sol\":824:855  uint256 public periodFinish = 0 */\n  0x07\n  sstore\n    /* \"contracts/StakingRewards.sol\":890:891  0 */\n  0x00\n    /* \"contracts/StakingRewards.sol\":862:891  uint256 public rewardRate = 0 */\n  0x08\n  sstore\n    /* \"contracts/StakingRewards.sol\":931:937  7 days */\n  0x093a80\n    /* \"contracts/StakingRewards.sol\":898:937  uint256 public rewardsDuration = 7 days */\n  0x09\n  sstore\n    /* \"contracts/StakingRewards.sol\":1275:1598  constructor(\r... */\n  callvalue\n    /* \"--CODEGEN--\":8:17   */\n  dup1\n    /* \"--CODEGEN--\":5:7   */\n  iszero\n  tag_1\n  jumpi\n    /* \"--CODEGEN--\":30:31   */\n  0x00\n    /* \"--CODEGEN--\":27:28   */\n  dup1\n    /* \"--CODEGEN--\":20:32   */\n  revert\n    /* \"--CODEGEN--\":5:7   */\ntag_1:\n    /* \"contracts/StakingRewards.sol\":1275:1598  constructor(\r... */\n  pop\n  mload(0x40)\n  sub(codesize, bytecodeSize)\n  dup1\n  bytecodeSize\n  dup4\n  codecopy\n  dup2\n  dup2\n  add\n  0x40\n  mstore\n    /* \"--CODEGEN--\":13:16   */\n  0x80\n    /* \"--CODEGEN--\":8:11   */\n  dup2\n    /* \"--CODEGEN--\":5:17   */\n  lt\n    /* \"--CODEGEN--\":2:4   */\n  iszero\n  tag_2\n  jumpi\n    /* \"--CODEGEN--\":30:31   */\n  0x00\n    /* \"--CODEGEN--\":27:28   */\n  dup1\n    /* \"--CODEGEN--\":20:32   */\n  revert\n    /* \"--CODEGEN--\":2:4   */\ntag_2:\n    /* \"contracts/StakingRewards.sol\":1275:1598  constructor(\r... */\n  dup2\n  add\n  swap1\n  dup1\n  dup1\n  mload\n  swap1\n  0x20\n  add\n  swap1\n  swap3\n  swap2\n  swap1\n  dup1\n  mload\n  swap1\n  0x20\n  add\n  swap1\n  swap3\n  swap2\n  swap1\n  dup1\n  mload\n  swap1\n  0x20\n  add\n  swap1\n  swap3\n  swap2\n  swap1\n  dup1\n  mload\n  swap1\n  0x20\n  add\n  swap1\n  swap3\n  swap2\n  swap1\n  pop\n  pop\n  pop\n    /* \"contracts/StakingRewards.sol\":1435:1441  _owner */\n  dup4\n    /* \"contracts/Owned.sol\":250:251  0 */\n  0x00\n    /* \"contracts/Owned.sol\":232:252  _owner != address(0) */\n  0xffffffffffffffffffffffffffffffffffffffff\n  and\n    /* \"contracts/Owned.sol\":232:238  _owner */\n  dup2\n    /* \"contracts/Owned.sol\":232:252  _owner != address(0) */\n  0xffffffffffffffffffffffffffffffffffffffff\n  and\n  eq\n  iszero\n    /* \"contracts/Owned.sol\":224:282  require(_owner != address(0), \"Owner address cannot be 0\") */\n  tag_8\n  jumpi\n  mload(0x40)\n  0x08c379a000000000000000000000000000000000000000000000000000000000\n  dup2\n  mstore\n  0x04\n  add\n  dup1\n  dup1\n  0x20\n  add\n  dup3\n  dup2\n  sub\n  dup3\n  mstore\n  0x19\n  dup2\n  mstore\n  0x20\n  add\n  dup1\n  0x4f776e657220616464726573732063616e6e6f74206265203000000000000000\n  dup2\n  mstore\n  pop\n  0x20\n  add\n  swap2\n  pop\n  pop\n  mload(0x40)\n  dup1\n  swap2\n  sub\n  swap1\n  revert\ntag_8:\n    /* \"contracts/Owned.sol\":301:307  _owner */\n  dup1\n    /* \"contracts/Owned.sol\":293:298  owner */\n  0x00\n  dup1\n    /* \"contracts/Owned.sol\":293:307  owner = _owner */\n  0x0100\n  exp\n  dup2\n  sload\n  dup2\n  0xffffffffffffffffffffffffffffffffffffffff\n  mul\n  not\n  and\n  swap1\n  dup4\n  0xffffffffffffffffffffffffffffffffffffffff\n  and\n  mul\n  or\n  swap1\n  sstore\n  pop\n    /* \"contracts/Owned.sol\":323:355  OwnerChanged(address(0), _owner) */\n  0xb532073b38c83145e3e5135377a08bf9aab55bc0fd7c1179cd4fb995d2a5159c\n    /* \"contracts/Owned.sol\":344:345  0 */\n  0x00\n    /* \"contracts/Owned.sol\":348:354  _owner */\n  dup3\n    /* \"contracts/Owned.sol\":323:355  OwnerChanged(address(0), _owner) */\n  mload(0x40)\n  dup1\n  dup4\n  0xffffffffffffffffffffffffffffffffffffffff\n  and\n  0xffffffffffffffffffffffffffffffffffffffff\n  and\n  dup2\n  mstore\n  0x20\n  add\n  dup3\n  0xffffffffffffffffffffffffffffffffffffffff\n  and\n  0xffffffffffffffffffffffffffffffffffffffff\n  and\n  dup2\n  mstore\n  0x20\n  add\n  swap3\n  pop\n  pop\n  pop\n  mload(0x40)\n  dup1\n  swap2\n  sub\n  swap1\n  log1\n    /* \"contracts/Owned.sol\":178:363  constructor(address _owner) public {\r... */\n  pop\n    /* \"openzeppelin-solidity-2.3.0/contracts/utils/ReentrancyGuard.sol\":905:906  1 */\n  0x01\n    /* \"openzeppelin-solidity-2.3.0/contracts/utils/ReentrancyGuard.sol\":889:902  _guardCounter */\n  0x03\n    /* \"openzeppelin-solidity-2.3.0/contracts/utils/ReentrancyGuard.sol\":889:906  _guardCounter = 1 */\n  dup2\n  swap1\n  sstore\n  pop\n    /* \"contracts/Pausable.sol\":367:368  0 */\n  0x00\n    /* \"contracts/Pausable.sol\":350:369  owner != address(0) */\n  0xffffffffffffffffffffffffffffffffffffffff\n  and\n    /* \"contracts/Pausable.sol\":350:355  owner */\n  0x00\n  dup1\n  swap1\n  sload\n  swap1\n  0x0100\n  exp\n  swap1\n  div\n  0xffffffffffffffffffffffffffffffffffffffff\n  and\n    /* \"contracts/Pausable.sol\":350:369  owner != address(0) */\n  0xffffffffffffffffffffffffffffffffffffffff\n  and\n  eq\n  iszero\n    /* \"contracts/Pausable.sol\":342:391  require(owner != address(0), \"Owner must be set\") */\n  tag_11\n  jumpi\n  mload(0x40)\n  0x08c379a000000000000000000000000000000000000000000000000000000000\n  dup2\n  mstore\n  0x04\n  add\n  dup1\n  dup1\n  0x20\n  add\n  dup3\n  dup2\n  sub\n  dup3\n  mstore\n  0x11\n  dup2\n  mstore\n  0x20\n  add\n  dup1\n  0x4f776e6572206d75737420626520736574000000000000000000000000000000\n  dup2\n  mstore\n  pop\n  0x20\n  add\n  swap2\n  pop\n  pop\n  mload(0x40)\n  dup1\n  swap2\n  sub\n  swap1\n  revert\ntag_11:\n    /* \"contracts/StakingRewards.sol\":1476:1489  _rewardsToken */\n  dup2\n    /* \"contracts/StakingRewards.sol\":1454:1466  rewardsToken */\n  0x05\n  0x01\n    /* \"contracts/StakingRewards.sol\":1454:1490  rewardsToken = IERC20(_rewardsToken) */\n  0x0100\n  exp\n  dup2\n  sload\n  dup2\n  0xffffffffffffffffffffffffffffffffffffffff\n  mul\n  not\n  and\n  swap1\n  dup4\n  0xffffffffffffffffffffffffffffffffffffffff\n  and\n  mul\n  or\n  swap1\n  sstore\n  pop\n    /* \"contracts/StakingRewards.sol\":1523:1536  _stakingToken */\n  dup1\n    /* \"contracts/StakingRewards.sol\":1501:1513  stakingToken */\n  0x06\n  0x00\n    /* \"contracts/StakingRewards.sol\":1501:1537  stakingToken = IERC20(_stakingToken) */\n  0x0100\n  exp\n  dup2\n  sload\n  dup2\n  0xffffffffffffffffffffffffffffffffffffffff\n  mul\n  not\n  and\n  swap1\n  dup4\n  0xffffffffffffffffffffffffffffffffffffffff\n  and\n  mul\n  or\n  swap1\n  sstore\n  pop\n    /* \"contracts/StakingRewards.sol\":1570:1590  _rewardsDistribution */\n  dup3\n    /* \"contracts/StakingRewards.sol\":1548:1567  rewardsDistribution */\n  0x02\n  0x00\n    /* \"contracts/StakingRewards.sol\":1548:1590  rewardsDistribution = _rewardsDistribution */\n  0x0100\n  exp\n  dup2\n  sload\n  dup2\n  0xffffffffffffffffffffffffffffffffffffffff\n  mul\n  not\n  and\n  swap1\n  dup4\n  0xffffffffffffffffffffffffffffffffffffffff\n  and\n  mul\n  or\n  swap1\n  sstore\n  pop\n    /* \"contracts/StakingRewards.sol\":1275:1598  constructor(\r... */\n  pop\n  pop\n  pop\n  pop\n    /* \"contracts/StakingRewards.sol\":532:6611  contract StakingRewards is IStakingRewards, RewardsDistributionRecipient, ReentrancyGuard, Pausable {\r... */\n  dataSize(sub_0)\n  dup1\n  dataOffset(sub_0)\n  0x00\n  codecopy\n  0x00\n  return\nstop\n\nsub_0: assembly {\n        /* \"contracts/StakingRewards.sol\":532:6611  contract StakingRewards is IStakingRewards, RewardsDistributionRecipient, ReentrancyGuard, Pausable {\r... */\n      mstore(0x40, 0x80)\n      callvalue\n        /* \"--CODEGEN--\":8:17   */\n      dup1\n        /* \"--CODEGEN--\":5:7   */\n      iszero\n      tag_1\n      jumpi\n        /* \"--CODEGEN--\":30:31   */\n      0x00\n        /* \"--CODEGEN--\":27:28   */\n      dup1\n        /* \"--CODEGEN--\":20:32   */\n      revert\n        /* \"--CODEGEN--\":5:7   */\n    tag_1:\n        /* \"contracts/StakingRewards.sol\":532:6611  contract StakingRewards is IStakingRewards, RewardsDistributionRecipient, ReentrancyGuard, Pausable {\r... */\n      pop\n      jumpi(tag_2, lt(calldatasize, 0x04))\n      shr(0xe0, calldataload(0x00))\n      dup1\n      0x72f702f3\n      gt\n      tag_34\n      jumpi\n      dup1\n      0xa694fc3a\n      gt\n      tag_35\n      jumpi\n      dup1\n      0xd1af0c7d\n      gt\n      tag_36\n      jumpi\n      dup1\n      0xd1af0c7d\n      eq\n      tag_30\n      jumpi\n      dup1\n      0xdf136d65\n      eq\n      tag_31\n      jumpi\n      dup1\n      0xe9fad8ee\n      eq\n      tag_32\n      jumpi\n      dup1\n      0xebe2b12b\n      eq\n      tag_33\n      jumpi\n      jump(tag_2)\n    tag_36:\n      dup1\n      0xa694fc3a\n      eq\n      tag_26\n      jumpi\n      dup1\n      0xc8f33c91\n      eq\n      tag_27\n      jumpi\n      dup1\n      0xcc1a378f\n      eq\n      tag_28\n      jumpi\n      dup1\n      0xcd3daf9d\n      eq\n      tag_29\n      jumpi\n      jump(tag_2)\n    tag_35:\n      dup1\n      0x8980f11f\n      gt\n      tag_37\n      jumpi\n      dup1\n      0x8980f11f\n      eq\n      tag_22\n      jumpi\n      dup1\n      0x8b876347\n      eq\n      tag_23\n      jumpi\n      dup1\n      0x8da5cb5b\n      eq\n      tag_24\n      jumpi\n      dup1\n      0x91b4ded9\n      eq\n      tag_25\n      jumpi\n      jump(tag_2)\n    tag_37:\n      dup1\n      0x72f702f3\n      eq\n      tag_18\n      jumpi\n      dup1\n      0x79ba5097\n      eq\n      tag_19\n      jumpi\n      dup1\n      0x7b0a47ee\n      eq\n      tag_20\n      jumpi\n      dup1\n      0x80faa57d\n      eq\n      tag_21\n      jumpi\n      jump(tag_2)\n    tag_34:\n      dup1\n      0x2e1a7d4d\n      gt\n      tag_38\n      jumpi\n      dup1\n      0x3fc6df6e\n      gt\n      tag_39\n      jumpi\n      dup1\n      0x3fc6df6e\n      eq\n      tag_14\n      jumpi\n      dup1\n      0x53a47bb7\n      eq\n      tag_15\n      jumpi\n      dup1\n      0x5c975abb\n      eq\n      tag_16\n      jumpi\n      dup1\n      0x70a08231\n      eq\n      tag_17\n      jumpi\n      jump(tag_2)\n    tag_39:\n      dup1\n      0x2e1a7d4d\n      eq\n      tag_10\n      jumpi\n      dup1\n      0x386a9525\n      eq\n      tag_11\n      jumpi\n      dup1\n      0x3c6b16ab\n      eq\n      tag_12\n      jumpi\n      dup1\n      0x3d18b912\n      eq\n      tag_13\n      jumpi\n      jump(tag_2)\n    tag_38:\n      dup1\n      0x16c38b3c\n      gt\n      tag_40\n      jumpi\n      dup1\n      0x16c38b3c\n      eq\n      tag_6\n      jumpi\n      dup1\n      0x18160ddd\n      eq\n      tag_7\n      jumpi\n      dup1\n      0x19762143\n      eq\n      tag_8\n      jumpi\n      dup1\n      0x1c1f78eb\n      eq\n      tag_9\n      jumpi\n      jump(tag_2)\n    tag_40:\n      dup1\n      0x8cc262\n      eq\n      tag_3\n      jumpi\n      dup1\n      0x0700037d\n      eq\n      tag_4\n      jumpi\n      dup1\n      0x1627540c\n      eq\n      tag_5\n      jumpi\n    tag_2:\n      0x00\n      dup1\n      revert\n        /* \"contracts/StakingRewards.sol\":2369:2567  function earned(address account) public view returns (uint256) {\r... */\n    tag_3:\n      tag_41\n      0x04\n      dup1\n      calldatasize\n      sub\n        /* \"--CODEGEN--\":13:15   */\n      0x20\n        /* \"--CODEGEN--\":8:11   */\n      dup2\n        /* \"--CODEGEN--\":5:16   */\n      lt\n        /* \"--CODEGEN--\":2:4   */\n      iszero\n      tag_42\n      jumpi\n        /* \"--CODEGEN--\":29:30   */\n      0x00\n        /* \"--CODEGEN--\":26:27   */\n      dup1\n        /* \"--CODEGEN--\":19:31   */\n      revert\n        /* \"--CODEGEN--\":2:4   */\n    tag_42:\n        /* \"contracts/StakingRewards.sol\":2369:2567  function earned(address account) public view returns (uint256) {\r... */\n      dup2\n      add\n      swap1\n      dup1\n      dup1\n      calldataload\n      0xffffffffffffffffffffffffffffffffffffffff\n      and\n      swap1\n      0x20\n      add\n      swap1\n      swap3\n      swap2\n      swap1\n      pop\n      pop\n      pop\n      tag_43\n      jump\t// in\n    tag_41:\n      mload(0x40)\n      dup1\n      dup3\n      dup2\n      mstore\n      0x20\n      add\n      swap2\n      pop\n      pop\n      mload(0x40)\n      dup1\n      swap2\n      sub\n      swap1\n      return\n        /* \"contracts/StakingRewards.sol\":1088:1130  mapping(address => uint256) public rewards */\n    tag_4:\n      tag_44\n      0x04\n      dup1\n      calldatasize\n      sub\n        /* \"--CODEGEN--\":13:15   */\n      0x20\n        /* \"--CODEGEN--\":8:11   */\n      dup2\n        /* \"--CODEGEN--\":5:16   */\n      lt\n        /* \"--CODEGEN--\":2:4   */\n      iszero\n      tag_45\n      jumpi\n        /* \"--CODEGEN--\":29:30   */\n      0x00\n        /* \"--CODEGEN--\":26:27   */\n      dup1\n        /* \"--CODEGEN--\":19:31   */\n      revert\n        /* \"--CODEGEN--\":2:4   */\n    tag_45:\n        /* \"contracts/StakingRewards.sol\":1088:1130  mapping(address => uint256) public rewards */\n      dup2\n      add\n      swap1\n      dup1\n      dup1\n      calldataload\n      0xffffffffffffffffffffffffffffffffffffffff\n      and\n      swap1\n      0x20\n      add\n      swap1\n      swap3\n      swap2\n      swap1\n      pop\n      pop\n      pop\n      tag_46\n      jump\t// in\n    tag_44:\n      mload(0x40)\n      dup1\n      dup3\n      dup2\n      mstore\n      0x20\n      add\n      swap2\n      pop\n      pop\n      mload(0x40)\n      dup1\n      swap2\n      sub\n      swap1\n      return\n        /* \"contracts/Owned.sol\":371:512  function nominateNewOwner(address _owner) external onlyOwner {\r... */\n    tag_5:\n      tag_47\n      0x04\n      dup1\n      calldatasize\n      sub\n        /* \"--CODEGEN--\":13:15   */\n      0x20\n        /* \"--CODEGEN--\":8:11   */\n      dup2\n        /* \"--CODEGEN--\":5:16   */\n      lt\n        /* \"--CODEGEN--\":2:4   */\n      iszero\n      tag_48\n      jumpi\n        /* \"--CODEGEN--\":29:30   */\n      0x00\n        /* \"--CODEGEN--\":26:27   */\n      dup1\n        /* \"--CODEGEN--\":19:31   */\n      revert\n        /* \"--CODEGEN--\":2:4   */\n    tag_48:\n        /* \"contracts/Owned.sol\":371:512  function nominateNewOwner(address _owner) external onlyOwner {\r... */\n      dup2\n      add\n      swap1\n      dup1\n      dup1\n      calldataload\n      0xffffffffffffffffffffffffffffffffffffffff\n      and\n      swap1\n      0x20\n      add\n      swap1\n      swap3\n      swap2\n      swap1\n      pop\n      pop\n      pop\n      tag_49\n      jump\t// in\n    tag_47:\n      stop\n        /* \"contracts/Pausable.sol\":615:1103  function setPaused(bool _paused) external onlyOwner {\r... */\n    tag_6:\n      tag_50\n      0x04\n      dup1\n      calldatasize\n      sub\n        /* \"--CODEGEN--\":13:15   */\n      0x20\n        /* \"--CODEGEN--\":8:11   */\n      dup2\n        /* \"--CODEGEN--\":5:16   */\n      lt\n        /* \"--CODEGEN--\":2:4   */\n      iszero\n      tag_51\n      jumpi\n        /* \"--CODEGEN--\":29:30   */\n      0x00\n        /* \"--CODEGEN--\":26:27   */\n      dup1\n        /* \"--CODEGEN--\":19:31   */\n      revert\n        /* \"--CODEGEN--\":2:4   */\n    tag_51:\n        /* \"contracts/Pausable.sol\":615:1103  function setPaused(bool _paused) external onlyOwner {\r... */\n      dup2\n      add\n      swap1\n      dup1\n      dup1\n      calldataload\n      iszero\n      iszero\n      swap1\n      0x20\n      add\n      swap1\n      swap3\n      swap2\n      swap1\n      pop\n      pop\n      pop\n      tag_52\n      jump\t// in\n    tag_50:\n      stop\n        /* \"contracts/StakingRewards.sol\":1647:1740  function totalSupply() external view returns (uint256) {\r... */\n    tag_7:\n      tag_53\n      tag_54\n      jump\t// in\n    tag_53:\n      mload(0x40)\n      dup1\n      dup3\n      dup2\n      mstore\n      0x20\n      add\n      swap2\n      pop\n      pop\n      mload(0x40)\n      dup1\n      swap2\n      sub\n      swap1\n      return\n        /* \"contracts/RewardsDistributionRecipient.sol\":475:617  function setRewardsDistribution(address _rewardsDistribution) external onlyOwner {\r... */\n    tag_8:\n      tag_55\n      0x04\n      dup1\n      calldatasize\n      sub\n        /* \"--CODEGEN--\":13:15   */\n      0x20\n        /* \"--CODEGEN--\":8:11   */\n      dup2\n        /* \"--CODEGEN--\":5:16   */\n      lt\n        /* \"--CODEGEN--\":2:4   */\n      iszero\n      tag_56\n      jumpi\n        /* \"--CODEGEN--\":29:30   */\n      0x00\n        /* \"--CODEGEN--\":26:27   */\n      dup1\n        /* \"--CODEGEN--\":19:31   */\n      revert\n        /* \"--CODEGEN--\":2:4   */\n    tag_56:\n        /* \"contracts/RewardsDistributionRecipient.sol\":475:617  function setRewardsDistribution(address _rewardsDistribution) external onlyOwner {\r... */\n      dup2\n      add\n      swap1\n      dup1\n      dup1\n      calldataload\n      0xffffffffffffffffffffffffffffffffffffffff\n      and\n      swap1\n      0x20\n      add\n      swap1\n      swap3\n      swap2\n      swap1\n      pop\n      pop\n      pop\n      tag_57\n      jump\t// in\n    tag_55:\n      stop\n        /* \"contracts/StakingRewards.sol\":2575:2696  function getRewardForDuration() external view returns (uint256) {\r... */\n    tag_9:\n      tag_58\n      tag_59\n      jump\t// in\n    tag_58:\n      mload(0x40)\n      dup1\n      dup3\n      dup2\n      mstore\n      0x20\n      add\n      swap2\n      pop\n      pop\n      mload(0x40)\n      dup1\n      swap2\n      sub\n      swap1\n      return\n        /* \"contracts/StakingRewards.sol\":3145:3502  function withdraw(uint256 amount) public nonReentrant updateReward(msg.sender) {\r... */\n    tag_10:\n      tag_60\n      0x04\n      dup1\n      calldatasize\n      sub\n        /* \"--CODEGEN--\":13:15   */\n      0x20\n        /* \"--CODEGEN--\":8:11   */\n      dup2\n        /* \"--CODEGEN--\":5:16   */\n      lt\n        /* \"--CODEGEN--\":2:4   */\n      iszero\n      tag_61\n      jumpi\n        /* \"--CODEGEN--\":29:30   */\n      0x00\n        /* \"--CODEGEN--\":26:27   */\n      dup1\n        /* \"--CODEGEN--\":19:31   */\n      revert\n        /* \"--CODEGEN--\":2:4   */\n    tag_61:\n        /* \"contracts/StakingRewards.sol\":3145:3502  function withdraw(uint256 amount) public nonReentrant updateReward(msg.sender) {\r... */\n      dup2\n      add\n      swap1\n      dup1\n      dup1\n      calldataload\n      swap1\n      0x20\n      add\n      swap1\n      swap3\n      swap2\n      swap1\n      pop\n      pop\n      pop\n      tag_62\n      jump\t// in\n    tag_60:\n      stop\n        /* \"contracts/StakingRewards.sol\":898:937  uint256 public rewardsDuration = 7 days */\n    tag_11:\n      tag_63\n      tag_64\n      jump\t// in\n    tag_63:\n      mload(0x40)\n      dup1\n      dup3\n      dup2\n      mstore\n      0x20\n      add\n      swap2\n      pop\n      pop\n      mload(0x40)\n      dup1\n      swap2\n      sub\n      swap1\n      return\n        /* \"contracts/StakingRewards.sol\":3986:5069  function notifyRewardAmount(uint256 reward) external onlyRewardsDistribution updateReward(address(0)) {\r... */\n    tag_12:\n      tag_65\n      0x04\n      dup1\n      calldatasize\n      sub\n        /* \"--CODEGEN--\":13:15   */\n      0x20\n        /* \"--CODEGEN--\":8:11   */\n      dup2\n        /* \"--CODEGEN--\":5:16   */\n      lt\n        /* \"--CODEGEN--\":2:4   */\n      iszero\n      tag_66\n      jumpi\n        /* \"--CODEGEN--\":29:30   */\n      0x00\n        /* \"--CODEGEN--\":26:27   */\n      dup1\n        /* \"--CODEGEN--\":19:31   */\n      revert\n        /* \"--CODEGEN--\":2:4   */\n    tag_66:\n        /* \"contracts/StakingRewards.sol\":3986:5069  function notifyRewardAmount(uint256 reward) external onlyRewardsDistribution updateReward(address(0)) {\r... */\n      dup2\n      add\n      swap1\n      dup1\n      dup1\n      calldataload\n      swap1\n      0x20\n      add\n      swap1\n      swap3\n      swap2\n      swap1\n      pop\n      pop\n      pop\n      tag_67\n      jump\t// in\n    tag_65:\n      stop\n        /* \"contracts/StakingRewards.sol\":3510:3817  function getReward() public nonReentrant updateReward(msg.sender) {\r... */\n    tag_13:\n      tag_68\n      tag_69\n      jump\t// in\n    tag_68:\n      stop\n        /* \"contracts/RewardsDistributionRecipient.sol\":209:243  address public rewardsDistribution */\n    tag_14:\n      tag_70\n      tag_71\n      jump\t// in\n    tag_70:\n      mload(0x40)\n      dup1\n      dup3\n      0xffffffffffffffffffffffffffffffffffffffff\n      and\n      0xffffffffffffffffffffffffffffffffffffffff\n      and\n      dup2\n      mstore\n      0x20\n      add\n      swap2\n      pop\n      pop\n      mload(0x40)\n      dup1\n      swap2\n      sub\n      swap1\n      return\n        /* \"contracts/Owned.sol\":140:169  address public nominatedOwner */\n    tag_15:\n      tag_72\n      tag_73\n      jump\t// in\n    tag_72:\n      mload(0x40)\n      dup1\n      dup3\n      0xffffffffffffffffffffffffffffffffffffffff\n      and\n      0xffffffffffffffffffffffffffffffffffffffff\n      and\n      dup2\n      mstore\n      0x20\n      add\n      swap2\n      pop\n      pop\n      mload(0x40)\n      dup1\n      swap2\n      sub\n      swap1\n      return\n        /* \"contracts/Pausable.sol\":201:219  bool public paused */\n    tag_16:\n      tag_74\n      tag_75\n      jump\t// in\n    tag_74:\n      mload(0x40)\n      dup1\n      dup3\n      iszero\n      iszero\n      iszero\n      iszero\n      dup2\n      mstore\n      0x20\n      add\n      swap2\n      pop\n      pop\n      mload(0x40)\n      dup1\n      swap2\n      sub\n      swap1\n      return\n        /* \"contracts/StakingRewards.sol\":1748:1860  function balanceOf(address account) external view returns (uint256) {\r... */\n    tag_17:\n      tag_76\n      0x04\n      dup1\n      calldatasize\n      sub\n        /* \"--CODEGEN--\":13:15   */\n      0x20\n        /* \"--CODEGEN--\":8:11   */\n      dup2\n        /* \"--CODEGEN--\":5:16   */\n      lt\n        /* \"--CODEGEN--\":2:4   */\n      iszero\n      tag_77\n      jumpi\n        /* \"--CODEGEN--\":29:30   */\n      0x00\n        /* \"--CODEGEN--\":26:27   */\n      dup1\n        /* \"--CODEGEN--\":19:31   */\n      revert\n        /* \"--CODEGEN--\":2:4   */\n    tag_77:\n        /* \"contracts/StakingRewards.sol\":1748:1860  function balanceOf(address account) external view returns (uint256) {\r... */\n      dup2\n      add\n      swap1\n      dup1\n      dup1\n      calldataload\n      0xffffffffffffffffffffffffffffffffffffffff\n      and\n      swap1\n      0x20\n      add\n      swap1\n      swap3\n      swap2\n      swap1\n      pop\n      pop\n      pop\n      tag_78\n      jump\t// in\n    tag_76:\n      mload(0x40)\n      dup1\n      dup3\n      dup2\n      mstore\n      0x20\n      add\n      swap2\n      pop\n      pop\n      mload(0x40)\n      dup1\n      swap2\n      sub\n      swap1\n      return\n        /* \"contracts/StakingRewards.sol\":791:817  IERC20 public stakingToken */\n    tag_18:\n      tag_79\n      tag_80\n      jump\t// in\n    tag_79:\n      mload(0x40)\n      dup1\n      dup3\n      0xffffffffffffffffffffffffffffffffffffffff\n      and\n      0xffffffffffffffffffffffffffffffffffffffff\n      and\n      dup2\n      mstore\n      0x20\n      add\n      swap2\n      pop\n      pop\n      mload(0x40)\n      dup1\n      swap2\n      sub\n      swap1\n      return\n        /* \"contracts/Owned.sol\":520:791  function acceptOwnership() external {\r... */\n    tag_19:\n      tag_81\n      tag_82\n      jump\t// in\n    tag_81:\n      stop\n        /* \"contracts/StakingRewards.sol\":862:891  uint256 public rewardRate = 0 */\n    tag_20:\n      tag_83\n      tag_84\n      jump\t// in\n    tag_83:\n      mload(0x40)\n      dup1\n      dup3\n      dup2\n      mstore\n      0x20\n      add\n      swap2\n      pop\n      pop\n      mload(0x40)\n      dup1\n      swap2\n      sub\n      swap1\n      return\n        /* \"contracts/StakingRewards.sol\":1868:2023  function lastTimeRewardApplicable() public view returns (uint256) {\r... */\n    tag_21:\n      tag_85\n      tag_86\n      jump\t// in\n    tag_85:\n      mload(0x40)\n      dup1\n      dup3\n      dup2\n      mstore\n      0x20\n      add\n      swap2\n      pop\n      pop\n      mload(0x40)\n      dup1\n      swap2\n      sub\n      swap1\n      return\n        /* \"contracts/StakingRewards.sol\":5184:5486  function recoverERC20(address tokenAddress, uint256 tokenAmount) external onlyOwner {\r... */\n    tag_22:\n      tag_87\n      0x04\n      dup1\n      calldatasize\n      sub\n        /* \"--CODEGEN--\":13:15   */\n      0x40\n        /* \"--CODEGEN--\":8:11   */\n      dup2\n        /* \"--CODEGEN--\":5:16   */\n      lt\n        /* \"--CODEGEN--\":2:4   */\n      iszero\n      tag_88\n      jumpi\n        /* \"--CODEGEN--\":29:30   */\n      0x00\n        /* \"--CODEGEN--\":26:27   */\n      dup1\n        /* \"--CODEGEN--\":19:31   */\n      revert\n        /* \"--CODEGEN--\":2:4   */\n    tag_88:\n        /* \"contracts/StakingRewards.sol\":5184:5486  function recoverERC20(address tokenAddress, uint256 tokenAmount) external onlyOwner {\r... */\n      dup2\n      add\n      swap1\n      dup1\n      dup1\n      calldataload\n      0xffffffffffffffffffffffffffffffffffffffff\n      and\n      swap1\n      0x20\n      add\n      swap1\n      swap3\n      swap2\n      swap1\n      dup1\n      calldataload\n      swap1\n      0x20\n      add\n      swap1\n      swap3\n      swap2\n      swap1\n      pop\n      pop\n      pop\n      tag_89\n      jump\t// in\n    tag_87:\n      stop\n        /* \"contracts/StakingRewards.sol\":1024:1081  mapping(address => uint256) public userRewardPerTokenPaid */\n    tag_23:\n      tag_90\n      0x04\n      dup1\n      calldatasize\n      sub\n        /* \"--CODEGEN--\":13:15   */\n      0x20\n        /* \"--CODEGEN--\":8:11   */\n      dup2\n        /* \"--CODEGEN--\":5:16   */\n      lt\n        /* \"--CODEGEN--\":2:4   */\n      iszero\n      tag_91\n      jumpi\n        /* \"--CODEGEN--\":29:30   */\n      0x00\n        /* \"--CODEGEN--\":26:27   */\n      dup1\n        /* \"--CODEGEN--\":19:31   */\n      revert\n        /* \"--CODEGEN--\":2:4   */\n    tag_91:\n        /* \"contracts/StakingRewards.sol\":1024:1081  mapping(address => uint256) public userRewardPerTokenPaid */\n      dup2\n      add\n      swap1\n      dup1\n      dup1\n      calldataload\n      0xffffffffffffffffffffffffffffffffffffffff\n      and\n      swap1\n      0x20\n      add\n      swap1\n      swap3\n      swap2\n      swap1\n      pop\n      pop\n      pop\n      tag_92\n      jump\t// in\n    tag_90:\n      mload(0x40)\n      dup1\n      dup3\n      dup2\n      mstore\n      0x20\n      add\n      swap2\n      pop\n      pop\n      mload(0x40)\n      dup1\n      swap2\n      sub\n      swap1\n      return\n        /* \"contracts/Owned.sol\":113:133  address public owner */\n    tag_24:\n      tag_93\n      tag_94\n      jump\t// in\n    tag_93:\n      mload(0x40)\n      dup1\n      dup3\n      0xffffffffffffffffffffffffffffffffffffffff\n      and\n      0xffffffffffffffffffffffffffffffffffffffff\n      and\n      dup2\n      mstore\n      0x20\n      add\n      swap2\n      pop\n      pop\n      mload(0x40)\n      dup1\n      swap2\n      sub\n      swap1\n      return\n        /* \"contracts/Pausable.sol\":169:194  uint public lastPauseTime */\n    tag_25:\n      tag_95\n      tag_96\n      jump\t// in\n    tag_95:\n      mload(0x40)\n      dup1\n      dup3\n      dup2\n      mstore\n      0x20\n      add\n      swap2\n      pop\n      pop\n      mload(0x40)\n      dup1\n      swap2\n      sub\n      swap1\n      return\n        /* \"contracts/StakingRewards.sol\":2758:3137  function stake(uint256 amount) external nonReentrant notPaused updateReward(msg.sender) {\r... */\n    tag_26:\n      tag_97\n      0x04\n      dup1\n      calldatasize\n      sub\n        /* \"--CODEGEN--\":13:15   */\n      0x20\n        /* \"--CODEGEN--\":8:11   */\n      dup2\n        /* \"--CODEGEN--\":5:16   */\n      lt\n        /* \"--CODEGEN--\":2:4   */\n      iszero\n      tag_98\n      jumpi\n        /* \"--CODEGEN--\":29:30   */\n      0x00\n        /* \"--CODEGEN--\":26:27   */\n      dup1\n        /* \"--CODEGEN--\":19:31   */\n      revert\n        /* \"--CODEGEN--\":2:4   */\n    tag_98:\n        /* \"contracts/StakingRewards.sol\":2758:3137  function stake(uint256 amount) external nonReentrant notPaused updateReward(msg.sender) {\r... */\n      dup2\n      add\n      swap1\n      dup1\n      dup1\n      calldataload\n      swap1\n      0x20\n      add\n      swap1\n      swap3\n      swap2\n      swap1\n      pop\n      pop\n      pop\n      tag_99\n      jump\t// in\n    tag_97:\n      stop\n        /* \"contracts/StakingRewards.sol\":944:973  uint256 public lastUpdateTime */\n    tag_27:\n      tag_100\n      tag_101\n      jump\t// in\n    tag_100:\n      mload(0x40)\n      dup1\n      dup3\n      dup2\n      mstore\n      0x20\n      add\n      swap2\n      pop\n      pop\n      mload(0x40)\n      dup1\n      swap2\n      sub\n      swap1\n      return\n        /* \"contracts/StakingRewards.sol\":5494:5854  function setRewardsDuration(uint256 _rewardsDuration) external onlyOwner {\r... */\n    tag_28:\n      tag_102\n      0x04\n      dup1\n      calldatasize\n      sub\n        /* \"--CODEGEN--\":13:15   */\n      0x20\n        /* \"--CODEGEN--\":8:11   */\n      dup2\n        /* \"--CODEGEN--\":5:16   */\n      lt\n        /* \"--CODEGEN--\":2:4   */\n      iszero\n      tag_103\n      jumpi\n        /* \"--CODEGEN--\":29:30   */\n      0x00\n        /* \"--CODEGEN--\":26:27   */\n      dup1\n        /* \"--CODEGEN--\":19:31   */\n      revert\n        /* \"--CODEGEN--\":2:4   */\n    tag_103:\n        /* \"contracts/StakingRewards.sol\":5494:5854  function setRewardsDuration(uint256 _rewardsDuration) external onlyOwner {\r... */\n      dup2\n      add\n      swap1\n      dup1\n      dup1\n      calldataload\n      swap1\n      0x20\n      add\n      swap1\n      swap3\n      swap2\n      swap1\n      pop\n      pop\n      pop\n      tag_104\n      jump\t// in\n    tag_102:\n      stop\n        /* \"contracts/StakingRewards.sol\":2031:2361  function rewardPerToken() public view returns (uint256) {\r... */\n    tag_29:\n      tag_105\n      tag_106\n      jump\t// in\n    tag_105:\n      mload(0x40)\n      dup1\n      dup3\n      dup2\n      mstore\n      0x20\n      add\n      swap2\n      pop\n      pop\n      mload(0x40)\n      dup1\n      swap2\n      sub\n      swap1\n      return\n        /* \"contracts/StakingRewards.sol\":758:784  IERC20 public rewardsToken */\n    tag_30:\n      tag_107\n      tag_108\n      jump\t// in\n    tag_107:\n      mload(0x40)\n      dup1\n      dup3\n      0xffffffffffffffffffffffffffffffffffffffff\n      and\n      0xffffffffffffffffffffffffffffffffffffffff\n      and\n      dup2\n      mstore\n      0x20\n      add\n      swap2\n      pop\n      pop\n      mload(0x40)\n      dup1\n      swap2\n      sub\n      swap1\n      return\n        /* \"contracts/StakingRewards.sol\":980:1015  uint256 public rewardPerTokenStored */\n    tag_31:\n      tag_109\n      tag_110\n      jump\t// in\n    tag_109:\n      mload(0x40)\n      dup1\n      dup3\n      dup2\n      mstore\n      0x20\n      add\n      swap2\n      pop\n      pop\n      mload(0x40)\n      dup1\n      swap2\n      sub\n      swap1\n      return\n        /* \"contracts/StakingRewards.sol\":3825:3922  function exit() external {\r... */\n    tag_32:\n      tag_111\n      tag_112\n      jump\t// in\n    tag_111:\n      stop\n        /* \"contracts/StakingRewards.sol\":824:855  uint256 public periodFinish = 0 */\n    tag_33:\n      tag_113\n      tag_114\n      jump\t// in\n    tag_113:\n      mload(0x40)\n      dup1\n      dup3\n      dup2\n      mstore\n      0x20\n      add\n      swap2\n      pop\n      pop\n      mload(0x40)\n      dup1\n      swap2\n      sub\n      swap1\n      return\n        /* \"contracts/StakingRewards.sol\":2369:2567  function earned(address account) public view returns (uint256) {\r... */\n    tag_43:\n        /* \"contracts/StakingRewards.sol\":2423:2430  uint256 */\n      0x00\n        /* \"contracts/StakingRewards.sol\":2450:2559  _balances[account].mul(rewardPerToken().sub(userRewardPerTokenPaid[account])).div(1e18).add(rewards[account]) */\n      tag_116\n        /* \"contracts/StakingRewards.sol\":2542:2549  rewards */\n      0x0d\n        /* \"contracts/StakingRewards.sol\":2542:2558  rewards[account] */\n      0x00\n        /* \"contracts/StakingRewards.sol\":2550:2557  account */\n      dup5\n        /* \"contracts/StakingRewards.sol\":2542:2558  rewards[account] */\n      0xffffffffffffffffffffffffffffffffffffffff\n      and\n      0xffffffffffffffffffffffffffffffffffffffff\n      and\n      dup2\n      mstore\n      0x20\n      add\n      swap1\n      dup2\n      mstore\n      0x20\n      add\n      0x00\n      keccak256\n      sload\n        /* \"contracts/StakingRewards.sol\":2450:2537  _balances[account].mul(rewardPerToken().sub(userRewardPerTokenPaid[account])).div(1e18) */\n      tag_117\n        /* \"contracts/StakingRewards.sol\":2532:2536  1e18 */\n      0x0de0b6b3a7640000\n        /* \"contracts/StakingRewards.sol\":2450:2527  _balances[account].mul(rewardPerToken().sub(userRewardPerTokenPaid[account])) */\n      tag_118\n        /* \"contracts/StakingRewards.sol\":2473:2526  rewardPerToken().sub(userRewardPerTokenPaid[account]) */\n      tag_119\n        /* \"contracts/StakingRewards.sol\":2494:2516  userRewardPerTokenPaid */\n      0x0c\n        /* \"contracts/StakingRewards.sol\":2494:2525  userRewardPerTokenPaid[account] */\n      0x00\n        /* \"contracts/StakingRewards.sol\":2517:2524  account */\n      dup10\n        /* \"contracts/StakingRewards.sol\":2494:2525  userRewardPerTokenPaid[account] */\n      0xffffffffffffffffffffffffffffffffffffffff\n      and\n      0xffffffffffffffffffffffffffffffffffffffff\n      and\n      dup2\n      mstore\n      0x20\n      add\n      swap1\n      dup2\n      mstore\n      0x20\n      add\n      0x00\n      keccak256\n      sload\n        /* \"contracts/StakingRewards.sol\":2473:2489  rewardPerToken() */\n      tag_120\n        /* \"contracts/StakingRewards.sol\":2473:2487  rewardPerToken */\n      tag_106\n        /* \"contracts/StakingRewards.sol\":2473:2489  rewardPerToken() */\n      jump\t// in\n    tag_120:\n        /* \"contracts/StakingRewards.sol\":2473:2493  rewardPerToken().sub */\n      tag_121\n      swap1\n        /* \"contracts/StakingRewards.sol\":2473:2526  rewardPerToken().sub(userRewardPerTokenPaid[account]) */\n      swap2\n      swap1\n      0xffffffff\n      and\n      jump\t// in\n    tag_119:\n        /* \"contracts/StakingRewards.sol\":2450:2459  _balances */\n      0x0f\n        /* \"contracts/StakingRewards.sol\":2450:2468  _balances[account] */\n      0x00\n        /* \"contracts/StakingRewards.sol\":2460:2467  account */\n      dup10\n        /* \"contracts/StakingRewards.sol\":2450:2468  _balances[account] */\n      0xffffffffffffffffffffffffffffffffffffffff\n      and\n      0xffffffffffffffffffffffffffffffffffffffff\n      and\n      dup2\n      mstore\n      0x20\n      add\n      swap1\n      dup2\n      mstore\n      0x20\n      add\n      0x00\n      keccak256\n      sload\n        /* \"contracts/StakingRewards.sol\":2450:2472  _balances[account].mul */\n      tag_122\n      swap1\n        /* \"contracts/StakingRewards.sol\":2450:2527  _balances[account].mul(rewardPerToken().sub(userRewardPerTokenPaid[account])) */\n      swap2\n      swap1\n      0xffffffff\n      and\n      jump\t// in\n    tag_118:\n        /* \"contracts/StakingRewards.sol\":2450:2531  _balances[account].mul(rewardPerToken().sub(userRewardPerTokenPaid[account])).div */\n      tag_123\n      swap1\n        /* \"contracts/StakingRewards.sol\":2450:2537  _balances[account].mul(rewardPerToken().sub(userRewardPerTokenPaid[account])).div(1e18) */\n      swap2\n      swap1\n      0xffffffff\n      and\n      jump\t// in\n    tag_117:\n        /* \"contracts/StakingRewards.sol\":2450:2541  _balances[account].mul(rewardPerToken().sub(userRewardPerTokenPaid[account])).div(1e18).add */\n      tag_124\n      swap1\n        /* \"contracts/StakingRewards.sol\":2450:2559  _balances[account].mul(rewardPerToken().sub(userRewardPerTokenPaid[account])).div(1e18).add(rewards[account]) */\n      swap2\n      swap1\n      0xffffffff\n      and\n      jump\t// in\n    tag_116:\n        /* \"contracts/StakingRewards.sol\":2443:2559  return _balances[account].mul(rewardPerToken().sub(userRewardPerTokenPaid[account])).div(1e18).add(rewards[account]) */\n      swap1\n      pop\n        /* \"contracts/StakingRewards.sol\":2369:2567  function earned(address account) public view returns (uint256) {\r... */\n      swap2\n      swap1\n      pop\n      jump\t// out\n        /* \"contracts/StakingRewards.sol\":1088:1130  mapping(address => uint256) public rewards */\n    tag_46:\n      mstore(0x20, 0x0d)\n      dup1\n      0x00\n      mstore\n      keccak256(0x00, 0x40)\n      0x00\n      swap2\n      pop\n      swap1\n      pop\n      sload\n      dup2\n      jump\t// out\n        /* \"contracts/Owned.sol\":371:512  function nominateNewOwner(address _owner) external onlyOwner {\r... */\n    tag_49:\n        /* \"contracts/Owned.sol\":829:841  _onlyOwner() */\n      tag_126\n        /* \"contracts/Owned.sol\":829:839  _onlyOwner */\n      tag_127\n        /* \"contracts/Owned.sol\":829:841  _onlyOwner() */\n      jump\t// in\n    tag_126:\n        /* \"contracts/Owned.sol\":460:466  _owner */\n      dup1\n        /* \"contracts/Owned.sol\":443:457  nominatedOwner */\n      0x01\n      0x00\n        /* \"contracts/Owned.sol\":443:466  nominatedOwner = _owner */\n      0x0100\n      exp\n      dup2\n      sload\n      dup2\n      0xffffffffffffffffffffffffffffffffffffffff\n      mul\n      not\n      and\n      swap1\n      dup4\n      0xffffffffffffffffffffffffffffffffffffffff\n      and\n      mul\n      or\n      swap1\n      sstore\n      pop\n        /* \"contracts/Owned.sol\":482:504  OwnerNominated(_owner) */\n      0x906a1c6bd7e3091ea86693dd029a831c19049ce77f1dce2ce0bab1cacbabce22\n        /* \"contracts/Owned.sol\":497:503  _owner */\n      dup2\n        /* \"contracts/Owned.sol\":482:504  OwnerNominated(_owner) */\n      mload(0x40)\n      dup1\n      dup3\n      0xffffffffffffffffffffffffffffffffffffffff\n      and\n      0xffffffffffffffffffffffffffffffffffffffff\n      and\n      dup2\n      mstore\n      0x20\n      add\n      swap2\n      pop\n      pop\n      mload(0x40)\n      dup1\n      swap2\n      sub\n      swap1\n      log1\n        /* \"contracts/Owned.sol\":371:512  function nominateNewOwner(address _owner) external onlyOwner {\r... */\n      pop\n      jump\t// out\n        /* \"contracts/Pausable.sol\":615:1103  function setPaused(bool _paused) external onlyOwner {\r... */\n    tag_52:\n        /* \"contracts/Owned.sol\":829:841  _onlyOwner() */\n      tag_130\n        /* \"contracts/Owned.sol\":829:839  _onlyOwner */\n      tag_127\n        /* \"contracts/Owned.sol\":829:841  _onlyOwner() */\n      jump\t// in\n    tag_130:\n        /* \"contracts/Pausable.sol\":768:774  paused */\n      0x05\n      0x00\n      swap1\n      sload\n      swap1\n      0x0100\n      exp\n      swap1\n      div\n      0xff\n      and\n        /* \"contracts/Pausable.sol\":757:774  _paused == paused */\n      iszero\n      iszero\n        /* \"contracts/Pausable.sol\":757:764  _paused */\n      dup2\n        /* \"contracts/Pausable.sol\":757:774  _paused == paused */\n      iszero\n      iszero\n      eq\n        /* \"contracts/Pausable.sol\":753:809  if (_paused == paused) {\r... */\n      iszero\n      tag_132\n      jumpi\n        /* \"contracts/Pausable.sol\":791:798  return; */\n      jump(tag_131)\n        /* \"contracts/Pausable.sol\":753:809  if (_paused == paused) {\r... */\n    tag_132:\n        /* \"contracts/Pausable.sol\":864:871  _paused */\n      dup1\n        /* \"contracts/Pausable.sol\":855:861  paused */\n      0x05\n      0x00\n        /* \"contracts/Pausable.sol\":855:871  paused = _paused */\n      0x0100\n      exp\n      dup2\n      sload\n      dup2\n      0xff\n      mul\n      not\n      and\n      swap1\n      dup4\n      iszero\n      iszero\n      mul\n      or\n      swap1\n      sstore\n      pop\n        /* \"contracts/Pausable.sol\":940:946  paused */\n      0x05\n      0x00\n      swap1\n      sload\n      swap1\n      0x0100\n      exp\n      swap1\n      div\n      0xff\n      and\n        /* \"contracts/Pausable.sol\":936:994  if (paused) {\r... */\n      iszero\n      tag_133\n      jumpi\n        /* \"contracts/Pausable.sol\":979:982  now */\n      timestamp\n        /* \"contracts/Pausable.sol\":963:976  lastPauseTime */\n      0x04\n        /* \"contracts/Pausable.sol\":963:982  lastPauseTime = now */\n      dup2\n      swap1\n      sstore\n      pop\n        /* \"contracts/Pausable.sol\":936:994  if (paused) {\r... */\n    tag_133:\n        /* \"contracts/Pausable.sol\":1075:1095  PauseChanged(paused) */\n      0x8fb6c181ee25a520cf3dd6565006ef91229fcfe5a989566c2a3b8c115570cec5\n        /* \"contracts/Pausable.sol\":1088:1094  paused */\n      0x05\n      0x00\n      swap1\n      sload\n      swap1\n      0x0100\n      exp\n      swap1\n      div\n      0xff\n      and\n        /* \"contracts/Pausable.sol\":1075:1095  PauseChanged(paused) */\n      mload(0x40)\n      dup1\n      dup3\n      iszero\n      iszero\n      iszero\n      iszero\n      dup2\n      mstore\n      0x20\n      add\n      swap2\n      pop\n      pop\n      mload(0x40)\n      dup1\n      swap2\n      sub\n      swap1\n      log1\n        /* \"contracts/Owned.sol\":852:853  _ */\n    tag_131:\n        /* \"contracts/Pausable.sol\":615:1103  function setPaused(bool _paused) external onlyOwner {\r... */\n      pop\n      jump\t// out\n        /* \"contracts/StakingRewards.sol\":1647:1740  function totalSupply() external view returns (uint256) {\r... */\n    tag_54:\n        /* \"contracts/StakingRewards.sol\":1693:1700  uint256 */\n      0x00\n        /* \"contracts/StakingRewards.sol\":1720:1732  _totalSupply */\n      sload(0x0e)\n        /* \"contracts/StakingRewards.sol\":1713:1732  return _totalSupply */\n      swap1\n      pop\n        /* \"contracts/StakingRewards.sol\":1647:1740  function totalSupply() external view returns (uint256) {\r... */\n      swap1\n      jump\t// out\n        /* \"contracts/RewardsDistributionRecipient.sol\":475:617  function setRewardsDistribution(address _rewardsDistribution) external onlyOwner {\r... */\n    tag_57:\n        /* \"contracts/Owned.sol\":829:841  _onlyOwner() */\n      tag_136\n        /* \"contracts/Owned.sol\":829:839  _onlyOwner */\n      tag_127\n        /* \"contracts/Owned.sol\":829:841  _onlyOwner() */\n      jump\t// in\n    tag_136:\n        /* \"contracts/RewardsDistributionRecipient.sol\":589:609  _rewardsDistribution */\n      dup1\n        /* \"contracts/RewardsDistributionRecipient.sol\":567:586  rewardsDistribution */\n      0x02\n      0x00\n        /* \"contracts/RewardsDistributionRecipient.sol\":567:609  rewardsDistribution = _rewardsDistribution */\n      0x0100\n      exp\n      dup2\n      sload\n      dup2\n      0xffffffffffffffffffffffffffffffffffffffff\n      mul\n      not\n      and\n      swap1\n      dup4\n      0xffffffffffffffffffffffffffffffffffffffff\n      and\n      mul\n      or\n      swap1\n      sstore\n      pop\n        /* \"contracts/RewardsDistributionRecipient.sol\":475:617  function setRewardsDistribution(address _rewardsDistribution) external onlyOwner {\r... */\n      pop\n      jump\t// out\n        /* \"contracts/StakingRewards.sol\":2575:2696  function getRewardForDuration() external view returns (uint256) {\r... */\n    tag_59:\n        /* \"contracts/StakingRewards.sol\":2630:2637  uint256 */\n      0x00\n        /* \"contracts/StakingRewards.sol\":2657:2688  rewardRate.mul(rewardsDuration) */\n      tag_139\n        /* \"contracts/StakingRewards.sol\":2672:2687  rewardsDuration */\n      sload(0x09)\n        /* \"contracts/StakingRewards.sol\":2657:2667  rewardRate */\n      sload(0x08)\n        /* \"contracts/StakingRewards.sol\":2657:2671  rewardRate.mul */\n      tag_122\n      swap1\n        /* \"contracts/StakingRewards.sol\":2657:2688  rewardRate.mul(rewardsDuration) */\n      swap2\n      swap1\n      0xffffffff\n      and\n      jump\t// in\n    tag_139:\n        /* \"contracts/StakingRewards.sol\":2650:2688  return rewardRate.mul(rewardsDuration) */\n      swap1\n      pop\n        /* \"contracts/StakingRewards.sol\":2575:2696  function getRewardForDuration() external view returns (uint256) {\r... */\n      swap1\n      jump\t// out\n        /* \"contracts/StakingRewards.sol\":3145:3502  function withdraw(uint256 amount) public nonReentrant updateReward(msg.sender) {\r... */\n    tag_62:\n        /* \"openzeppelin-solidity-2.3.0/contracts/utils/ReentrancyGuard.sol\":1350:1351  1 */\n      0x01\n        /* \"openzeppelin-solidity-2.3.0/contracts/utils/ReentrancyGuard.sol\":1333:1346  _guardCounter */\n      0x03\n      0x00\n        /* \"openzeppelin-solidity-2.3.0/contracts/utils/ReentrancyGuard.sol\":1333:1351  _guardCounter += 1 */\n      dup3\n      dup3\n      sload\n      add\n      swap3\n      pop\n      pop\n      dup2\n      swap1\n      sstore\n      pop\n        /* \"openzeppelin-solidity-2.3.0/contracts/utils/ReentrancyGuard.sol\":1362:1382  uint256 localCounter */\n      0x00\n        /* \"openzeppelin-solidity-2.3.0/contracts/utils/ReentrancyGuard.sol\":1385:1398  _guardCounter */\n      sload(0x03)\n        /* \"openzeppelin-solidity-2.3.0/contracts/utils/ReentrancyGuard.sol\":1362:1398  uint256 localCounter = _guardCounter */\n      swap1\n      pop\n        /* \"contracts/StakingRewards.sol\":3212:3222  msg.sender */\n      caller\n        /* \"contracts/StakingRewards.sol\":5980:5996  rewardPerToken() */\n      tag_142\n        /* \"contracts/StakingRewards.sol\":5980:5994  rewardPerToken */\n      tag_106\n        /* \"contracts/StakingRewards.sol\":5980:5996  rewardPerToken() */\n      jump\t// in\n    tag_142:\n        /* \"contracts/StakingRewards.sol\":5957:5977  rewardPerTokenStored */\n      0x0b\n        /* \"contracts/StakingRewards.sol\":5957:5996  rewardPerTokenStored = rewardPerToken() */\n      dup2\n      swap1\n      sstore\n      pop\n        /* \"contracts/StakingRewards.sol\":6024:6050  lastTimeRewardApplicable() */\n      tag_143\n        /* \"contracts/StakingRewards.sol\":6024:6048  lastTimeRewardApplicable */\n      tag_86\n        /* \"contracts/StakingRewards.sol\":6024:6050  lastTimeRewardApplicable() */\n      jump\t// in\n    tag_143:\n        /* \"contracts/StakingRewards.sol\":6007:6021  lastUpdateTime */\n      0x0a\n        /* \"contracts/StakingRewards.sol\":6007:6050  lastUpdateTime = lastTimeRewardApplicable() */\n      dup2\n      swap1\n      sstore\n      pop\n        /* \"contracts/StakingRewards.sol\":6084:6085  0 */\n      0x00\n        /* \"contracts/StakingRewards.sol\":6065:6086  account != address(0) */\n      0xffffffffffffffffffffffffffffffffffffffff\n      and\n        /* \"contracts/StakingRewards.sol\":6065:6072  account */\n      dup2\n        /* \"contracts/StakingRewards.sol\":6065:6086  account != address(0) */\n      0xffffffffffffffffffffffffffffffffffffffff\n      and\n      eq\n        /* \"contracts/StakingRewards.sol\":6061:6218  if (account != address(0)) {\r... */\n      tag_144\n      jumpi\n        /* \"contracts/StakingRewards.sol\":6122:6137  earned(account) */\n      tag_145\n        /* \"contracts/StakingRewards.sol\":6129:6136  account */\n      dup2\n        /* \"contracts/StakingRewards.sol\":6122:6128  earned */\n      tag_43\n        /* \"contracts/StakingRewards.sol\":6122:6137  earned(account) */\n      jump\t// in\n    tag_145:\n        /* \"contracts/StakingRewards.sol\":6103:6110  rewards */\n      0x0d\n        /* \"contracts/StakingRewards.sol\":6103:6119  rewards[account] */\n      0x00\n        /* \"contracts/StakingRewards.sol\":6111:6118  account */\n      dup4\n        /* \"contracts/StakingRewards.sol\":6103:6119  rewards[account] */\n      0xffffffffffffffffffffffffffffffffffffffff\n      and\n      0xffffffffffffffffffffffffffffffffffffffff\n      and\n      dup2\n      mstore\n      0x20\n      add\n      swap1\n      dup2\n      mstore\n      0x20\n      add\n      0x00\n      keccak256\n        /* \"contracts/StakingRewards.sol\":6103:6137  rewards[account] = earned(account) */\n      dup2\n      swap1\n      sstore\n      pop\n        /* \"contracts/StakingRewards.sol\":6186:6206  rewardPerTokenStored */\n      sload(0x0b)\n        /* \"contracts/StakingRewards.sol\":6152:6174  userRewardPerTokenPaid */\n      0x0c\n        /* \"contracts/StakingRewards.sol\":6152:6183  userRewardPerTokenPaid[account] */\n      0x00\n        /* \"contracts/StakingRewards.sol\":6175:6182  account */\n      dup4\n        /* \"contracts/StakingRewards.sol\":6152:6183  userRewardPerTokenPaid[account] */\n      0xffffffffffffffffffffffffffffffffffffffff\n      and\n      0xffffffffffffffffffffffffffffffffffffffff\n      and\n      dup2\n      mstore\n      0x20\n      add\n      swap1\n      dup2\n      mstore\n      0x20\n      add\n      0x00\n      keccak256\n        /* \"contracts/StakingRewards.sol\":6152:6206  userRewardPerTokenPaid[account] = rewardPerTokenStored */\n      dup2\n      swap1\n      sstore\n      pop\n        /* \"contracts/StakingRewards.sol\":6061:6218  if (account != address(0)) {\r... */\n    tag_144:\n        /* \"contracts/StakingRewards.sol\":3252:3253  0 */\n      0x00\n        /* \"contracts/StakingRewards.sol\":3243:3249  amount */\n      dup4\n        /* \"contracts/StakingRewards.sol\":3243:3253  amount > 0 */\n      gt\n        /* \"contracts/StakingRewards.sol\":3235:3275  require(amount > 0, \"Cannot withdraw 0\") */\n      tag_147\n      jumpi\n      mload(0x40)\n      0x08c379a000000000000000000000000000000000000000000000000000000000\n      dup2\n      mstore\n      0x04\n      add\n      dup1\n      dup1\n      0x20\n      add\n      dup3\n      dup2\n      sub\n      dup3\n      mstore\n      0x11\n      dup2\n      mstore\n      0x20\n      add\n      dup1\n      0x43616e6e6f742077697468647261772030000000000000000000000000000000\n      dup2\n      mstore\n      pop\n      0x20\n      add\n      swap2\n      pop\n      pop\n      mload(0x40)\n      dup1\n      swap2\n      sub\n      swap1\n      revert\n    tag_147:\n        /* \"contracts/StakingRewards.sol\":3301:3325  _totalSupply.sub(amount) */\n      tag_148\n        /* \"contracts/StakingRewards.sol\":3318:3324  amount */\n      dup4\n        /* \"contracts/StakingRewards.sol\":3301:3313  _totalSupply */\n      sload(0x0e)\n        /* \"contracts/StakingRewards.sol\":3301:3317  _totalSupply.sub */\n      tag_121\n      swap1\n        /* \"contracts/StakingRewards.sol\":3301:3325  _totalSupply.sub(amount) */\n      swap2\n      swap1\n      0xffffffff\n      and\n      jump\t// in\n    tag_148:\n        /* \"contracts/StakingRewards.sol\":3286:3298  _totalSupply */\n      0x0e\n        /* \"contracts/StakingRewards.sol\":3286:3325  _totalSupply = _totalSupply.sub(amount) */\n      dup2\n      swap1\n      sstore\n      pop\n        /* \"contracts/StakingRewards.sol\":3360:3393  _balances[msg.sender].sub(amount) */\n      tag_149\n        /* \"contracts/StakingRewards.sol\":3386:3392  amount */\n      dup4\n        /* \"contracts/StakingRewards.sol\":3360:3369  _balances */\n      0x0f\n        /* \"contracts/StakingRewards.sol\":3360:3381  _balances[msg.sender] */\n      0x00\n        /* \"contracts/StakingRewards.sol\":3370:3380  msg.sender */\n      caller\n        /* \"contracts/StakingRewards.sol\":3360:3381  _balances[msg.sender] */\n      0xffffffffffffffffffffffffffffffffffffffff\n      and\n      0xffffffffffffffffffffffffffffffffffffffff\n      and\n      dup2\n      mstore\n      0x20\n      add\n      swap1\n      dup2\n      mstore\n      0x20\n      add\n      0x00\n      keccak256\n      sload\n        /* \"contracts/StakingRewards.sol\":3360:3385  _balances[msg.sender].sub */\n      tag_121\n      swap1\n        /* \"contracts/StakingRewards.sol\":3360:3393  _balances[msg.sender].sub(amount) */\n      swap2\n      swap1\n      0xffffffff\n      and\n      jump\t// in\n    tag_149:\n        /* \"contracts/StakingRewards.sol\":3336:3345  _balances */\n      0x0f\n        /* \"contracts/StakingRewards.sol\":3336:3357  _balances[msg.sender] */\n      0x00\n        /* \"contracts/StakingRewards.sol\":3346:3356  msg.sender */\n      caller\n        /* \"contracts/StakingRewards.sol\":3336:3357  _balances[msg.sender] */\n      0xffffffffffffffffffffffffffffffffffffffff\n      and\n      0xffffffffffffffffffffffffffffffffffffffff\n      and\n      dup2\n      mstore\n      0x20\n      add\n      swap1\n      dup2\n      mstore\n      0x20\n      add\n      0x00\n      keccak256\n        /* \"contracts/StakingRewards.sol\":3336:3393  _balances[msg.sender] = _balances[msg.sender].sub(amount) */\n      dup2\n      swap1\n      sstore\n      pop\n        /* \"contracts/StakingRewards.sol\":3404:3449  stakingToken.safeTransfer(msg.sender, amount) */\n      tag_150\n        /* \"contracts/StakingRewards.sol\":3430:3440  msg.sender */\n      caller\n        /* \"contracts/StakingRewards.sol\":3442:3448  amount */\n      dup5\n        /* \"contracts/StakingRewards.sol\":3404:3416  stakingToken */\n      0x06\n      0x00\n      swap1\n      sload\n      swap1\n      0x0100\n      exp\n      swap1\n      div\n      0xffffffffffffffffffffffffffffffffffffffff\n      and\n        /* \"contracts/StakingRewards.sol\":3404:3429  stakingToken.safeTransfer */\n      0xffffffffffffffffffffffffffffffffffffffff\n      and\n      tag_151\n      swap1\n        /* \"contracts/StakingRewards.sol\":3404:3449  stakingToken.safeTransfer(msg.sender, amount) */\n      swap3\n      swap2\n      swap1\n      0xffffffff\n      and\n      jump\t// in\n    tag_150:\n        /* \"contracts/StakingRewards.sol\":3475:3485  msg.sender */\n      caller\n        /* \"contracts/StakingRewards.sol\":3465:3494  Withdrawn(msg.sender, amount) */\n      0xffffffffffffffffffffffffffffffffffffffff\n      and\n      0x7084f5476618d8e60b11ef0d7d3f06914655adb8793e28ff7f018d4c76d505d5\n        /* \"contracts/StakingRewards.sol\":3487:3493  amount */\n      dup5\n        /* \"contracts/StakingRewards.sol\":3465:3494  Withdrawn(msg.sender, amount) */\n      mload(0x40)\n      dup1\n      dup3\n      dup2\n      mstore\n      0x20\n      add\n      swap2\n      pop\n      pop\n      mload(0x40)\n      dup1\n      swap2\n      sub\n      swap1\n      log2\n        /* \"openzeppelin-solidity-2.3.0/contracts/utils/ReentrancyGuard.sol\":1409:1410  _ */\n      pop\n        /* \"openzeppelin-solidity-2.3.0/contracts/utils/ReentrancyGuard.sol\":1445:1458  _guardCounter */\n      sload(0x03)\n        /* \"openzeppelin-solidity-2.3.0/contracts/utils/ReentrancyGuard.sol\":1429:1441  localCounter */\n      dup2\n        /* \"openzeppelin-solidity-2.3.0/contracts/utils/ReentrancyGuard.sol\":1429:1458  localCounter == _guardCounter */\n      eq\n        /* \"openzeppelin-solidity-2.3.0/contracts/utils/ReentrancyGuard.sol\":1421:1494  require(localCounter == _guardCounter, \"ReentrancyGuard: reentrant call\") */\n      tag_152\n      jumpi\n      mload(0x40)\n      0x08c379a000000000000000000000000000000000000000000000000000000000\n      dup2\n      mstore\n      0x04\n      add\n      dup1\n      dup1\n      0x20\n      add\n      dup3\n      dup2\n      sub\n      dup3\n      mstore\n      0x1f\n      dup2\n      mstore\n      0x20\n      add\n      dup1\n      0x5265656e7472616e637947756172643a207265656e7472616e742063616c6c00\n      dup2\n      mstore\n      pop\n      0x20\n      add\n      swap2\n      pop\n      pop\n      mload(0x40)\n      dup1\n      swap2\n      sub\n      swap1\n      revert\n    tag_152:\n        /* \"contracts/StakingRewards.sol\":3145:3502  function withdraw(uint256 amount) public nonReentrant updateReward(msg.sender) {\r... */\n      pop\n      pop\n      jump\t// out\n        /* \"contracts/StakingRewards.sol\":898:937  uint256 public rewardsDuration = 7 days */\n    tag_64:\n      sload(0x09)\n      dup2\n      jump\t// out\n        /* \"contracts/StakingRewards.sol\":3986:5069  function notifyRewardAmount(uint256 reward) external onlyRewardsDistribution updateReward(address(0)) {\r... */\n    tag_67:\n        /* \"contracts/RewardsDistributionRecipient.sol\":381:400  rewardsDistribution */\n      0x02\n      0x00\n      swap1\n      sload\n      swap1\n      0x0100\n      exp\n      swap1\n      div\n      0xffffffffffffffffffffffffffffffffffffffff\n      and\n        /* \"contracts/RewardsDistributionRecipient.sol\":367:400  msg.sender == rewardsDistribution */\n      0xffffffffffffffffffffffffffffffffffffffff\n      and\n        /* \"contracts/RewardsDistributionRecipient.sol\":367:377  msg.sender */\n      caller\n        /* \"contracts/RewardsDistributionRecipient.sol\":367:400  msg.sender == rewardsDistribution */\n      0xffffffffffffffffffffffffffffffffffffffff\n      and\n      eq\n        /* \"contracts/RewardsDistributionRecipient.sol\":359:447  require(msg.sender == rewardsDistribution, \"Caller is not RewardsDistribution contract\") */\n      tag_154\n      jumpi\n      mload(0x40)\n      0x08c379a000000000000000000000000000000000000000000000000000000000\n      dup2\n      mstore\n      0x04\n      add\n      dup1\n      dup1\n      0x20\n      add\n      dup3\n      dup2\n      sub\n      dup3\n      mstore\n      0x2a\n      dup2\n      mstore\n      0x20\n      add\n      dup1\n      data_d50b095422f4cbfcb4c90fbd4d55aaf0967bf1d90e94bb6a1ae9fc4ee7e733de\n      0x2a\n      swap2\n      codecopy\n      0x40\n      add\n      swap2\n      pop\n      pop\n      mload(0x40)\n      dup1\n      swap2\n      sub\n      swap1\n      revert\n    tag_154:\n        /* \"contracts/StakingRewards.sol\":4084:4085  0 */\n      0x00\n        /* \"contracts/StakingRewards.sol\":5980:5996  rewardPerToken() */\n      tag_156\n        /* \"contracts/StakingRewards.sol\":5980:5994  rewardPerToken */\n      tag_106\n        /* \"contracts/StakingRewards.sol\":5980:5996  rewardPerToken() */\n      jump\t// in\n    tag_156:\n        /* \"contracts/StakingRewards.sol\":5957:5977  rewardPerTokenStored */\n      0x0b\n        /* \"contracts/StakingRewards.sol\":5957:5996  rewardPerTokenStored = rewardPerToken() */\n      dup2\n      swap1\n      sstore\n      pop\n        /* \"contracts/StakingRewards.sol\":6024:6050  lastTimeRewardApplicable() */\n      tag_157\n        /* \"contracts/StakingRewards.sol\":6024:6048  lastTimeRewardApplicable */\n      tag_86\n        /* \"contracts/StakingRewards.sol\":6024:6050  lastTimeRewardApplicable() */\n      jump\t// in\n    tag_157:\n        /* \"contracts/StakingRewards.sol\":6007:6021  lastUpdateTime */\n      0x0a\n        /* \"contracts/StakingRewards.sol\":6007:6050  lastUpdateTime = lastTimeRewardApplicable() */\n      dup2\n      swap1\n      sstore\n      pop\n        /* \"contracts/StakingRewards.sol\":6084:6085  0 */\n      0x00\n        /* \"contracts/StakingRewards.sol\":6065:6086  account != address(0) */\n      0xffffffffffffffffffffffffffffffffffffffff\n      and\n        /* \"contracts/StakingRewards.sol\":6065:6072  account */\n      dup2\n        /* \"contracts/StakingRewards.sol\":6065:6086  account != address(0) */\n      0xffffffffffffffffffffffffffffffffffffffff\n      and\n      eq\n        /* \"contracts/StakingRewards.sol\":6061:6218  if (account != address(0)) {\r... */\n      tag_158\n      jumpi\n        /* \"contracts/StakingRewards.sol\":6122:6137  earned(account) */\n      tag_159\n        /* \"contracts/StakingRewards.sol\":6129:6136  account */\n      dup2\n        /* \"contracts/StakingRewards.sol\":6122:6128  earned */\n      tag_43\n        /* \"contracts/StakingRewards.sol\":6122:6137  earned(account) */\n      jump\t// in\n    tag_159:\n        /* \"contracts/StakingRewards.sol\":6103:6110  rewards */\n      0x0d\n        /* \"contracts/StakingRewards.sol\":6103:6119  rewards[account] */\n      0x00\n        /* \"contracts/StakingRewards.sol\":6111:6118  account */\n      dup4\n        /* \"contracts/StakingRewards.sol\":6103:6119  rewards[account] */\n      0xffffffffffffffffffffffffffffffffffffffff\n      and\n      0xffffffffffffffffffffffffffffffffffffffff\n      and\n      dup2\n      mstore\n      0x20\n      add\n      swap1\n      dup2\n      mstore\n      0x20\n      add\n      0x00\n      keccak256\n        /* \"contracts/StakingRewards.sol\":6103:6137  rewards[account] = earned(account) */\n      dup2\n      swap1\n      sstore\n      pop\n        /* \"contracts/StakingRewards.sol\":6186:6206  rewardPerTokenStored */\n      sload(0x0b)\n        /* \"contracts/StakingRewards.sol\":6152:6174  userRewardPerTokenPaid */\n      0x0c\n        /* \"contracts/StakingRewards.sol\":6152:6183  userRewardPerTokenPaid[account] */\n      0x00\n        /* \"contracts/StakingRewards.sol\":6175:6182  account */\n      dup4\n        /* \"contracts/StakingRewards.sol\":6152:6183  userRewardPerTokenPaid[account] */\n      0xffffffffffffffffffffffffffffffffffffffff\n      and\n      0xffffffffffffffffffffffffffffffffffffffff\n      and\n      dup2\n      mstore\n      0x20\n      add\n      swap1\n      dup2\n      mstore\n      0x20\n      add\n      0x00\n      keccak256\n        /* \"contracts/StakingRewards.sol\":6152:6206  userRewardPerTokenPaid[account] = rewardPerTokenStored */\n      dup2\n      swap1\n      sstore\n      pop\n        /* \"contracts/StakingRewards.sol\":6061:6218  if (account != address(0)) {\r... */\n    tag_158:\n        /* \"contracts/StakingRewards.sol\":4122:4134  periodFinish */\n      sload(0x07)\n        /* \"contracts/StakingRewards.sol\":4103:4118  block.timestamp */\n      timestamp\n        /* \"contracts/StakingRewards.sol\":4103:4134  block.timestamp >= periodFinish */\n      lt\n        /* \"contracts/StakingRewards.sol\":4099:4417  if (block.timestamp >= periodFinish) {\r... */\n      tag_161\n      jumpi\n        /* \"contracts/StakingRewards.sol\":4164:4191  reward.div(rewardsDuration) */\n      tag_162\n        /* \"contracts/StakingRewards.sol\":4175:4190  rewardsDuration */\n      sload(0x09)\n        /* \"contracts/StakingRewards.sol\":4164:4170  reward */\n      dup4\n        /* \"contracts/StakingRewards.sol\":4164:4174  reward.div */\n      tag_123\n      swap1\n        /* \"contracts/StakingRewards.sol\":4164:4191  reward.div(rewardsDuration) */\n      swap2\n      swap1\n      0xffffffff\n      and\n      jump\t// in\n    tag_162:\n        /* \"contracts/StakingRewards.sol\":4151:4161  rewardRate */\n      0x08\n        /* \"contracts/StakingRewards.sol\":4151:4191  rewardRate = reward.div(rewardsDuration) */\n      dup2\n      swap1\n      sstore\n      pop\n        /* \"contracts/StakingRewards.sol\":4099:4417  if (block.timestamp >= periodFinish) {\r... */\n      jump(tag_163)\n    tag_161:\n        /* \"contracts/StakingRewards.sol\":4224:4241  uint256 remaining */\n      0x00\n        /* \"contracts/StakingRewards.sol\":4244:4277  periodFinish.sub(block.timestamp) */\n      tag_164\n        /* \"contracts/StakingRewards.sol\":4261:4276  block.timestamp */\n      timestamp\n        /* \"contracts/StakingRewards.sol\":4244:4256  periodFinish */\n      sload(0x07)\n        /* \"contracts/StakingRewards.sol\":4244:4260  periodFinish.sub */\n      tag_121\n      swap1\n        /* \"contracts/StakingRewards.sol\":4244:4277  periodFinish.sub(block.timestamp) */\n      swap2\n      swap1\n      0xffffffff\n      and\n      jump\t// in\n    tag_164:\n        /* \"contracts/StakingRewards.sol\":4224:4277  uint256 remaining = periodFinish.sub(block.timestamp) */\n      swap1\n      pop\n        /* \"contracts/StakingRewards.sol\":4292:4308  uint256 leftover */\n      0x00\n        /* \"contracts/StakingRewards.sol\":4311:4336  remaining.mul(rewardRate) */\n      tag_165\n        /* \"contracts/StakingRewards.sol\":4325:4335  rewardRate */\n      sload(0x08)\n        /* \"contracts/StakingRewards.sol\":4311:4320  remaining */\n      dup4\n        /* \"contracts/StakingRewards.sol\":4311:4324  remaining.mul */\n      tag_122\n      swap1\n        /* \"contracts/StakingRewards.sol\":4311:4336  remaining.mul(rewardRate) */\n      swap2\n      swap1\n      0xffffffff\n      and\n      jump\t// in\n    tag_165:\n        /* \"contracts/StakingRewards.sol\":4292:4336  uint256 leftover = remaining.mul(rewardRate) */\n      swap1\n      pop\n        /* \"contracts/StakingRewards.sol\":4364:4405  reward.add(leftover).div(rewardsDuration) */\n      tag_166\n        /* \"contracts/StakingRewards.sol\":4389:4404  rewardsDuration */\n      sload(0x09)\n        /* \"contracts/StakingRewards.sol\":4364:4384  reward.add(leftover) */\n      tag_167\n        /* \"contracts/StakingRewards.sol\":4375:4383  leftover */\n      dup4\n        /* \"contracts/StakingRewards.sol\":4364:4370  reward */\n      dup8\n        /* \"contracts/StakingRewards.sol\":4364:4374  reward.add */\n      tag_124\n      swap1\n        /* \"contracts/StakingRewards.sol\":4364:4384  reward.add(leftover) */\n      swap2\n      swap1\n      0xffffffff\n      and\n      jump\t// in\n    tag_167:\n        /* \"contracts/StakingRewards.sol\":4364:4388  reward.add(leftover).div */\n      tag_123\n      swap1\n        /* \"contracts/StakingRewards.sol\":4364:4405  reward.add(leftover).div(rewardsDuration) */\n      swap2\n      swap1\n      0xffffffff\n      and\n      jump\t// in\n    tag_166:\n        /* \"contracts/StakingRewards.sol\":4351:4361  rewardRate */\n      0x08\n        /* \"contracts/StakingRewards.sol\":4351:4405  rewardRate = reward.add(leftover).div(rewardsDuration) */\n      dup2\n      swap1\n      sstore\n      pop\n        /* \"contracts/StakingRewards.sol\":4099:4417  if (block.timestamp >= periodFinish) {\r... */\n      pop\n      pop\n    tag_163:\n        /* \"contracts/StakingRewards.sol\":4777:4789  uint balance */\n      0x00\n        /* \"contracts/StakingRewards.sol\":4792:4804  rewardsToken */\n      0x05\n      0x01\n      swap1\n      sload\n      swap1\n      0x0100\n      exp\n      swap1\n      div\n      0xffffffffffffffffffffffffffffffffffffffff\n      and\n        /* \"contracts/StakingRewards.sol\":4792:4814  rewardsToken.balanceOf */\n      0xffffffffffffffffffffffffffffffffffffffff\n      and\n      0x70a08231\n        /* \"contracts/StakingRewards.sol\":4823:4827  this */\n      address\n        /* \"contracts/StakingRewards.sol\":4792:4829  rewardsToken.balanceOf(address(this)) */\n      mload(0x40)\n      dup3\n      0xffffffff\n      and\n      0xe0\n      shl\n      dup2\n      mstore\n      0x04\n      add\n      dup1\n      dup3\n      0xffffffffffffffffffffffffffffffffffffffff\n      and\n      0xffffffffffffffffffffffffffffffffffffffff\n      and\n      dup2\n      mstore\n      0x20\n      add\n      swap2\n      pop\n      pop\n      0x20\n      mload(0x40)\n      dup1\n      dup4\n      sub\n      dup2\n      dup7\n      dup1\n      extcodesize\n      iszero\n        /* \"--CODEGEN--\":8:17   */\n      dup1\n        /* \"--CODEGEN--\":5:7   */\n      iszero\n      tag_168\n      jumpi\n        /* \"--CODEGEN--\":30:31   */\n      0x00\n        /* \"--CODEGEN--\":27:28   */\n      dup1\n        /* \"--CODEGEN--\":20:32   */\n      revert\n        /* \"--CODEGEN--\":5:7   */\n    tag_168:\n        /* \"contracts/StakingRewards.sol\":4792:4829  rewardsToken.balanceOf(address(this)) */\n      pop\n      gas\n      staticcall\n      iszero\n        /* \"--CODEGEN--\":8:17   */\n      dup1\n        /* \"--CODEGEN--\":5:7   */\n      iszero\n      tag_169\n      jumpi\n        /* \"--CODEGEN--\":45:61   */\n      returndatasize\n        /* \"--CODEGEN--\":42:43   */\n      0x00\n        /* \"--CODEGEN--\":39:40   */\n      dup1\n        /* \"--CODEGEN--\":24:62   */\n      returndatacopy\n        /* \"--CODEGEN--\":77:93   */\n      returndatasize\n        /* \"--CODEGEN--\":74:75   */\n      0x00\n        /* \"--CODEGEN--\":67:94   */\n      revert\n        /* \"--CODEGEN--\":5:7   */\n    tag_169:\n        /* \"contracts/StakingRewards.sol\":4792:4829  rewardsToken.balanceOf(address(this)) */\n      pop\n      pop\n      pop\n      pop\n      mload(0x40)\n      returndatasize\n        /* \"--CODEGEN--\":13:15   */\n      0x20\n        /* \"--CODEGEN--\":8:11   */\n      dup2\n        /* \"--CODEGEN--\":5:16   */\n      lt\n        /* \"--CODEGEN--\":2:4   */\n      iszero\n      tag_170\n      jumpi\n        /* \"--CODEGEN--\":29:30   */\n      0x00\n        /* \"--CODEGEN--\":26:27   */\n      dup1\n        /* \"--CODEGEN--\":19:31   */\n      revert\n        /* \"--CODEGEN--\":2:4   */\n    tag_170:\n        /* \"contracts/StakingRewards.sol\":4792:4829  rewardsToken.balanceOf(address(this)) */\n      dup2\n      add\n      swap1\n      dup1\n      dup1\n      mload\n      swap1\n      0x20\n      add\n      swap1\n      swap3\n      swap2\n      swap1\n      pop\n      pop\n      pop\n        /* \"contracts/StakingRewards.sol\":4777:4829  uint balance = rewardsToken.balanceOf(address(this)) */\n      swap1\n      pop\n        /* \"contracts/StakingRewards.sol\":4862:4890  balance.div(rewardsDuration) */\n      tag_171\n        /* \"contracts/StakingRewards.sol\":4874:4889  rewardsDuration */\n      sload(0x09)\n        /* \"contracts/StakingRewards.sol\":4862:4869  balance */\n      dup3\n        /* \"contracts/StakingRewards.sol\":4862:4873  balance.div */\n      tag_123\n      swap1\n        /* \"contracts/StakingRewards.sol\":4862:4890  balance.div(rewardsDuration) */\n      swap2\n      swap1\n      0xffffffff\n      and\n      jump\t// in\n    tag_171:\n        /* \"contracts/StakingRewards.sol\":4848:4858  rewardRate */\n      sload(0x08)\n        /* \"contracts/StakingRewards.sol\":4848:4890  rewardRate <= balance.div(rewardsDuration) */\n      gt\n      iszero\n        /* \"contracts/StakingRewards.sol\":4840:4919  require(rewardRate <= balance.div(rewardsDuration), \"Provided reward too high\") */\n      tag_172\n      jumpi\n      mload(0x40)\n      0x08c379a000000000000000000000000000000000000000000000000000000000\n      dup2\n      mstore\n      0x04\n      add\n      dup1\n      dup1\n      0x20\n      add\n      dup3\n      dup2\n      sub\n      dup3\n      mstore\n      0x18\n      dup2\n      mstore\n      0x20\n      add\n      dup1\n      0x50726f76696465642072657761726420746f6f20686967680000000000000000\n      dup2\n      mstore\n      pop\n      0x20\n      add\n      swap2\n      pop\n      pop\n      mload(0x40)\n      dup1\n      swap2\n      sub\n      swap1\n      revert\n    tag_172:\n        /* \"contracts/StakingRewards.sol\":4949:4964  block.timestamp */\n      timestamp\n        /* \"contracts/StakingRewards.sol\":4932:4946  lastUpdateTime */\n      0x0a\n        /* \"contracts/StakingRewards.sol\":4932:4964  lastUpdateTime = block.timestamp */\n      dup2\n      swap1\n      sstore\n      pop\n        /* \"contracts/StakingRewards.sol\":4990:5026  block.timestamp.add(rewardsDuration) */\n      tag_173\n        /* \"contracts/StakingRewards.sol\":5010:5025  rewardsDuration */\n      sload(0x09)\n        /* \"contracts/StakingRewards.sol\":4990:5005  block.timestamp */\n      timestamp\n        /* \"contracts/StakingRewards.sol\":4990:5009  block.timestamp.add */\n      tag_124\n      swap1\n        /* \"contracts/StakingRewards.sol\":4990:5026  block.timestamp.add(rewardsDuration) */\n      swap2\n      swap1\n      0xffffffff\n      and\n      jump\t// in\n    tag_173:\n        /* \"contracts/StakingRewards.sol\":4975:4987  periodFinish */\n      0x07\n        /* \"contracts/StakingRewards.sol\":4975:5026  periodFinish = block.timestamp.add(rewardsDuration) */\n      dup2\n      swap1\n      sstore\n      pop\n        /* \"contracts/StakingRewards.sol\":5042:5061  RewardAdded(reward) */\n      0xde88a922e0d3b88b24e9623efeb464919c6bf9f66857a65e2bfcf2ce87a9433d\n        /* \"contracts/StakingRewards.sol\":5054:5060  reward */\n      dup4\n        /* \"contracts/StakingRewards.sol\":5042:5061  RewardAdded(reward) */\n      mload(0x40)\n      dup1\n      dup3\n      dup2\n      mstore\n      0x20\n      add\n      swap2\n      pop\n      pop\n      mload(0x40)\n      dup1\n      swap2\n      sub\n      swap1\n      log1\n        /* \"contracts/StakingRewards.sol\":6228:6229  _ */\n      pop\n        /* \"contracts/RewardsDistributionRecipient.sol\":458:459  _ */\n      pop\n        /* \"contracts/StakingRewards.sol\":3986:5069  function notifyRewardAmount(uint256 reward) external onlyRewardsDistribution updateReward(address(0)) {\r... */\n      pop\n      jump\t// out\n        /* \"contracts/StakingRewards.sol\":3510:3817  function getReward() public nonReentrant updateReward(msg.sender) {\r... */\n    tag_69:\n        /* \"openzeppelin-solidity-2.3.0/contracts/utils/ReentrancyGuard.sol\":1350:1351  1 */\n      0x01\n        /* \"openzeppelin-solidity-2.3.0/contracts/utils/ReentrancyGuard.sol\":1333:1346  _guardCounter */\n      0x03\n      0x00\n        /* \"openzeppelin-solidity-2.3.0/contracts/utils/ReentrancyGuard.sol\":1333:1351  _guardCounter += 1 */\n      dup3\n      dup3\n      sload\n      add\n      swap3\n      pop\n      pop\n      dup2\n      swap1\n      sstore\n      pop\n        /* \"openzeppelin-solidity-2.3.0/contracts/utils/ReentrancyGuard.sol\":1362:1382  uint256 localCounter */\n      0x00\n        /* \"openzeppelin-solidity-2.3.0/contracts/utils/ReentrancyGuard.sol\":1385:1398  _guardCounter */\n      sload(0x03)\n        /* \"openzeppelin-solidity-2.3.0/contracts/utils/ReentrancyGuard.sol\":1362:1398  uint256 localCounter = _guardCounter */\n      swap1\n      pop\n        /* \"contracts/StakingRewards.sol\":3564:3574  msg.sender */\n      caller\n        /* \"contracts/StakingRewards.sol\":5980:5996  rewardPerToken() */\n      tag_176\n        /* \"contracts/StakingRewards.sol\":5980:5994  rewardPerToken */\n      tag_106\n        /* \"contracts/StakingRewards.sol\":5980:5996  rewardPerToken() */\n      jump\t// in\n    tag_176:\n        /* \"contracts/StakingRewards.sol\":5957:5977  rewardPerTokenStored */\n      0x0b\n        /* \"contracts/StakingRewards.sol\":5957:5996  rewardPerTokenStored = rewardPerToken() */\n      dup2\n      swap1\n      sstore\n      pop\n        /* \"contracts/StakingRewards.sol\":6024:6050  lastTimeRewardApplicable() */\n      tag_177\n        /* \"contracts/StakingRewards.sol\":6024:6048  lastTimeRewardApplicable */\n      tag_86\n        /* \"contracts/StakingRewards.sol\":6024:6050  lastTimeRewardApplicable() */\n      jump\t// in\n    tag_177:\n        /* \"contracts/StakingRewards.sol\":6007:6021  lastUpdateTime */\n      0x0a\n        /* \"contracts/StakingRewards.sol\":6007:6050  lastUpdateTime = lastTimeRewardApplicable() */\n      dup2\n      swap1\n      sstore\n      pop\n        /* \"contracts/StakingRewards.sol\":6084:6085  0 */\n      0x00\n        /* \"contracts/StakingRewards.sol\":6065:6086  account != address(0) */\n      0xffffffffffffffffffffffffffffffffffffffff\n      and\n        /* \"contracts/StakingRewards.sol\":6065:6072  account */\n      dup2\n        /* \"contracts/StakingRewards.sol\":6065:6086  account != address(0) */\n      0xffffffffffffffffffffffffffffffffffffffff\n      and\n      eq\n        /* \"contracts/StakingRewards.sol\":6061:6218  if (account != address(0)) {\r... */\n      tag_178\n      jumpi\n        /* \"contracts/StakingRewards.sol\":6122:6137  earned(account) */\n      tag_179\n        /* \"contracts/StakingRewards.sol\":6129:6136  account */\n      dup2\n        /* \"contracts/StakingRewards.sol\":6122:6128  earned */\n      tag_43\n        /* \"contracts/StakingRewards.sol\":6122:6137  earned(account) */\n      jump\t// in\n    tag_179:\n        /* \"contracts/StakingRewards.sol\":6103:6110  rewards */\n      0x0d\n        /* \"contracts/StakingRewards.sol\":6103:6119  rewards[account] */\n      0x00\n        /* \"contracts/StakingRewards.sol\":6111:6118  account */\n      dup4\n        /* \"contracts/StakingRewards.sol\":6103:6119  rewards[account] */\n      0xffffffffffffffffffffffffffffffffffffffff\n      and\n      0xffffffffffffffffffffffffffffffffffffffff\n      and\n      dup2\n      mstore\n      0x20\n      add\n      swap1\n      dup2\n      mstore\n      0x20\n      add\n      0x00\n      keccak256\n        /* \"contracts/StakingRewards.sol\":6103:6137  rewards[account] = earned(account) */\n      dup2\n      swap1\n      sstore\n      pop\n        /* \"contracts/StakingRewards.sol\":6186:6206  rewardPerTokenStored */\n      sload(0x0b)\n        /* \"contracts/StakingRewards.sol\":6152:6174  userRewardPerTokenPaid */\n      0x0c\n        /* \"contracts/StakingRewards.sol\":6152:6183  userRewardPerTokenPaid[account] */\n      0x00\n        /* \"contracts/StakingRewards.sol\":6175:6182  account */\n      dup4\n        /* \"contracts/StakingRewards.sol\":6152:6183  userRewardPerTokenPaid[account] */\n      0xffffffffffffffffffffffffffffffffffffffff\n      and\n      0xffffffffffffffffffffffffffffffffffffffff\n      and\n      dup2\n      mstore\n      0x20\n      add\n      swap1\n      dup2\n      mstore\n      0x20\n      add\n      0x00\n      keccak256\n        /* \"contracts/StakingRewards.sol\":6152:6206  userRewardPerTokenPaid[account] = rewardPerTokenStored */\n      dup2\n      swap1\n      sstore\n      pop\n        /* \"contracts/StakingRewards.sol\":6061:6218  if (account != address(0)) {\r... */\n    tag_178:\n        /* \"contracts/StakingRewards.sol\":3587:3601  uint256 reward */\n      0x00\n        /* \"contracts/StakingRewards.sol\":3604:3611  rewards */\n      0x0d\n        /* \"contracts/StakingRewards.sol\":3604:3623  rewards[msg.sender] */\n      0x00\n        /* \"contracts/StakingRewards.sol\":3612:3622  msg.sender */\n      caller\n        /* \"contracts/StakingRewards.sol\":3604:3623  rewards[msg.sender] */\n      0xffffffffffffffffffffffffffffffffffffffff\n      and\n      0xffffffffffffffffffffffffffffffffffffffff\n      and\n      dup2\n      mstore\n      0x20\n      add\n      swap1\n      dup2\n      mstore\n      0x20\n      add\n      0x00\n      keccak256\n      sload\n        /* \"contracts/StakingRewards.sol\":3587:3623  uint256 reward = rewards[msg.sender] */\n      swap1\n      pop\n        /* \"contracts/StakingRewards.sol\":3647:3648  0 */\n      0x00\n        /* \"contracts/StakingRewards.sol\":3638:3644  reward */\n      dup2\n        /* \"contracts/StakingRewards.sol\":3638:3648  reward > 0 */\n      gt\n        /* \"contracts/StakingRewards.sol\":3634:3810  if (reward > 0) {\r... */\n      iszero\n      tag_181\n      jumpi\n        /* \"contracts/StakingRewards.sol\":3687:3688  0 */\n      0x00\n        /* \"contracts/StakingRewards.sol\":3665:3672  rewards */\n      0x0d\n        /* \"contracts/StakingRewards.sol\":3665:3684  rewards[msg.sender] */\n      0x00\n        /* \"contracts/StakingRewards.sol\":3673:3683  msg.sender */\n      caller\n        /* \"contracts/StakingRewards.sol\":3665:3684  rewards[msg.sender] */\n      0xffffffffffffffffffffffffffffffffffffffff\n      and\n      0xffffffffffffffffffffffffffffffffffffffff\n      and\n      dup2\n      mstore\n      0x20\n      add\n      swap1\n      dup2\n      mstore\n      0x20\n      add\n      0x00\n      keccak256\n        /* \"contracts/StakingRewards.sol\":3665:3688  rewards[msg.sender] = 0 */\n      dup2\n      swap1\n      sstore\n      pop\n        /* \"contracts/StakingRewards.sol\":3703:3748  rewardsToken.safeTransfer(msg.sender, reward) */\n      tag_182\n        /* \"contracts/StakingRewards.sol\":3729:3739  msg.sender */\n      caller\n        /* \"contracts/StakingRewards.sol\":3741:3747  reward */\n      dup3\n        /* \"contracts/StakingRewards.sol\":3703:3715  rewardsToken */\n      0x05\n      0x01\n      swap1\n      sload\n      swap1\n      0x0100\n      exp\n      swap1\n      div\n      0xffffffffffffffffffffffffffffffffffffffff\n      and\n        /* \"contracts/StakingRewards.sol\":3703:3728  rewardsToken.safeTransfer */\n      0xffffffffffffffffffffffffffffffffffffffff\n      and\n      tag_151\n      swap1\n        /* \"contracts/StakingRewards.sol\":3703:3748  rewardsToken.safeTransfer(msg.sender, reward) */\n      swap3\n      swap2\n      swap1\n      0xffffffff\n      and\n      jump\t// in\n    tag_182:\n        /* \"contracts/StakingRewards.sol\":3779:3789  msg.sender */\n      caller\n        /* \"contracts/StakingRewards.sol\":3768:3798  RewardPaid(msg.sender, reward) */\n      0xffffffffffffffffffffffffffffffffffffffff\n      and\n      0xe2403640ba68fed3a2f88b7557551d1993f84b99bb10ff833f0cf8db0c5e0486\n        /* \"contracts/StakingRewards.sol\":3791:3797  reward */\n      dup3\n        /* \"contracts/StakingRewards.sol\":3768:3798  RewardPaid(msg.sender, reward) */\n      mload(0x40)\n      dup1\n      dup3\n      dup2\n      mstore\n      0x20\n      add\n      swap2\n      pop\n      pop\n      mload(0x40)\n      dup1\n      swap2\n      sub\n      swap1\n      log2\n        /* \"contracts/StakingRewards.sol\":3634:3810  if (reward > 0) {\r... */\n    tag_181:\n        /* \"contracts/StakingRewards.sol\":6228:6229  _ */\n      pop\n        /* \"openzeppelin-solidity-2.3.0/contracts/utils/ReentrancyGuard.sol\":1409:1410  _ */\n      pop\n        /* \"openzeppelin-solidity-2.3.0/contracts/utils/ReentrancyGuard.sol\":1445:1458  _guardCounter */\n      sload(0x03)\n        /* \"openzeppelin-solidity-2.3.0/contracts/utils/ReentrancyGuard.sol\":1429:1441  localCounter */\n      dup2\n        /* \"openzeppelin-solidity-2.3.0/contracts/utils/ReentrancyGuard.sol\":1429:1458  localCounter == _guardCounter */\n      eq\n        /* \"openzeppelin-solidity-2.3.0/contracts/utils/ReentrancyGuard.sol\":1421:1494  require(localCounter == _guardCounter, \"ReentrancyGuard: reentrant call\") */\n      tag_183\n      jumpi\n      mload(0x40)\n      0x08c379a000000000000000000000000000000000000000000000000000000000\n      dup2\n      mstore\n      0x04\n      add\n      dup1\n      dup1\n      0x20\n      add\n      dup3\n      dup2\n      sub\n      dup3\n      mstore\n      0x1f\n      dup2\n      mstore\n      0x20\n      add\n      dup1\n      0x5265656e7472616e637947756172643a207265656e7472616e742063616c6c00\n      dup2\n      mstore\n      pop\n      0x20\n      add\n      swap2\n      pop\n      pop\n      mload(0x40)\n      dup1\n      swap2\n      sub\n      swap1\n      revert\n    tag_183:\n        /* \"contracts/StakingRewards.sol\":3510:3817  function getReward() public nonReentrant updateReward(msg.sender) {\r... */\n      pop\n      jump\t// out\n        /* \"contracts/RewardsDistributionRecipient.sol\":209:243  address public rewardsDistribution */\n    tag_71:\n      0x02\n      0x00\n      swap1\n      sload\n      swap1\n      0x0100\n      exp\n      swap1\n      div\n      0xffffffffffffffffffffffffffffffffffffffff\n      and\n      dup2\n      jump\t// out\n        /* \"contracts/Owned.sol\":140:169  address public nominatedOwner */\n    tag_73:\n      0x01\n      0x00\n      swap1\n      sload\n      swap1\n      0x0100\n      exp\n      swap1\n      div\n      0xffffffffffffffffffffffffffffffffffffffff\n      and\n      dup2\n      jump\t// out\n        /* \"contracts/Pausable.sol\":201:219  bool public paused */\n    tag_75:\n      0x05\n      0x00\n      swap1\n      sload\n      swap1\n      0x0100\n      exp\n      swap1\n      div\n      0xff\n      and\n      dup2\n      jump\t// out\n        /* \"contracts/StakingRewards.sol\":1748:1860  function balanceOf(address account) external view returns (uint256) {\r... */\n    tag_78:\n        /* \"contracts/StakingRewards.sol\":1807:1814  uint256 */\n      0x00\n        /* \"contracts/StakingRewards.sol\":1834:1843  _balances */\n      0x0f\n        /* \"contracts/StakingRewards.sol\":1834:1852  _balances[account] */\n      0x00\n        /* \"contracts/StakingRewards.sol\":1844:1851  account */\n      dup4\n        /* \"contracts/StakingRewards.sol\":1834:1852  _balances[account] */\n      0xffffffffffffffffffffffffffffffffffffffff\n      and\n      0xffffffffffffffffffffffffffffffffffffffff\n      and\n      dup2\n      mstore\n      0x20\n      add\n      swap1\n      dup2\n      mstore\n      0x20\n      add\n      0x00\n      keccak256\n      sload\n        /* \"contracts/StakingRewards.sol\":1827:1852  return _balances[account] */\n      swap1\n      pop\n        /* \"contracts/StakingRewards.sol\":1748:1860  function balanceOf(address account) external view returns (uint256) {\r... */\n      swap2\n      swap1\n      pop\n      jump\t// out\n        /* \"contracts/StakingRewards.sol\":791:817  IERC20 public stakingToken */\n    tag_80:\n      0x06\n      0x00\n      swap1\n      sload\n      swap1\n      0x0100\n      exp\n      swap1\n      div\n      0xffffffffffffffffffffffffffffffffffffffff\n      and\n      dup2\n      jump\t// out\n        /* \"contracts/Owned.sol\":520:791  function acceptOwnership() external {\r... */\n    tag_82:\n        /* \"contracts/Owned.sol\":589:603  nominatedOwner */\n      0x01\n      0x00\n      swap1\n      sload\n      swap1\n      0x0100\n      exp\n      swap1\n      div\n      0xffffffffffffffffffffffffffffffffffffffff\n      and\n        /* \"contracts/Owned.sol\":575:603  msg.sender == nominatedOwner */\n      0xffffffffffffffffffffffffffffffffffffffff\n      and\n        /* \"contracts/Owned.sol\":575:585  msg.sender */\n      caller\n        /* \"contracts/Owned.sol\":575:603  msg.sender == nominatedOwner */\n      0xffffffffffffffffffffffffffffffffffffffff\n      and\n      eq\n        /* \"contracts/Owned.sol\":567:661  require(msg.sender == nominatedOwner, \"You must be nominated before you can accept ownership\") */\n      tag_186\n      jumpi\n      mload(0x40)\n      0x08c379a000000000000000000000000000000000000000000000000000000000\n      dup2\n      mstore\n      0x04\n      add\n      dup1\n      dup1\n      0x20\n      add\n      dup3\n      dup2\n      sub\n      dup3\n      mstore\n      0x35\n      dup2\n      mstore\n      0x20\n      add\n      dup1\n      data_1149e36cd24095bebc9341ef03810e0e2a00039190624df6f2d7934141e2233b\n      0x35\n      swap2\n      codecopy\n      0x40\n      add\n      swap2\n      pop\n      pop\n      mload(0x40)\n      dup1\n      swap2\n      sub\n      swap1\n      revert\n    tag_186:\n        /* \"contracts/Owned.sol\":677:712  OwnerChanged(owner, nominatedOwner) */\n      0xb532073b38c83145e3e5135377a08bf9aab55bc0fd7c1179cd4fb995d2a5159c\n        /* \"contracts/Owned.sol\":690:695  owner */\n      0x00\n      dup1\n      swap1\n      sload\n      swap1\n      0x0100\n      exp\n      swap1\n      div\n      0xffffffffffffffffffffffffffffffffffffffff\n      and\n        /* \"contracts/Owned.sol\":697:711  nominatedOwner */\n      0x01\n      0x00\n      swap1\n      sload\n      swap1\n      0x0100\n      exp\n      swap1\n      div\n      0xffffffffffffffffffffffffffffffffffffffff\n      and\n        /* \"contracts/Owned.sol\":677:712  OwnerChanged(owner, nominatedOwner) */\n      mload(0x40)\n      dup1\n      dup4\n      0xffffffffffffffffffffffffffffffffffffffff\n      and\n      0xffffffffffffffffffffffffffffffffffffffff\n      and\n      dup2\n      mstore\n      0x20\n      add\n      dup3\n      0xffffffffffffffffffffffffffffffffffffffff\n      and\n      0xffffffffffffffffffffffffffffffffffffffff\n      and\n      dup2\n      mstore\n      0x20\n      add\n      swap3\n      pop\n      pop\n      pop\n      mload(0x40)\n      dup1\n      swap2\n      sub\n      swap1\n      log1\n        /* \"contracts/Owned.sol\":731:745  nominatedOwner */\n      0x01\n      0x00\n      swap1\n      sload\n      swap1\n      0x0100\n      exp\n      swap1\n      div\n      0xffffffffffffffffffffffffffffffffffffffff\n      and\n        /* \"contracts/Owned.sol\":723:728  owner */\n      0x00\n      dup1\n        /* \"contracts/Owned.sol\":723:745  owner = nominatedOwner */\n      0x0100\n      exp\n      dup2\n      sload\n      dup2\n      0xffffffffffffffffffffffffffffffffffffffff\n      mul\n      not\n      and\n      swap1\n      dup4\n      0xffffffffffffffffffffffffffffffffffffffff\n      and\n      mul\n      or\n      swap1\n      sstore\n      pop\n        /* \"contracts/Owned.sol\":781:782  0 */\n      0x00\n        /* \"contracts/Owned.sol\":756:770  nominatedOwner */\n      0x01\n      0x00\n        /* \"contracts/Owned.sol\":756:783  nominatedOwner = address(0) */\n      0x0100\n      exp\n      dup2\n      sload\n      dup2\n      0xffffffffffffffffffffffffffffffffffffffff\n      mul\n      not\n      and\n      swap1\n      dup4\n      0xffffffffffffffffffffffffffffffffffffffff\n      and\n      mul\n      or\n      swap1\n      sstore\n      pop\n        /* \"contracts/Owned.sol\":520:791  function acceptOwnership() external {\r... */\n      jump\t// out\n        /* \"contracts/StakingRewards.sol\":862:891  uint256 public rewardRate = 0 */\n    tag_84:\n      sload(0x08)\n      dup2\n      jump\t// out\n        /* \"contracts/StakingRewards.sol\":1868:2023  function lastTimeRewardApplicable() public view returns (uint256) {\r... */\n    tag_86:\n        /* \"contracts/StakingRewards.sol\":1925:1932  uint256 */\n      0x00\n        /* \"contracts/StakingRewards.sol\":1970:1982  periodFinish */\n      sload(0x07)\n        /* \"contracts/StakingRewards.sol\":1952:1967  block.timestamp */\n      timestamp\n        /* \"contracts/StakingRewards.sol\":1952:1982  block.timestamp < periodFinish */\n      lt\n        /* \"contracts/StakingRewards.sol\":1952:2015  block.timestamp < periodFinish ? block.timestamp : periodFinish */\n      tag_188\n      jumpi\n        /* \"contracts/StakingRewards.sol\":2003:2015  periodFinish */\n      sload(0x07)\n        /* \"contracts/StakingRewards.sol\":1952:2015  block.timestamp < periodFinish ? block.timestamp : periodFinish */\n      jump(tag_189)\n    tag_188:\n        /* \"contracts/StakingRewards.sol\":1985:2000  block.timestamp */\n      timestamp\n        /* \"contracts/StakingRewards.sol\":1952:2015  block.timestamp < periodFinish ? block.timestamp : periodFinish */\n    tag_189:\n        /* \"contracts/StakingRewards.sol\":1945:2015  return block.timestamp < periodFinish ? block.timestamp : periodFinish */\n      swap1\n      pop\n        /* \"contracts/StakingRewards.sol\":1868:2023  function lastTimeRewardApplicable() public view returns (uint256) {\r... */\n      swap1\n      jump\t// out\n        /* \"contracts/StakingRewards.sol\":5184:5486  function recoverERC20(address tokenAddress, uint256 tokenAmount) external onlyOwner {\r... */\n    tag_89:\n        /* \"contracts/Owned.sol\":829:841  _onlyOwner() */\n      tag_191\n        /* \"contracts/Owned.sol\":829:839  _onlyOwner */\n      tag_127\n        /* \"contracts/Owned.sol\":829:841  _onlyOwner() */\n      jump\t// in\n    tag_191:\n        /* \"contracts/StakingRewards.sol\":5311:5323  stakingToken */\n      0x06\n      0x00\n      swap1\n      sload\n      swap1\n      0x0100\n      exp\n      swap1\n      div\n      0xffffffffffffffffffffffffffffffffffffffff\n      and\n        /* \"contracts/StakingRewards.sol\":5287:5324  tokenAddress != address(stakingToken) */\n      0xffffffffffffffffffffffffffffffffffffffff\n      and\n        /* \"contracts/StakingRewards.sol\":5287:5299  tokenAddress */\n      dup3\n        /* \"contracts/StakingRewards.sol\":5287:5324  tokenAddress != address(stakingToken) */\n      0xffffffffffffffffffffffffffffffffffffffff\n      and\n      eq\n      iszero\n        /* \"contracts/StakingRewards.sol\":5279:5362  require(tokenAddress != address(stakingToken), \"Cannot withdraw the staking token\") */\n      tag_193\n      jumpi\n      mload(0x40)\n      0x08c379a000000000000000000000000000000000000000000000000000000000\n      dup2\n      mstore\n      0x04\n      add\n      dup1\n      dup1\n      0x20\n      add\n      dup3\n      dup2\n      sub\n      dup3\n      mstore\n      0x21\n      dup2\n      mstore\n      0x20\n      add\n      dup1\n      data_f43de9f2a3539b2ac9cf1844588e9cc0acd1b2bdb1ec43734f76440993ede0a9\n      0x21\n      swap2\n      codecopy\n      0x40\n      add\n      swap2\n      pop\n      pop\n      mload(0x40)\n      dup1\n      swap2\n      sub\n      swap1\n      revert\n    tag_193:\n        /* \"contracts/StakingRewards.sol\":5373:5426  IERC20(tokenAddress).safeTransfer(owner, tokenAmount) */\n      tag_194\n        /* \"contracts/StakingRewards.sol\":5407:5412  owner */\n      0x00\n      dup1\n      swap1\n      sload\n      swap1\n      0x0100\n      exp\n      swap1\n      div\n      0xffffffffffffffffffffffffffffffffffffffff\n      and\n        /* \"contracts/StakingRewards.sol\":5414:5425  tokenAmount */\n      dup3\n        /* \"contracts/StakingRewards.sol\":5380:5392  tokenAddress */\n      dup5\n        /* \"contracts/StakingRewards.sol\":5373:5406  IERC20(tokenAddress).safeTransfer */\n      0xffffffffffffffffffffffffffffffffffffffff\n      and\n      tag_151\n      swap1\n        /* \"contracts/StakingRewards.sol\":5373:5426  IERC20(tokenAddress).safeTransfer(owner, tokenAmount) */\n      swap3\n      swap2\n      swap1\n      0xffffffff\n      and\n      jump\t// in\n    tag_194:\n        /* \"contracts/StakingRewards.sol\":5442:5478  Recovered(tokenAddress, tokenAmount) */\n      0x8c1256b8896378cd5044f80c202f9772b9d77dc85c8a6eb51967210b09bfaa28\n        /* \"contracts/StakingRewards.sol\":5452:5464  tokenAddress */\n      dup3\n        /* \"contracts/StakingRewards.sol\":5466:5477  tokenAmount */\n      dup3\n        /* \"contracts/StakingRewards.sol\":5442:5478  Recovered(tokenAddress, tokenAmount) */\n      mload(0x40)\n      dup1\n      dup4\n      0xffffffffffffffffffffffffffffffffffffffff\n      and\n      0xffffffffffffffffffffffffffffffffffffffff\n      and\n      dup2\n      mstore\n      0x20\n      add\n      dup3\n      dup2\n      mstore\n      0x20\n      add\n      swap3\n      pop\n      pop\n      pop\n      mload(0x40)\n      dup1\n      swap2\n      sub\n      swap1\n      log1\n        /* \"contracts/StakingRewards.sol\":5184:5486  function recoverERC20(address tokenAddress, uint256 tokenAmount) external onlyOwner {\r... */\n      pop\n      pop\n      jump\t// out\n        /* \"contracts/StakingRewards.sol\":1024:1081  mapping(address => uint256) public userRewardPerTokenPaid */\n    tag_92:\n      mstore(0x20, 0x0c)\n      dup1\n      0x00\n      mstore\n      keccak256(0x00, 0x40)\n      0x00\n      swap2\n      pop\n      swap1\n      pop\n      sload\n      dup2\n      jump\t// out\n        /* \"contracts/Owned.sol\":113:133  address public owner */\n    tag_94:\n      0x00\n      dup1\n      swap1\n      sload\n      swap1\n      0x0100\n      exp\n      swap1\n      div\n      0xffffffffffffffffffffffffffffffffffffffff\n      and\n      dup2\n      jump\t// out\n        /* \"contracts/Pausable.sol\":169:194  uint public lastPauseTime */\n    tag_96:\n      sload(0x04)\n      dup2\n      jump\t// out\n        /* \"contracts/StakingRewards.sol\":2758:3137  function stake(uint256 amount) external nonReentrant notPaused updateReward(msg.sender) {\r... */\n    tag_99:\n        /* \"openzeppelin-solidity-2.3.0/contracts/utils/ReentrancyGuard.sol\":1350:1351  1 */\n      0x01\n        /* \"openzeppelin-solidity-2.3.0/contracts/utils/ReentrancyGuard.sol\":1333:1346  _guardCounter */\n      0x03\n      0x00\n        /* \"openzeppelin-solidity-2.3.0/contracts/utils/ReentrancyGuard.sol\":1333:1351  _guardCounter += 1 */\n      dup3\n      dup3\n      sload\n      add\n      swap3\n      pop\n      pop\n      dup2\n      swap1\n      sstore\n      pop\n        /* \"openzeppelin-solidity-2.3.0/contracts/utils/ReentrancyGuard.sol\":1362:1382  uint256 localCounter */\n      0x00\n        /* \"openzeppelin-solidity-2.3.0/contracts/utils/ReentrancyGuard.sol\":1385:1398  _guardCounter */\n      sload(0x03)\n        /* \"openzeppelin-solidity-2.3.0/contracts/utils/ReentrancyGuard.sol\":1362:1398  uint256 localCounter = _guardCounter */\n      swap1\n      pop\n        /* \"contracts/Pausable.sol\":1192:1198  paused */\n      0x05\n      0x00\n      swap1\n      sload\n      swap1\n      0x0100\n      exp\n      swap1\n      div\n      0xff\n      and\n        /* \"contracts/Pausable.sol\":1191:1198  !paused */\n      iszero\n        /* \"contracts/Pausable.sol\":1183:1263  require(!paused, \"This action cannot be performed while the contract is paused\") */\n      tag_197\n      jumpi\n      mload(0x40)\n      0x08c379a000000000000000000000000000000000000000000000000000000000\n      dup2\n      mstore\n      0x04\n      add\n      dup1\n      dup1\n      0x20\n      add\n      dup3\n      dup2\n      sub\n      dup3\n      mstore\n      0x3c\n      dup2\n      mstore\n      0x20\n      add\n      dup1\n      data_b214273cdb244871f55e1966d43ad7febce81860c609dda0e226c7c1b7959d6f\n      0x3c\n      swap2\n      codecopy\n      0x40\n      add\n      swap2\n      pop\n      pop\n      mload(0x40)\n      dup1\n      swap2\n      sub\n      swap1\n      revert\n    tag_197:\n        /* \"contracts/StakingRewards.sol\":2834:2844  msg.sender */\n      caller\n        /* \"contracts/StakingRewards.sol\":5980:5996  rewardPerToken() */\n      tag_199\n        /* \"contracts/StakingRewards.sol\":5980:5994  rewardPerToken */\n      tag_106\n        /* \"contracts/StakingRewards.sol\":5980:5996  rewardPerToken() */\n      jump\t// in\n    tag_199:\n        /* \"contracts/StakingRewards.sol\":5957:5977  rewardPerTokenStored */\n      0x0b\n        /* \"contracts/StakingRewards.sol\":5957:5996  rewardPerTokenStored = rewardPerToken() */\n      dup2\n      swap1\n      sstore\n      pop\n        /* \"contracts/StakingRewards.sol\":6024:6050  lastTimeRewardApplicable() */\n      tag_200\n        /* \"contracts/StakingRewards.sol\":6024:6048  lastTimeRewardApplicable */\n      tag_86\n        /* \"contracts/StakingRewards.sol\":6024:6050  lastTimeRewardApplicable() */\n      jump\t// in\n    tag_200:\n        /* \"contracts/StakingRewards.sol\":6007:6021  lastUpdateTime */\n      0x0a\n        /* \"contracts/StakingRewards.sol\":6007:6050  lastUpdateTime = lastTimeRewardApplicable() */\n      dup2\n      swap1\n      sstore\n      pop\n        /* \"contracts/StakingRewards.sol\":6084:6085  0 */\n      0x00\n        /* \"contracts/StakingRewards.sol\":6065:6086  account != address(0) */\n      0xffffffffffffffffffffffffffffffffffffffff\n      and\n        /* \"contracts/StakingRewards.sol\":6065:6072  account */\n      dup2\n        /* \"contracts/StakingRewards.sol\":6065:6086  account != address(0) */\n      0xffffffffffffffffffffffffffffffffffffffff\n      and\n      eq\n        /* \"contracts/StakingRewards.sol\":6061:6218  if (account != address(0)) {\r... */\n      tag_201\n      jumpi\n        /* \"contracts/StakingRewards.sol\":6122:6137  earned(account) */\n      tag_202\n        /* \"contracts/StakingRewards.sol\":6129:6136  account */\n      dup2\n        /* \"contracts/StakingRewards.sol\":6122:6128  earned */\n      tag_43\n        /* \"contracts/StakingRewards.sol\":6122:6137  earned(account) */\n      jump\t// in\n    tag_202:\n        /* \"contracts/StakingRewards.sol\":6103:6110  rewards */\n      0x0d\n        /* \"contracts/StakingRewards.sol\":6103:6119  rewards[account] */\n      0x00\n        /* \"contracts/StakingRewards.sol\":6111:6118  account */\n      dup4\n        /* \"contracts/StakingRewards.sol\":6103:6119  rewards[account] */\n      0xffffffffffffffffffffffffffffffffffffffff\n      and\n      0xffffffffffffffffffffffffffffffffffffffff\n      and\n      dup2\n      mstore\n      0x20\n      add\n      swap1\n      dup2\n      mstore\n      0x20\n      add\n      0x00\n      keccak256\n        /* \"contracts/StakingRewards.sol\":6103:6137  rewards[account] = earned(account) */\n      dup2\n      swap1\n      sstore\n      pop\n        /* \"contracts/StakingRewards.sol\":6186:6206  rewardPerTokenStored */\n      sload(0x0b)\n        /* \"contracts/StakingRewards.sol\":6152:6174  userRewardPerTokenPaid */\n      0x0c\n        /* \"contracts/StakingRewards.sol\":6152:6183  userRewardPerTokenPaid[account] */\n      0x00\n        /* \"contracts/StakingRewards.sol\":6175:6182  account */\n      dup4\n        /* \"contracts/StakingRewards.sol\":6152:6183  userRewardPerTokenPaid[account] */\n      0xffffffffffffffffffffffffffffffffffffffff\n      and\n      0xffffffffffffffffffffffffffffffffffffffff\n      and\n      dup2\n      mstore\n      0x20\n      add\n      swap1\n      dup2\n      mstore\n      0x20\n      add\n      0x00\n      keccak256\n        /* \"contracts/StakingRewards.sol\":6152:6206  userRewardPerTokenPaid[account] = rewardPerTokenStored */\n      dup2\n      swap1\n      sstore\n      pop\n        /* \"contracts/StakingRewards.sol\":6061:6218  if (account != address(0)) {\r... */\n    tag_201:\n        /* \"contracts/StakingRewards.sol\":2874:2875  0 */\n      0x00\n        /* \"contracts/StakingRewards.sol\":2865:2871  amount */\n      dup4\n        /* \"contracts/StakingRewards.sol\":2865:2875  amount > 0 */\n      gt\n        /* \"contracts/StakingRewards.sol\":2857:2894  require(amount > 0, \"Cannot stake 0\") */\n      tag_204\n      jumpi\n      mload(0x40)\n      0x08c379a000000000000000000000000000000000000000000000000000000000\n      dup2\n      mstore\n      0x04\n      add\n      dup1\n      dup1\n      0x20\n      add\n      dup3\n      dup2\n      sub\n      dup3\n      mstore\n      0x0e\n      dup2\n      mstore\n      0x20\n      add\n      dup1\n      0x43616e6e6f74207374616b652030000000000000000000000000000000000000\n      dup2\n      mstore\n      pop\n      0x20\n      add\n      swap2\n      pop\n      pop\n      mload(0x40)\n      dup1\n      swap2\n      sub\n      swap1\n      revert\n    tag_204:\n        /* \"contracts/StakingRewards.sol\":2920:2944  _totalSupply.add(amount) */\n      tag_205\n        /* \"contracts/StakingRewards.sol\":2937:2943  amount */\n      dup4\n        /* \"contracts/StakingRewards.sol\":2920:2932  _totalSupply */\n      sload(0x0e)\n        /* \"contracts/StakingRewards.sol\":2920:2936  _totalSupply.add */\n      tag_124\n      swap1\n        /* \"contracts/StakingRewards.sol\":2920:2944  _totalSupply.add(amount) */\n      swap2\n      swap1\n      0xffffffff\n      and\n      jump\t// in\n    tag_205:\n        /* \"contracts/StakingRewards.sol\":2905:2917  _totalSupply */\n      0x0e\n        /* \"contracts/StakingRewards.sol\":2905:2944  _totalSupply = _totalSupply.add(amount) */\n      dup2\n      swap1\n      sstore\n      pop\n        /* \"contracts/StakingRewards.sol\":2979:3012  _balances[msg.sender].add(amount) */\n      tag_206\n        /* \"contracts/StakingRewards.sol\":3005:3011  amount */\n      dup4\n        /* \"contracts/StakingRewards.sol\":2979:2988  _balances */\n      0x0f\n        /* \"contracts/StakingRewards.sol\":2979:3000  _balances[msg.sender] */\n      0x00\n        /* \"contracts/StakingRewards.sol\":2989:2999  msg.sender */\n      caller\n        /* \"contracts/StakingRewards.sol\":2979:3000  _balances[msg.sender] */\n      0xffffffffffffffffffffffffffffffffffffffff\n      and\n      0xffffffffffffffffffffffffffffffffffffffff\n      and\n      dup2\n      mstore\n      0x20\n      add\n      swap1\n      dup2\n      mstore\n      0x20\n      add\n      0x00\n      keccak256\n      sload\n        /* \"contracts/StakingRewards.sol\":2979:3004  _balances[msg.sender].add */\n      tag_124\n      swap1\n        /* \"contracts/StakingRewards.sol\":2979:3012  _balances[msg.sender].add(amount) */\n      swap2\n      swap1\n      0xffffffff\n      and\n      jump\t// in\n    tag_206:\n        /* \"contracts/StakingRewards.sol\":2955:2964  _balances */\n      0x0f\n        /* \"contracts/StakingRewards.sol\":2955:2976  _balances[msg.sender] */\n      0x00\n        /* \"contracts/StakingRewards.sol\":2965:2975  msg.sender */\n      caller\n        /* \"contracts/StakingRewards.sol\":2955:2976  _balances[msg.sender] */\n      0xffffffffffffffffffffffffffffffffffffffff\n      and\n      0xffffffffffffffffffffffffffffffffffffffff\n      and\n      dup2\n      mstore\n      0x20\n      add\n      swap1\n      dup2\n      mstore\n      0x20\n      add\n      0x00\n      keccak256\n        /* \"contracts/StakingRewards.sol\":2955:3012  _balances[msg.sender] = _balances[msg.sender].add(amount) */\n      dup2\n      swap1\n      sstore\n      pop\n        /* \"contracts/StakingRewards.sol\":3023:3087  stakingToken.safeTransferFrom(msg.sender, address(this), amount) */\n      tag_207\n        /* \"contracts/StakingRewards.sol\":3053:3063  msg.sender */\n      caller\n        /* \"contracts/StakingRewards.sol\":3073:3077  this */\n      address\n        /* \"contracts/StakingRewards.sol\":3080:3086  amount */\n      dup6\n        /* \"contracts/StakingRewards.sol\":3023:3035  stakingToken */\n      0x06\n      0x00\n      swap1\n      sload\n      swap1\n      0x0100\n      exp\n      swap1\n      div\n      0xffffffffffffffffffffffffffffffffffffffff\n      and\n        /* \"contracts/StakingRewards.sol\":3023:3052  stakingToken.safeTransferFrom */\n      0xffffffffffffffffffffffffffffffffffffffff\n      and\n      tag_208\n      swap1\n        /* \"contracts/StakingRewards.sol\":3023:3087  stakingToken.safeTransferFrom(msg.sender, address(this), amount) */\n      swap4\n      swap3\n      swap2\n      swap1\n      0xffffffff\n      and\n      jump\t// in\n    tag_207:\n        /* \"contracts/StakingRewards.sol\":3110:3120  msg.sender */\n      caller\n        /* \"contracts/StakingRewards.sol\":3103:3129  Staked(msg.sender, amount) */\n      0xffffffffffffffffffffffffffffffffffffffff\n      and\n      0x9e71bc8eea02a63969f509818f2dafb9254532904319f9dbda79b67bd34a5f3d\n        /* \"contracts/StakingRewards.sol\":3122:3128  amount */\n      dup5\n        /* \"contracts/StakingRewards.sol\":3103:3129  Staked(msg.sender, amount) */\n      mload(0x40)\n      dup1\n      dup3\n      dup2\n      mstore\n      0x20\n      add\n      swap2\n      pop\n      pop\n      mload(0x40)\n      dup1\n      swap2\n      sub\n      swap1\n      log2\n        /* \"contracts/Pausable.sol\":1274:1275  _ */\n      pop\n        /* \"openzeppelin-solidity-2.3.0/contracts/utils/ReentrancyGuard.sol\":1445:1458  _guardCounter */\n      sload(0x03)\n        /* \"openzeppelin-solidity-2.3.0/contracts/utils/ReentrancyGuard.sol\":1429:1441  localCounter */\n      dup2\n        /* \"openzeppelin-solidity-2.3.0/contracts/utils/ReentrancyGuard.sol\":1429:1458  localCounter == _guardCounter */\n      eq\n        /* \"openzeppelin-solidity-2.3.0/contracts/utils/ReentrancyGuard.sol\":1421:1494  require(localCounter == _guardCounter, \"ReentrancyGuard: reentrant call\") */\n      tag_209\n      jumpi\n      mload(0x40)\n      0x08c379a000000000000000000000000000000000000000000000000000000000\n      dup2\n      mstore\n      0x04\n      add\n      dup1\n      dup1\n      0x20\n      add\n      dup3\n      dup2\n      sub\n      dup3\n      mstore\n      0x1f\n      dup2\n      mstore\n      0x20\n      add\n      dup1\n      0x5265656e7472616e637947756172643a207265656e7472616e742063616c6c00\n      dup2\n      mstore\n      pop\n      0x20\n      add\n      swap2\n      pop\n      pop\n      mload(0x40)\n      dup1\n      swap2\n      sub\n      swap1\n      revert\n    tag_209:\n        /* \"contracts/StakingRewards.sol\":2758:3137  function stake(uint256 amount) external nonReentrant notPaused updateReward(msg.sender) {\r... */\n      pop\n      pop\n      jump\t// out\n        /* \"contracts/StakingRewards.sol\":944:973  uint256 public lastUpdateTime */\n    tag_101:\n      sload(0x0a)\n      dup2\n      jump\t// out\n        /* \"contracts/StakingRewards.sol\":5494:5854  function setRewardsDuration(uint256 _rewardsDuration) external onlyOwner {\r... */\n    tag_104:\n        /* \"contracts/Owned.sol\":829:841  _onlyOwner() */\n      tag_211\n        /* \"contracts/Owned.sol\":829:839  _onlyOwner */\n      tag_127\n        /* \"contracts/Owned.sol\":829:841  _onlyOwner() */\n      jump\t// in\n    tag_211:\n        /* \"contracts/StakingRewards.sol\":5618:5630  periodFinish */\n      sload(0x07)\n        /* \"contracts/StakingRewards.sol\":5600:5615  block.timestamp */\n      timestamp\n        /* \"contracts/StakingRewards.sol\":5600:5630  block.timestamp > periodFinish */\n      gt\n        /* \"contracts/StakingRewards.sol\":5578:5746  require(\r... */\n      tag_213\n      jumpi\n      mload(0x40)\n      0x08c379a000000000000000000000000000000000000000000000000000000000\n      dup2\n      mstore\n      0x04\n      add\n      dup1\n      dup1\n      0x20\n      add\n      dup3\n      dup2\n      sub\n      dup3\n      mstore\n      0x58\n      dup2\n      mstore\n      0x20\n      add\n      dup1\n      data_07f2725172f5941b576a01ec7036d341e0c837e280f27b110cb3e6fd2f2c4a56\n      0x58\n      swap2\n      codecopy\n      0x60\n      add\n      swap2\n      pop\n      pop\n      mload(0x40)\n      dup1\n      swap2\n      sub\n      swap1\n      revert\n    tag_213:\n        /* \"contracts/StakingRewards.sol\":5775:5791  _rewardsDuration */\n      dup1\n        /* \"contracts/StakingRewards.sol\":5757:5772  rewardsDuration */\n      0x09\n        /* \"contracts/StakingRewards.sol\":5757:5791  rewardsDuration = _rewardsDuration */\n      dup2\n      swap1\n      sstore\n      pop\n        /* \"contracts/StakingRewards.sol\":5807:5846  RewardsDurationUpdated(rewardsDuration) */\n      0xfb46ca5a5e06d4540d6387b930a7c978bce0db5f449ec6b3f5d07c6e1d44f2d3\n        /* \"contracts/StakingRewards.sol\":5830:5845  rewardsDuration */\n      sload(0x09)\n        /* \"contracts/StakingRewards.sol\":5807:5846  RewardsDurationUpdated(rewardsDuration) */\n      mload(0x40)\n      dup1\n      dup3\n      dup2\n      mstore\n      0x20\n      add\n      swap2\n      pop\n      pop\n      mload(0x40)\n      dup1\n      swap2\n      sub\n      swap1\n      log1\n        /* \"contracts/StakingRewards.sol\":5494:5854  function setRewardsDuration(uint256 _rewardsDuration) external onlyOwner {\r... */\n      pop\n      jump\t// out\n        /* \"contracts/StakingRewards.sol\":2031:2361  function rewardPerToken() public view returns (uint256) {\r... */\n    tag_106:\n        /* \"contracts/StakingRewards.sol\":2078:2085  uint256 */\n      0x00\n        /* \"contracts/StakingRewards.sol\":2118:2119  0 */\n      dup1\n        /* \"contracts/StakingRewards.sol\":2102:2114  _totalSupply */\n      sload(0x0e)\n        /* \"contracts/StakingRewards.sol\":2102:2119  _totalSupply == 0 */\n      eq\n        /* \"contracts/StakingRewards.sol\":2098:2175  if (_totalSupply == 0) {\r... */\n      iszero\n      tag_215\n      jumpi\n        /* \"contracts/StakingRewards.sol\":2143:2163  rewardPerTokenStored */\n      sload(0x0b)\n        /* \"contracts/StakingRewards.sol\":2136:2163  return rewardPerTokenStored */\n      swap1\n      pop\n      jump(tag_214)\n        /* \"contracts/StakingRewards.sol\":2098:2175  if (_totalSupply == 0) {\r... */\n    tag_215:\n        /* \"contracts/StakingRewards.sol\":2205:2353  rewardPerTokenStored.add(\r... */\n      tag_216\n        /* \"contracts/StakingRewards.sol\":2248:2338  lastTimeRewardApplicable().sub(lastUpdateTime).mul(rewardRate).mul(1e18).div(_totalSupply) */\n      tag_217\n        /* \"contracts/StakingRewards.sol\":2325:2337  _totalSupply */\n      sload(0x0e)\n        /* \"contracts/StakingRewards.sol\":2248:2320  lastTimeRewardApplicable().sub(lastUpdateTime).mul(rewardRate).mul(1e18) */\n      tag_218\n        /* \"contracts/StakingRewards.sol\":2315:2319  1e18 */\n      0x0de0b6b3a7640000\n        /* \"contracts/StakingRewards.sol\":2248:2310  lastTimeRewardApplicable().sub(lastUpdateTime).mul(rewardRate) */\n      tag_219\n        /* \"contracts/StakingRewards.sol\":2299:2309  rewardRate */\n      sload(0x08)\n        /* \"contracts/StakingRewards.sol\":2248:2294  lastTimeRewardApplicable().sub(lastUpdateTime) */\n      tag_220\n        /* \"contracts/StakingRewards.sol\":2279:2293  lastUpdateTime */\n      sload(0x0a)\n        /* \"contracts/StakingRewards.sol\":2248:2274  lastTimeRewardApplicable() */\n      tag_221\n        /* \"contracts/StakingRewards.sol\":2248:2272  lastTimeRewardApplicable */\n      tag_86\n        /* \"contracts/StakingRewards.sol\":2248:2274  lastTimeRewardApplicable() */\n      jump\t// in\n    tag_221:\n        /* \"contracts/StakingRewards.sol\":2248:2278  lastTimeRewardApplicable().sub */\n      tag_121\n      swap1\n        /* \"contracts/StakingRewards.sol\":2248:2294  lastTimeRewardApplicable().sub(lastUpdateTime) */\n      swap2\n      swap1\n      0xffffffff\n      and\n      jump\t// in\n    tag_220:\n        /* \"contracts/StakingRewards.sol\":2248:2298  lastTimeRewardApplicable().sub(lastUpdateTime).mul */\n      tag_122\n      swap1\n        /* \"contracts/StakingRewards.sol\":2248:2310  lastTimeRewardApplicable().sub(lastUpdateTime).mul(rewardRate) */\n      swap2\n      swap1\n      0xffffffff\n      and\n      jump\t// in\n    tag_219:\n        /* \"contracts/StakingRewards.sol\":2248:2314  lastTimeRewardApplicable().sub(lastUpdateTime).mul(rewardRate).mul */\n      tag_122\n      swap1\n        /* \"contracts/StakingRewards.sol\":2248:2320  lastTimeRewardApplicable().sub(lastUpdateTime).mul(rewardRate).mul(1e18) */\n      swap2\n      swap1\n      0xffffffff\n      and\n      jump\t// in\n    tag_218:\n        /* \"contracts/StakingRewards.sol\":2248:2324  lastTimeRewardApplicable().sub(lastUpdateTime).mul(rewardRate).mul(1e18).div */\n      tag_123\n      swap1\n        /* \"contracts/StakingRewards.sol\":2248:2338  lastTimeRewardApplicable().sub(lastUpdateTime).mul(rewardRate).mul(1e18).div(_totalSupply) */\n      swap2\n      swap1\n      0xffffffff\n      and\n      jump\t// in\n    tag_217:\n        /* \"contracts/StakingRewards.sol\":2205:2225  rewardPerTokenStored */\n      sload(0x0b)\n        /* \"contracts/StakingRewards.sol\":2205:2229  rewardPerTokenStored.add */\n      tag_124\n      swap1\n        /* \"contracts/StakingRewards.sol\":2205:2353  rewardPerTokenStored.add(\r... */\n      swap2\n      swap1\n      0xffffffff\n      and\n      jump\t// in\n    tag_216:\n        /* \"contracts/StakingRewards.sol\":2185:2353  return\r... */\n      swap1\n      pop\n        /* \"contracts/StakingRewards.sol\":2031:2361  function rewardPerToken() public view returns (uint256) {\r... */\n    tag_214:\n      swap1\n      jump\t// out\n        /* \"contracts/StakingRewards.sol\":758:784  IERC20 public rewardsToken */\n    tag_108:\n      0x05\n      0x01\n      swap1\n      sload\n      swap1\n      0x0100\n      exp\n      swap1\n      div\n      0xffffffffffffffffffffffffffffffffffffffff\n      and\n      dup2\n      jump\t// out\n        /* \"contracts/StakingRewards.sol\":980:1015  uint256 public rewardPerTokenStored */\n    tag_110:\n      sload(0x0b)\n      dup2\n      jump\t// out\n        /* \"contracts/StakingRewards.sol\":3825:3922  function exit() external {\r... */\n    tag_112:\n        /* \"contracts/StakingRewards.sol\":3861:3892  withdraw(_balances[msg.sender]) */\n      tag_223\n        /* \"contracts/StakingRewards.sol\":3870:3879  _balances */\n      0x0f\n        /* \"contracts/StakingRewards.sol\":3870:3891  _balances[msg.sender] */\n      0x00\n        /* \"contracts/StakingRewards.sol\":3880:3890  msg.sender */\n      caller\n        /* \"contracts/StakingRewards.sol\":3870:3891  _balances[msg.sender] */\n      0xffffffffffffffffffffffffffffffffffffffff\n      and\n      0xffffffffffffffffffffffffffffffffffffffff\n      and\n      dup2\n      mstore\n      0x20\n      add\n      swap1\n      dup2\n      mstore\n      0x20\n      add\n      0x00\n      keccak256\n      sload\n        /* \"contracts/StakingRewards.sol\":3861:3869  withdraw */\n      tag_62\n        /* \"contracts/StakingRewards.sol\":3861:3892  withdraw(_balances[msg.sender]) */\n      jump\t// in\n    tag_223:\n        /* \"contracts/StakingRewards.sol\":3903:3914  getReward() */\n      tag_224\n        /* \"contracts/StakingRewards.sol\":3903:3912  getReward */\n      tag_69\n        /* \"contracts/StakingRewards.sol\":3903:3914  getReward() */\n      jump\t// in\n    tag_224:\n        /* \"contracts/StakingRewards.sol\":3825:3922  function exit() external {\r... */\n      jump\t// out\n        /* \"contracts/StakingRewards.sol\":824:855  uint256 public periodFinish = 0 */\n    tag_114:\n      sload(0x07)\n      dup2\n      jump\t// out\n        /* \"openzeppelin-solidity-2.3.0/contracts/math/SafeMath.sol\":1315:1499  function sub(uint256 a, uint256 b) internal pure returns (uint256) {\r... */\n    tag_121:\n        /* \"openzeppelin-solidity-2.3.0/contracts/math/SafeMath.sol\":1373:1380  uint256 */\n      0x00\n        /* \"openzeppelin-solidity-2.3.0/contracts/math/SafeMath.sol\":1406:1407  a */\n      dup3\n        /* \"openzeppelin-solidity-2.3.0/contracts/math/SafeMath.sol\":1401:1402  b */\n      dup3\n        /* \"openzeppelin-solidity-2.3.0/contracts/math/SafeMath.sol\":1401:1407  b <= a */\n      gt\n      iszero\n        /* \"openzeppelin-solidity-2.3.0/contracts/math/SafeMath.sol\":1393:1442  require(b <= a, \"SafeMath: subtraction overflow\") */\n      tag_226\n      jumpi\n      mload(0x40)\n      0x08c379a000000000000000000000000000000000000000000000000000000000\n      dup2\n      mstore\n      0x04\n      add\n      dup1\n      dup1\n      0x20\n      add\n      dup3\n      dup2\n      sub\n      dup3\n      mstore\n      0x1e\n      dup2\n      mstore\n      0x20\n      add\n      dup1\n      0x536166654d6174683a207375627472616374696f6e206f766572666c6f770000\n      dup2\n      mstore\n      pop\n      0x20\n      add\n      swap2\n      pop\n      pop\n      mload(0x40)\n      dup1\n      swap2\n      sub\n      swap1\n      revert\n    tag_226:\n        /* \"openzeppelin-solidity-2.3.0/contracts/math/SafeMath.sol\":1453:1462  uint256 c */\n      0x00\n        /* \"openzeppelin-solidity-2.3.0/contracts/math/SafeMath.sol\":1469:1470  b */\n      dup3\n        /* \"openzeppelin-solidity-2.3.0/contracts/math/SafeMath.sol\":1465:1466  a */\n      dup5\n        /* \"openzeppelin-solidity-2.3.0/contracts/math/SafeMath.sol\":1465:1470  a - b */\n      sub\n        /* \"openzeppelin-solidity-2.3.0/contracts/math/SafeMath.sol\":1453:1470  uint256 c = a - b */\n      swap1\n      pop\n        /* \"openzeppelin-solidity-2.3.0/contracts/math/SafeMath.sol\":1490:1491  c */\n      dup1\n        /* \"openzeppelin-solidity-2.3.0/contracts/math/SafeMath.sol\":1483:1491  return c */\n      swap2\n      pop\n      pop\n        /* \"openzeppelin-solidity-2.3.0/contracts/math/SafeMath.sol\":1315:1499  function sub(uint256 a, uint256 b) internal pure returns (uint256) {\r... */\n      swap3\n      swap2\n      pop\n      pop\n      jump\t// out\n        /* \"openzeppelin-solidity-2.3.0/contracts/math/SafeMath.sol\":1750:2221  function mul(uint256 a, uint256 b) internal pure returns (uint256) {\r... */\n    tag_122:\n        /* \"openzeppelin-solidity-2.3.0/contracts/math/SafeMath.sol\":1808:1815  uint256 */\n      0x00\n        /* \"openzeppelin-solidity-2.3.0/contracts/math/SafeMath.sol\":2058:2059  0 */\n      dup1\n        /* \"openzeppelin-solidity-2.3.0/contracts/math/SafeMath.sol\":2053:2054  a */\n      dup4\n        /* \"openzeppelin-solidity-2.3.0/contracts/math/SafeMath.sol\":2053:2059  a == 0 */\n      eq\n        /* \"openzeppelin-solidity-2.3.0/contracts/math/SafeMath.sol\":2049:2096  if (a == 0) {\r... */\n      iszero\n      tag_228\n      jumpi\n        /* \"openzeppelin-solidity-2.3.0/contracts/math/SafeMath.sol\":2083:2084  0 */\n      0x00\n        /* \"openzeppelin-solidity-2.3.0/contracts/math/SafeMath.sol\":2076:2084  return 0 */\n      swap1\n      pop\n      jump(tag_227)\n        /* \"openzeppelin-solidity-2.3.0/contracts/math/SafeMath.sol\":2049:2096  if (a == 0) {\r... */\n    tag_228:\n        /* \"openzeppelin-solidity-2.3.0/contracts/math/SafeMath.sol\":2108:2117  uint256 c */\n      0x00\n        /* \"openzeppelin-solidity-2.3.0/contracts/math/SafeMath.sol\":2124:2125  b */\n      dup3\n        /* \"openzeppelin-solidity-2.3.0/contracts/math/SafeMath.sol\":2120:2121  a */\n      dup5\n        /* \"openzeppelin-solidity-2.3.0/contracts/math/SafeMath.sol\":2120:2125  a * b */\n      mul\n        /* \"openzeppelin-solidity-2.3.0/contracts/math/SafeMath.sol\":2108:2125  uint256 c = a * b */\n      swap1\n      pop\n        /* \"openzeppelin-solidity-2.3.0/contracts/math/SafeMath.sol\":2153:2154  b */\n      dup3\n        /* \"openzeppelin-solidity-2.3.0/contracts/math/SafeMath.sol\":2148:2149  a */\n      dup5\n        /* \"openzeppelin-solidity-2.3.0/contracts/math/SafeMath.sol\":2144:2145  c */\n      dup3\n        /* \"openzeppelin-solidity-2.3.0/contracts/math/SafeMath.sol\":2144:2149  c / a */\n      dup2\n      tag_229\n      jumpi\n      invalid\n    tag_229:\n      div\n        /* \"openzeppelin-solidity-2.3.0/contracts/math/SafeMath.sol\":2144:2154  c / a == b */\n      eq\n        /* \"openzeppelin-solidity-2.3.0/contracts/math/SafeMath.sol\":2136:2192  require(c / a == b, \"SafeMath: multiplication overflow\") */\n      tag_230\n      jumpi\n      mload(0x40)\n      0x08c379a000000000000000000000000000000000000000000000000000000000\n      dup2\n      mstore\n      0x04\n      add\n      dup1\n      dup1\n      0x20\n      add\n      dup3\n      dup2\n      sub\n      dup3\n      mstore\n      0x21\n      dup2\n      mstore\n      0x20\n      add\n      dup1\n      data_9113bb53c2876a3805b2c9242029423fc540a728243ce887ab24c82cf119fba3\n      0x21\n      swap2\n      codecopy\n      0x40\n      add\n      swap2\n      pop\n      pop\n      mload(0x40)\n      dup1\n      swap2\n      sub\n      swap1\n      revert\n    tag_230:\n        /* \"openzeppelin-solidity-2.3.0/contracts/math/SafeMath.sol\":2212:2213  c */\n      dup1\n        /* \"openzeppelin-solidity-2.3.0/contracts/math/SafeMath.sol\":2205:2213  return c */\n      swap2\n      pop\n      pop\n        /* \"openzeppelin-solidity-2.3.0/contracts/math/SafeMath.sol\":1750:2221  function mul(uint256 a, uint256 b) internal pure returns (uint256) {\r... */\n    tag_227:\n      swap3\n      swap2\n      pop\n      pop\n      jump\t// out\n        /* \"openzeppelin-solidity-2.3.0/contracts/math/SafeMath.sol\":2689:3022  function div(uint256 a, uint256 b) internal pure returns (uint256) {\r... */\n    tag_123:\n        /* \"openzeppelin-solidity-2.3.0/contracts/math/SafeMath.sol\":2747:2754  uint256 */\n      0x00\n        /* \"openzeppelin-solidity-2.3.0/contracts/math/SafeMath.sol\":2846:2847  0 */\n      dup1\n        /* \"openzeppelin-solidity-2.3.0/contracts/math/SafeMath.sol\":2842:2843  b */\n      dup3\n        /* \"openzeppelin-solidity-2.3.0/contracts/math/SafeMath.sol\":2842:2847  b > 0 */\n      gt\n        /* \"openzeppelin-solidity-2.3.0/contracts/math/SafeMath.sol\":2834:2878  require(b > 0, \"SafeMath: division by zero\") */\n      tag_232\n      jumpi\n      mload(0x40)\n      0x08c379a000000000000000000000000000000000000000000000000000000000\n      dup2\n      mstore\n      0x04\n      add\n      dup1\n      dup1\n      0x20\n      add\n      dup3\n      dup2\n      sub\n      dup3\n      mstore\n      0x1a\n      dup2\n      mstore\n      0x20\n      add\n      dup1\n      0x536166654d6174683a206469766973696f6e206279207a65726f000000000000\n      dup2\n      mstore\n      pop\n      0x20\n      add\n      swap2\n      pop\n      pop\n      mload(0x40)\n      dup1\n      swap2\n      sub\n      swap1\n      revert\n    tag_232:\n        /* \"openzeppelin-solidity-2.3.0/contracts/math/SafeMath.sol\":2889:2898  uint256 c */\n      0x00\n        /* \"openzeppelin-solidity-2.3.0/contracts/math/SafeMath.sol\":2905:2906  b */\n      dup3\n        /* \"openzeppelin-solidity-2.3.0/contracts/math/SafeMath.sol\":2901:2902  a */\n      dup5\n        /* \"openzeppelin-solidity-2.3.0/contracts/math/SafeMath.sol\":2901:2906  a / b */\n      dup2\n      tag_233\n      jumpi\n      invalid\n    tag_233:\n      div\n        /* \"openzeppelin-solidity-2.3.0/contracts/math/SafeMath.sol\":2889:2906  uint256 c = a / b */\n      swap1\n      pop\n        /* \"openzeppelin-solidity-2.3.0/contracts/math/SafeMath.sol\":3013:3014  c */\n      dup1\n        /* \"openzeppelin-solidity-2.3.0/contracts/math/SafeMath.sol\":3006:3014  return c */\n      swap2\n      pop\n      pop\n        /* \"openzeppelin-solidity-2.3.0/contracts/math/SafeMath.sol\":2689:3022  function div(uint256 a, uint256 b) internal pure returns (uint256) {\r... */\n      swap3\n      swap2\n      pop\n      pop\n      jump\t// out\n        /* \"openzeppelin-solidity-2.3.0/contracts/math/SafeMath.sol\":859:1040  function add(uint256 a, uint256 b) internal pure returns (uint256) {\r... */\n    tag_124:\n        /* \"openzeppelin-solidity-2.3.0/contracts/math/SafeMath.sol\":917:924  uint256 */\n      0x00\n        /* \"openzeppelin-solidity-2.3.0/contracts/math/SafeMath.sol\":937:946  uint256 c */\n      dup1\n        /* \"openzeppelin-solidity-2.3.0/contracts/math/SafeMath.sol\":953:954  b */\n      dup3\n        /* \"openzeppelin-solidity-2.3.0/contracts/math/SafeMath.sol\":949:950  a */\n      dup5\n        /* \"openzeppelin-solidity-2.3.0/contracts/math/SafeMath.sol\":949:954  a + b */\n      add\n        /* \"openzeppelin-solidity-2.3.0/contracts/math/SafeMath.sol\":937:954  uint256 c = a + b */\n      swap1\n      pop\n        /* \"openzeppelin-solidity-2.3.0/contracts/math/SafeMath.sol\":978:979  a */\n      dup4\n        /* \"openzeppelin-solidity-2.3.0/contracts/math/SafeMath.sol\":973:974  c */\n      dup2\n        /* \"openzeppelin-solidity-2.3.0/contracts/math/SafeMath.sol\":973:979  c >= a */\n      lt\n      iszero\n        /* \"openzeppelin-solidity-2.3.0/contracts/math/SafeMath.sol\":965:1011  require(c >= a, \"SafeMath: addition overflow\") */\n      tag_235\n      jumpi\n      mload(0x40)\n      0x08c379a000000000000000000000000000000000000000000000000000000000\n      dup2\n      mstore\n      0x04\n      add\n      dup1\n      dup1\n      0x20\n      add\n      dup3\n      dup2\n      sub\n      dup3\n      mstore\n      0x1b\n      dup2\n      mstore\n      0x20\n      add\n      dup1\n      0x536166654d6174683a206164646974696f6e206f766572666c6f770000000000\n      dup2\n      mstore\n      pop\n      0x20\n      add\n      swap2\n      pop\n      pop\n      mload(0x40)\n      dup1\n      swap2\n      sub\n      swap1\n      revert\n    tag_235:\n        /* \"openzeppelin-solidity-2.3.0/contracts/math/SafeMath.sol\":1031:1032  c */\n      dup1\n        /* \"openzeppelin-solidity-2.3.0/contracts/math/SafeMath.sol\":1024:1032  return c */\n      swap2\n      pop\n      pop\n        /* \"openzeppelin-solidity-2.3.0/contracts/math/SafeMath.sol\":859:1040  function add(uint256 a, uint256 b) internal pure returns (uint256) {\r... */\n      swap3\n      swap2\n      pop\n      pop\n      jump\t// out\n        /* \"contracts/Owned.sol\":869:1002  function _onlyOwner() private view {\r... */\n    tag_127:\n        /* \"contracts/Owned.sol\":937:942  owner */\n      0x00\n      dup1\n      swap1\n      sload\n      swap1\n      0x0100\n      exp\n      swap1\n      div\n      0xffffffffffffffffffffffffffffffffffffffff\n      and\n        /* \"contracts/Owned.sol\":923:942  msg.sender == owner */\n      0xffffffffffffffffffffffffffffffffffffffff\n      and\n        /* \"contracts/Owned.sol\":923:933  msg.sender */\n      caller\n        /* \"contracts/Owned.sol\":923:942  msg.sender == owner */\n      0xffffffffffffffffffffffffffffffffffffffff\n      and\n      eq\n        /* \"contracts/Owned.sol\":915:994  require(msg.sender == owner, \"Only the contract owner may perform this action\") */\n      tag_237\n      jumpi\n      mload(0x40)\n      0x08c379a000000000000000000000000000000000000000000000000000000000\n      dup2\n      mstore\n      0x04\n      add\n      dup1\n      dup1\n      0x20\n      add\n      dup3\n      dup2\n      sub\n      dup3\n      mstore\n      0x2f\n      dup2\n      mstore\n      0x20\n      add\n      dup1\n      data_873d2051b76e0142b287297afdfc273bf1ab5c24ee229ed4ef117f1ff0679a4a\n      0x2f\n      swap2\n      codecopy\n      0x40\n      add\n      swap2\n      pop\n      pop\n      mload(0x40)\n      dup1\n      swap2\n      sub\n      swap1\n      revert\n    tag_237:\n        /* \"contracts/Owned.sol\":869:1002  function _onlyOwner() private view {\r... */\n      jump\t// out\n        /* \"openzeppelin-solidity-2.3.0/contracts/token/ERC20/SafeERC20.sol\":681:857  function safeTransfer(IERC20 token, address to, uint256 value) internal {\r... */\n    tag_151:\n        /* \"openzeppelin-solidity-2.3.0/contracts/token/ERC20/SafeERC20.sol\":764:849  callOptionalReturn(token, abi.encodeWithSelector(token.transfer.selector, to, value)) */\n      tag_239\n        /* \"openzeppelin-solidity-2.3.0/contracts/token/ERC20/SafeERC20.sol\":783:788  token */\n      dup4\n        /* \"openzeppelin-solidity-2.3.0/contracts/token/ERC20/SafeERC20.sol\":813:818  token */\n      dup5\n        /* \"openzeppelin-solidity-2.3.0/contracts/token/ERC20/SafeERC20.sol\":813:827  token.transfer */\n      0xffffffffffffffffffffffffffffffffffffffff\n      and\n      0xa9059cbb\n        /* \"openzeppelin-solidity-2.3.0/contracts/token/ERC20/SafeERC20.sol\":813:836  token.transfer.selector */\n      swap1\n      pop\n      0xe0\n      shl\n        /* \"openzeppelin-solidity-2.3.0/contracts/token/ERC20/SafeERC20.sol\":838:840  to */\n      dup5\n        /* \"openzeppelin-solidity-2.3.0/contracts/token/ERC20/SafeERC20.sol\":842:847  value */\n      dup5\n        /* \"openzeppelin-solidity-2.3.0/contracts/token/ERC20/SafeERC20.sol\":790:848  abi.encodeWithSelector(token.transfer.selector, to, value) */\n      add(0x24, mload(0x40))\n      dup1\n      dup4\n      0xffffffffffffffffffffffffffffffffffffffff\n      and\n      0xffffffffffffffffffffffffffffffffffffffff\n      and\n      dup2\n      mstore\n      0x20\n      add\n      dup3\n      dup2\n      mstore\n      0x20\n      add\n      swap3\n      pop\n      pop\n      pop\n      mload(0x40)\n        /* \"--CODEGEN--\":49:53   */\n      0x20\n        /* \"--CODEGEN--\":39:46   */\n      dup2\n        /* \"--CODEGEN--\":30:37   */\n      dup4\n        /* \"--CODEGEN--\":26:47   */\n      sub\n        /* \"--CODEGEN--\":22:54   */\n      sub\n        /* \"--CODEGEN--\":13:20   */\n      dup2\n        /* \"--CODEGEN--\":6:55   */\n      mstore\n        /* \"openzeppelin-solidity-2.3.0/contracts/token/ERC20/SafeERC20.sol\":790:848  abi.encodeWithSelector(token.transfer.selector, to, value) */\n      swap1\n      0x40\n      mstore\n      swap1\n      not(0xffffffffffffffffffffffffffffffffffffffffffffffffffffffff)\n      and\n        /* \"--CODEGEN--\":38:42   */\n      0x20\n        /* \"--CODEGEN--\":29:36   */\n      dup3\n        /* \"--CODEGEN--\":25:43   */\n      add\n        /* \"--CODEGEN--\":67:77   */\n      dup1\n        /* \"--CODEGEN--\":61:78   */\n      mload\n        /* \"--CODEGEN--\":96:154   */\n      0xffffffffffffffffffffffffffffffffffffffffffffffffffffffff\n        /* \"--CODEGEN--\":199:207   */\n      dup4\n        /* \"--CODEGEN--\":192:196   */\n      dup2\n        /* \"--CODEGEN--\":186:190   */\n      dup4\n        /* \"--CODEGEN--\":182:197   */\n      and\n        /* \"--CODEGEN--\":179:208   */\n      or\n        /* \"--CODEGEN--\":167:177   */\n      dup4\n        /* \"--CODEGEN--\":160:209   */\n      mstore\n        /* \"--CODEGEN--\":0:215   */\n      pop\n      pop\n      pop\n        /* \"openzeppelin-solidity-2.3.0/contracts/token/ERC20/SafeERC20.sol\":790:848  abi.encodeWithSelector(token.transfer.selector, to, value) */\n      pop\n        /* \"openzeppelin-solidity-2.3.0/contracts/token/ERC20/SafeERC20.sol\":764:782  callOptionalReturn */\n      tag_240\n        /* \"openzeppelin-solidity-2.3.0/contracts/token/ERC20/SafeERC20.sol\":764:849  callOptionalReturn(token, abi.encodeWithSelector(token.transfer.selector, to, value)) */\n      jump\t// in\n    tag_239:\n        /* \"openzeppelin-solidity-2.3.0/contracts/token/ERC20/SafeERC20.sol\":681:857  function safeTransfer(IERC20 token, address to, uint256 value) internal {\r... */\n      pop\n      pop\n      pop\n      jump\t// out\n        /* \"openzeppelin-solidity-2.3.0/contracts/token/ERC20/SafeERC20.sol\":865:1069  function safeTransferFrom(IERC20 token, address from, address to, uint256 value) internal {\r... */\n    tag_208:\n        /* \"openzeppelin-solidity-2.3.0/contracts/token/ERC20/SafeERC20.sol\":966:1061  callOptionalReturn(token, abi.encodeWithSelector(token.transferFrom.selector, from, to, value)) */\n      tag_242\n        /* \"openzeppelin-solidity-2.3.0/contracts/token/ERC20/SafeERC20.sol\":985:990  token */\n      dup5\n        /* \"openzeppelin-solidity-2.3.0/contracts/token/ERC20/SafeERC20.sol\":1015:1020  token */\n      dup6\n        /* \"openzeppelin-solidity-2.3.0/contracts/token/ERC20/SafeERC20.sol\":1015:1033  token.transferFrom */\n      0xffffffffffffffffffffffffffffffffffffffff\n      and\n      0x23b872dd\n        /* \"openzeppelin-solidity-2.3.0/contracts/token/ERC20/SafeERC20.sol\":1015:1042  token.transferFrom.selector */\n      swap1\n      pop\n      0xe0\n      shl\n        /* \"openzeppelin-solidity-2.3.0/contracts/token/ERC20/SafeERC20.sol\":1044:1048  from */\n      dup6\n        /* \"openzeppelin-solidity-2.3.0/contracts/token/ERC20/SafeERC20.sol\":1050:1052  to */\n      dup6\n        /* \"openzeppelin-solidity-2.3.0/contracts/token/ERC20/SafeERC20.sol\":1054:1059  value */\n      dup6\n        /* \"openzeppelin-solidity-2.3.0/contracts/token/ERC20/SafeERC20.sol\":992:1060  abi.encodeWithSelector(token.transferFrom.selector, from, to, value) */\n      add(0x24, mload(0x40))\n      dup1\n      dup5\n      0xffffffffffffffffffffffffffffffffffffffff\n      and\n      0xffffffffffffffffffffffffffffffffffffffff\n      and\n      dup2\n      mstore\n      0x20\n      add\n      dup4\n      0xffffffffffffffffffffffffffffffffffffffff\n      and\n      0xffffffffffffffffffffffffffffffffffffffff\n      and\n      dup2\n      mstore\n      0x20\n      add\n      dup3\n      dup2\n      mstore\n      0x20\n      add\n      swap4\n      pop\n      pop\n      pop\n      pop\n      mload(0x40)\n        /* \"--CODEGEN--\":49:53   */\n      0x20\n        /* \"--CODEGEN--\":39:46   */\n      dup2\n        /* \"--CODEGEN--\":30:37   */\n      dup4\n        /* \"--CODEGEN--\":26:47   */\n      sub\n        /* \"--CODEGEN--\":22:54   */\n      sub\n        /* \"--CODEGEN--\":13:20   */\n      dup2\n        /* \"--CODEGEN--\":6:55   */\n      mstore\n        /* \"openzeppelin-solidity-2.3.0/contracts/token/ERC20/SafeERC20.sol\":992:1060  abi.encodeWithSelector(token.transferFrom.selector, from, to, value) */\n      swap1\n      0x40\n      mstore\n      swap1\n      not(0xffffffffffffffffffffffffffffffffffffffffffffffffffffffff)\n      and\n        /* \"--CODEGEN--\":38:42   */\n      0x20\n        /* \"--CODEGEN--\":29:36   */\n      dup3\n        /* \"--CODEGEN--\":25:43   */\n      add\n        /* \"--CODEGEN--\":67:77   */\n      dup1\n        /* \"--CODEGEN--\":61:78   */\n      mload\n        /* \"--CODEGEN--\":96:154   */\n      0xffffffffffffffffffffffffffffffffffffffffffffffffffffffff\n        /* \"--CODEGEN--\":199:207   */\n      dup4\n        /* \"--CODEGEN--\":192:196   */\n      dup2\n        /* \"--CODEGEN--\":186:190   */\n      dup4\n        /* \"--CODEGEN--\":182:197   */\n      and\n        /* \"--CODEGEN--\":179:208   */\n      or\n        /* \"--CODEGEN--\":167:177   */\n      dup4\n        /* \"--CODEGEN--\":160:209   */\n      mstore\n        /* \"--CODEGEN--\":0:215   */\n      pop\n      pop\n      pop\n        /* \"openzeppelin-solidity-2.3.0/contracts/token/ERC20/SafeERC20.sol\":992:1060  abi.encodeWithSelector(token.transferFrom.selector, from, to, value) */\n      pop\n        /* \"openzeppelin-solidity-2.3.0/contracts/token/ERC20/SafeERC20.sol\":966:984  callOptionalReturn */\n      tag_240\n        /* \"openzeppelin-solidity-2.3.0/contracts/token/ERC20/SafeERC20.sol\":966:1061  callOptionalReturn(token, abi.encodeWithSelector(token.transferFrom.selector, from, to, value)) */\n      jump\t// in\n    tag_242:\n        /* \"openzeppelin-solidity-2.3.0/contracts/token/ERC20/SafeERC20.sol\":865:1069  function safeTransferFrom(IERC20 token, address from, address to, uint256 value) internal {\r... */\n      pop\n      pop\n      pop\n      pop\n      jump\t// out\n        /* \"openzeppelin-solidity-2.3.0/contracts/token/ERC20/SafeERC20.sol\":2675:3789  function callOptionalReturn(IERC20 token, bytes memory data) private {\r... */\n    tag_240:\n        /* \"openzeppelin-solidity-2.3.0/contracts/token/ERC20/SafeERC20.sol\":3279:3306  address(token).isContract() */\n      tag_244\n        /* \"openzeppelin-solidity-2.3.0/contracts/token/ERC20/SafeERC20.sol\":3287:3292  token */\n      dup3\n        /* \"openzeppelin-solidity-2.3.0/contracts/token/ERC20/SafeERC20.sol\":3279:3304  address(token).isContract */\n      0xffffffffffffffffffffffffffffffffffffffff\n      and\n      tag_245\n        /* \"openzeppelin-solidity-2.3.0/contracts/token/ERC20/SafeERC20.sol\":3279:3306  address(token).isContract() */\n      jump\t// in\n    tag_244:\n        /* \"openzeppelin-solidity-2.3.0/contracts/token/ERC20/SafeERC20.sol\":3271:3342  require(address(token).isContract(), \"SafeERC20: call to non-contract\") */\n      tag_246\n      jumpi\n      mload(0x40)\n      0x08c379a000000000000000000000000000000000000000000000000000000000\n      dup2\n      mstore\n      0x04\n      add\n      dup1\n      dup1\n      0x20\n      add\n      dup3\n      dup2\n      sub\n      dup3\n      mstore\n      0x1f\n      dup2\n      mstore\n      0x20\n      add\n      dup1\n      0x5361666545524332303a2063616c6c20746f206e6f6e2d636f6e747261637400\n      dup2\n      mstore\n      pop\n      0x20\n      add\n      swap2\n      pop\n      pop\n      mload(0x40)\n      dup1\n      swap2\n      sub\n      swap1\n      revert\n    tag_246:\n        /* \"openzeppelin-solidity-2.3.0/contracts/token/ERC20/SafeERC20.sol\":3416:3428  bool success */\n      0x00\n        /* \"openzeppelin-solidity-2.3.0/contracts/token/ERC20/SafeERC20.sol\":3430:3453  bytes memory returndata */\n      0x60\n        /* \"openzeppelin-solidity-2.3.0/contracts/token/ERC20/SafeERC20.sol\":3465:3470  token */\n      dup4\n        /* \"openzeppelin-solidity-2.3.0/contracts/token/ERC20/SafeERC20.sol\":3457:3476  address(token).call */\n      0xffffffffffffffffffffffffffffffffffffffff\n      and\n        /* \"openzeppelin-solidity-2.3.0/contracts/token/ERC20/SafeERC20.sol\":3477:3481  data */\n      dup4\n        /* \"openzeppelin-solidity-2.3.0/contracts/token/ERC20/SafeERC20.sol\":3457:3482  address(token).call(data) */\n      mload(0x40)\n      dup1\n      dup3\n      dup1\n      mload\n      swap1\n      0x20\n      add\n      swap1\n      dup1\n      dup4\n      dup4\n        /* \"--CODEGEN--\":36:189   */\n    tag_247:\n        /* \"--CODEGEN--\":66:68   */\n      0x20\n        /* \"--CODEGEN--\":61:64   */\n      dup4\n        /* \"--CODEGEN--\":58:69   */\n      lt\n        /* \"--CODEGEN--\":36:189   */\n      tag_249\n      jumpi\n        /* \"--CODEGEN--\":182:185   */\n      dup1\n        /* \"--CODEGEN--\":176:186   */\n      mload\n        /* \"--CODEGEN--\":171:174   */\n      dup3\n        /* \"--CODEGEN--\":164:187   */\n      mstore\n        /* \"--CODEGEN--\":98:100   */\n      0x20\n        /* \"--CODEGEN--\":93:96   */\n      dup3\n        /* \"--CODEGEN--\":89:101   */\n      add\n        /* \"--CODEGEN--\":82:101   */\n      swap2\n      pop\n        /* \"--CODEGEN--\":123:125   */\n      0x20\n        /* \"--CODEGEN--\":118:121   */\n      dup2\n        /* \"--CODEGEN--\":114:126   */\n      add\n        /* \"--CODEGEN--\":107:126   */\n      swap1\n      pop\n        /* \"--CODEGEN--\":148:150   */\n      0x20\n        /* \"--CODEGEN--\":143:146   */\n      dup4\n        /* \"--CODEGEN--\":139:151   */\n      sub\n        /* \"--CODEGEN--\":132:151   */\n      swap3\n      pop\n        /* \"--CODEGEN--\":36:189   */\n      jump(tag_247)\n    tag_249:\n        /* \"--CODEGEN--\":274:275   */\n      0x01\n        /* \"--CODEGEN--\":267:270   */\n      dup4\n        /* \"--CODEGEN--\":263:265   */\n      0x20\n        /* \"--CODEGEN--\":259:271   */\n      sub\n        /* \"--CODEGEN--\":254:257   */\n      0x0100\n        /* \"--CODEGEN--\":250:272   */\n      exp\n        /* \"--CODEGEN--\":246:276   */\n      sub\n        /* \"--CODEGEN--\":315:319   */\n      dup1\n        /* \"--CODEGEN--\":311:320   */\n      not\n        /* \"--CODEGEN--\":305:308   */\n      dup3\n        /* \"--CODEGEN--\":299:309   */\n      mload\n        /* \"--CODEGEN--\":295:321   */\n      and\n        /* \"--CODEGEN--\":356:360   */\n      dup2\n        /* \"--CODEGEN--\":350:353   */\n      dup5\n        /* \"--CODEGEN--\":344:354   */\n      mload\n        /* \"--CODEGEN--\":340:361   */\n      and\n        /* \"--CODEGEN--\":389:396   */\n      dup1\n        /* \"--CODEGEN--\":380:387   */\n      dup3\n        /* \"--CODEGEN--\":377:397   */\n      or\n        /* \"--CODEGEN--\":372:375   */\n      dup6\n        /* \"--CODEGEN--\":365:398   */\n      mstore\n        /* \"--CODEGEN--\":3:402   */\n      pop\n      pop\n      pop\n        /* \"openzeppelin-solidity-2.3.0/contracts/token/ERC20/SafeERC20.sol\":3457:3482  address(token).call(data) */\n      pop\n      pop\n      pop\n      swap1\n      pop\n      add\n      swap2\n      pop\n      pop\n      0x00\n      mload(0x40)\n      dup1\n      dup4\n      sub\n      dup2\n      0x00\n      dup7\n      gas\n      call\n      swap2\n      pop\n      pop\n      returndatasize\n        /* \"--CODEGEN--\":14:15   */\n      dup1\n        /* \"--CODEGEN--\":21:22   */\n      0x00\n        /* \"--CODEGEN--\":16:47   */\n      dup2\n      eq\n      tag_251\n      jumpi\n        /* \"--CODEGEN--\":75:79   */\n      0x40\n        /* \"--CODEGEN--\":69:80   */\n      mload\n        /* \"--CODEGEN--\":64:80   */\n      swap2\n      pop\n        /* \"--CODEGEN--\":144:148   */\n      0x1f\n        /* \"--CODEGEN--\":140:149   */\n      not\n        /* \"--CODEGEN--\":133:137   */\n      0x3f\n        /* \"--CODEGEN--\":115:131   */\n      returndatasize\n        /* \"--CODEGEN--\":111:138   */\n      add\n        /* \"--CODEGEN--\":107:150   */\n      and\n        /* \"--CODEGEN--\":104:105   */\n      dup3\n        /* \"--CODEGEN--\":100:151   */\n      add\n        /* \"--CODEGEN--\":94:98   */\n      0x40\n        /* \"--CODEGEN--\":87:152   */\n      mstore\n        /* \"--CODEGEN--\":169:185   */\n      returndatasize\n        /* \"--CODEGEN--\":166:167   */\n      dup3\n        /* \"--CODEGEN--\":159:186   */\n      mstore\n        /* \"--CODEGEN--\":225:241   */\n      returndatasize\n        /* \"--CODEGEN--\":222:223   */\n      0x00\n        /* \"--CODEGEN--\":215:219   */\n      0x20\n        /* \"--CODEGEN--\":212:213   */\n      dup5\n        /* \"--CODEGEN--\":208:220   */\n      add\n        /* \"--CODEGEN--\":193:242   */\n      returndatacopy\n        /* \"--CODEGEN--\":7:249   */\n      jump(tag_250)\n        /* \"--CODEGEN--\":16:47   */\n    tag_251:\n        /* \"--CODEGEN--\":36:40   */\n      0x60\n        /* \"--CODEGEN--\":31:40   */\n      swap2\n      pop\n        /* \"--CODEGEN--\":7:249   */\n    tag_250:\n      pop\n        /* \"openzeppelin-solidity-2.3.0/contracts/token/ERC20/SafeERC20.sol\":3415:3482  (bool success, bytes memory returndata) = address(token).call(data) */\n      swap2\n      pop\n      swap2\n      pop\n        /* \"openzeppelin-solidity-2.3.0/contracts/token/ERC20/SafeERC20.sol\":3501:3508  success */\n      dup2\n        /* \"openzeppelin-solidity-2.3.0/contracts/token/ERC20/SafeERC20.sol\":3493:3545  require(success, \"SafeERC20: low-level call failed\") */\n      tag_252\n      jumpi\n      mload(0x40)\n      0x08c379a000000000000000000000000000000000000000000000000000000000\n      dup2\n      mstore\n      0x04\n      add\n      dup1\n      dup1\n      0x20\n      add\n      dup3\n      dup2\n      sub\n      dup3\n      mstore\n      0x20\n      dup2\n      mstore\n      0x20\n      add\n      dup1\n      0x5361666545524332303a206c6f772d6c6576656c2063616c6c206661696c6564\n      dup2\n      mstore\n      pop\n      0x20\n      add\n      swap2\n      pop\n      pop\n      mload(0x40)\n      dup1\n      swap2\n      sub\n      swap1\n      revert\n    tag_252:\n        /* \"openzeppelin-solidity-2.3.0/contracts/token/ERC20/SafeERC20.sol\":3582:3583  0 */\n      0x00\n        /* \"openzeppelin-solidity-2.3.0/contracts/token/ERC20/SafeERC20.sol\":3562:3572  returndata */\n      dup2\n        /* \"openzeppelin-solidity-2.3.0/contracts/token/ERC20/SafeERC20.sol\":3562:3579  returndata.length */\n      mload\n        /* \"openzeppelin-solidity-2.3.0/contracts/token/ERC20/SafeERC20.sol\":3562:3583  returndata.length > 0 */\n      gt\n        /* \"openzeppelin-solidity-2.3.0/contracts/token/ERC20/SafeERC20.sol\":3558:3782  if (returndata.length > 0) { // Return data is optional\r... */\n      iszero\n      tag_253\n      jumpi\n        /* \"openzeppelin-solidity-2.3.0/contracts/token/ERC20/SafeERC20.sol\":3704:3714  returndata */\n      dup1\n        /* \"openzeppelin-solidity-2.3.0/contracts/token/ERC20/SafeERC20.sol\":3693:3723  abi.decode(returndata, (bool)) */\n      dup1\n      0x20\n      add\n      swap1\n      mload\n        /* \"--CODEGEN--\":13:15   */\n      0x20\n        /* \"--CODEGEN--\":8:11   */\n      dup2\n        /* \"--CODEGEN--\":5:16   */\n      lt\n        /* \"--CODEGEN--\":2:4   */\n      iszero\n      tag_254\n      jumpi\n        /* \"--CODEGEN--\":29:30   */\n      0x00\n        /* \"--CODEGEN--\":26:27   */\n      dup1\n        /* \"--CODEGEN--\":19:31   */\n      revert\n        /* \"--CODEGEN--\":2:4   */\n    tag_254:\n        /* \"openzeppelin-solidity-2.3.0/contracts/token/ERC20/SafeERC20.sol\":3693:3723  abi.decode(returndata, (bool)) */\n      dup2\n      add\n      swap1\n      dup1\n      dup1\n      mload\n      swap1\n      0x20\n      add\n      swap1\n      swap3\n      swap2\n      swap1\n      pop\n      pop\n      pop\n        /* \"openzeppelin-solidity-2.3.0/contracts/token/ERC20/SafeERC20.sol\":3685:3770  require(abi.decode(returndata, (bool)), \"SafeERC20: ERC20 operation did not succeed\") */\n      tag_255\n      jumpi\n      mload(0x40)\n      0x08c379a000000000000000000000000000000000000000000000000000000000\n      dup2\n      mstore\n      0x04\n      add\n      dup1\n      dup1\n      0x20\n      add\n      dup3\n      dup2\n      sub\n      dup3\n      mstore\n      0x2a\n      dup2\n      mstore\n      0x20\n      add\n      dup1\n      data_e11ad79d1e4a7f2e5f376964cb99e8e8f7904e3fc16a109f7a7ecb9aa7956dcd\n      0x2a\n      swap2\n      codecopy\n      0x40\n      add\n      swap2\n      pop\n      pop\n      mload(0x40)\n      dup1\n      swap2\n      sub\n      swap1\n      revert\n    tag_255:\n        /* \"openzeppelin-solidity-2.3.0/contracts/token/ERC20/SafeERC20.sol\":3558:3782  if (returndata.length > 0) { // Return data is optional\r... */\n    tag_253:\n        /* \"openzeppelin-solidity-2.3.0/contracts/token/ERC20/SafeERC20.sol\":2675:3789  function callOptionalReturn(IERC20 token, bytes memory data) private {\r... */\n      pop\n      pop\n      pop\n      pop\n      jump\t// out\n        /* \"openzeppelin-solidity-2.3.0/contracts/utils/Address.sol\":558:980  function isContract(address account) internal view returns (bool) {\r... */\n    tag_245:\n        /* \"openzeppelin-solidity-2.3.0/contracts/utils/Address.sol\":618:622  bool */\n      0x00\n        /* \"openzeppelin-solidity-2.3.0/contracts/utils/Address.sol\":826:838  uint256 size */\n      dup1\n        /* \"openzeppelin-solidity-2.3.0/contracts/utils/Address.sol\":937:944  account */\n      dup3\n        /* \"openzeppelin-solidity-2.3.0/contracts/utils/Address.sol\":925:945  extcodesize(account) */\n      extcodesize\n        /* \"openzeppelin-solidity-2.3.0/contracts/utils/Address.sol\":917:945  size := extcodesize(account) */\n      swap1\n      pop\n        /* \"openzeppelin-solidity-2.3.0/contracts/utils/Address.sol\":971:972  0 */\n      0x00\n        /* \"openzeppelin-solidity-2.3.0/contracts/utils/Address.sol\":964:968  size */\n      dup2\n        /* \"openzeppelin-solidity-2.3.0/contracts/utils/Address.sol\":964:972  size > 0 */\n      gt\n        /* \"openzeppelin-solidity-2.3.0/contracts/utils/Address.sol\":957:972  return size > 0 */\n      swap2\n      pop\n      pop\n        /* \"openzeppelin-solidity-2.3.0/contracts/utils/Address.sol\":558:980  function isContract(address account) internal view returns (bool) {\r... */\n      swap2\n      swap1\n      pop\n      jump\t// out\n    stop\n    data_07f2725172f5941b576a01ec7036d341e0c837e280f27b110cb3e6fd2f2c4a56 50726576696f7573207265776172647320706572696f64206d75737420626520636f6d706c657465206265666f7265206368616e67696e6720746865206475726174696f6e20666f7220746865206e657720706572696f64\n    data_1149e36cd24095bebc9341ef03810e0e2a00039190624df6f2d7934141e2233b 596f75206d757374206265206e6f6d696e61746564206265666f726520796f752063616e20616363657074206f776e657273686970\n    data_873d2051b76e0142b287297afdfc273bf1ab5c24ee229ed4ef117f1ff0679a4a 4f6e6c792074686520636f6e7472616374206f776e6572206d617920706572666f726d207468697320616374696f6e\n    data_9113bb53c2876a3805b2c9242029423fc540a728243ce887ab24c82cf119fba3 536166654d6174683a206d756c7469706c69636174696f6e206f766572666c6f77\n    data_b214273cdb244871f55e1966d43ad7febce81860c609dda0e226c7c1b7959d6f 5468697320616374696f6e2063616e6e6f7420626520706572666f726d6564207768696c652074686520636f6e747261637420697320706175736564\n    data_d50b095422f4cbfcb4c90fbd4d55aaf0967bf1d90e94bb6a1ae9fc4ee7e733de 43616c6c6572206973206e6f742052657761726473446973747269627574696f6e20636f6e7472616374\n    data_e11ad79d1e4a7f2e5f376964cb99e8e8f7904e3fc16a109f7a7ecb9aa7956dcd 5361666545524332303a204552433230206f7065726174696f6e20646964206e6f742073756363656564\n    data_f43de9f2a3539b2ac9cf1844588e9cc0acd1b2bdb1ec43734f76440993ede0a9 43616e6e6f7420776974686472617720746865207374616b696e6720746f6b656e\n\n    auxdata: 0xa265627a7a7231582006e94228cee1c056a7c52d7d287a7a59b0962bdf14a3600cb664e2cdc13b6e6264736f6c63430005100032\n}\n",
				"bytecode": {
					"linkReferences": {},
					"object": "60806040526000600755600060085562093a8060095534801561002157600080fd5b50604051612b24380380612b248339818101604052608081101561004457600080fd5b810190808051906020019092919080519060200190929190805190602001909291908051906020019092919050505083600073ffffffffffffffffffffffffffffffffffffffff168173ffffffffffffffffffffffffffffffffffffffff161415610117576040517f08c379a00000000000000000000000000000000000000000000000000000000081526004018080602001828103825260198152602001807f4f776e657220616464726573732063616e6e6f7420626520300000000000000081525060200191505060405180910390fd5b806000806101000a81548173ffffffffffffffffffffffffffffffffffffffff021916908373ffffffffffffffffffffffffffffffffffffffff1602179055507fb532073b38c83145e3e5135377a08bf9aab55bc0fd7c1179cd4fb995d2a5159c600082604051808373ffffffffffffffffffffffffffffffffffffffff1673ffffffffffffffffffffffffffffffffffffffff1681526020018273ffffffffffffffffffffffffffffffffffffffff1673ffffffffffffffffffffffffffffffffffffffff1681526020019250505060405180910390a1506001600381905550600073ffffffffffffffffffffffffffffffffffffffff166000809054906101000a900473ffffffffffffffffffffffffffffffffffffffff1673ffffffffffffffffffffffffffffffffffffffff1614156102bc576040517f08c379a00000000000000000000000000000000000000000000000000000000081526004018080602001828103825260118152602001807f4f776e6572206d7573742062652073657400000000000000000000000000000081525060200191505060405180910390fd5b81600560016101000a81548173ffffffffffffffffffffffffffffffffffffffff021916908373ffffffffffffffffffffffffffffffffffffffff16021790555080600660006101000a81548173ffffffffffffffffffffffffffffffffffffffff021916908373ffffffffffffffffffffffffffffffffffffffff16021790555082600260006101000a81548173ffffffffffffffffffffffffffffffffffffffff021916908373ffffffffffffffffffffffffffffffffffffffff16021790555050505050612792806103926000396000f3fe608060405234801561001057600080fd5b50600436106101e45760003560e01c806372f702f31161010f578063a694fc3a116100a2578063d1af0c7d11610071578063d1af0c7d14610755578063df136d651461079f578063e9fad8ee146107bd578063ebe2b12b146107c7576101e4565b8063a694fc3a146106bd578063c8f33c91146106eb578063cc1a378f14610709578063cd3daf9d14610737576101e4565b80638980f11f116100de5780638980f11f146105af5780638b876347146105fd5780638da5cb5b1461065557806391b4ded91461069f576101e4565b806372f702f31461051f57806379ba5097146105695780637b0a47ee1461057357806380faa57d14610591576101e4565b80632e1a7d4d116101875780633fc6df6e116101565780633fc6df6e1461041157806353a47bb71461045b5780635c975abb146104a557806370a08231146104c7576101e4565b80632e1a7d4d1461038d578063386a9525146103bb5780633c6b16ab146103d95780633d18b91214610407576101e4565b806316c38b3c116101c357806316c38b3c146102dd57806318160ddd1461030d578063197621431461032b5780631c1f78eb1461036f576101e4565b80628cc262146101e95780630700037d146102415780631627540c14610299575b600080fd5b61022b600480360360208110156101ff57600080fd5b81019080803573ffffffffffffffffffffffffffffffffffffffff1690602001909291905050506107e5565b6040518082815260200191505060405180910390f35b6102836004803603602081101561025757600080fd5b81019080803573ffffffffffffffffffffffffffffffffffffffff169060200190929190505050610903565b6040518082815260200191505060405180910390f35b6102db600480360360208110156102af57600080fd5b81019080803573ffffffffffffffffffffffffffffffffffffffff16906020019092919050505061091b565b005b61030b600480360360208110156102f357600080fd5b810190808035151590602001909291905050506109ca565b005b610315610a77565b6040518082815260200191505060405180910390f35b61036d6004803603602081101561034157600080fd5b81019080803573ffffffffffffffffffffffffffffffffffffffff169060200190929190505050610a81565b005b610377610acd565b6040518082815260200191505060405180910390f35b6103b9600480360360208110156103a357600080fd5b8101908080359060200190929190505050610aeb565b005b6103c3610e24565b6040518082815260200191505060405180910390f35b610405600480360360208110156103ef57600080fd5b8101908080359060200190929190505050610e2a565b005b61040f611208565b005b6104196114ae565b604051808273ffffffffffffffffffffffffffffffffffffffff1673ffffffffffffffffffffffffffffffffffffffff16815260200191505060405180910390f35b6104636114d4565b604051808273ffffffffffffffffffffffffffffffffffffffff1673ffffffffffffffffffffffffffffffffffffffff16815260200191505060405180910390f35b6104ad6114fa565b604051808215151515815260200191505060405180910390f35b610509600480360360208110156104dd57600080fd5b81019080803573ffffffffffffffffffffffffffffffffffffffff16906020019092919050505061150d565b6040518082815260200191505060405180910390f35b610527611556565b604051808273ffffffffffffffffffffffffffffffffffffffff1673ffffffffffffffffffffffffffffffffffffffff16815260200191505060405180910390f35b61057161157c565b005b61057b6117a2565b6040518082815260200191505060405180910390f35b6105996117a8565b6040518082815260200191505060405180910390f35b6105fb600480360360408110156105c557600080fd5b81019080803573ffffffffffffffffffffffffffffffffffffffff169060200190929190803590602001909291905050506117c2565b005b61063f6004803603602081101561061357600080fd5b81019080803573ffffffffffffffffffffffffffffffffffffffff16906020019092919050505061192c565b6040518082815260200191505060405180910390f35b61065d611944565b604051808273ffffffffffffffffffffffffffffffffffffffff1673ffffffffffffffffffffffffffffffffffffffff16815260200191505060405180910390f35b6106a7611969565b6040518082815260200191505060405180910390f35b6106e9600480360360208110156106d357600080fd5b810190808035906020019092919050505061196f565b005b6106f3611d10565b6040518082815260200191505060405180910390f35b6107356004803603602081101561071f57600080fd5b8101908080359060200190929190505050611d16565b005b61073f611dbb565b6040518082815260200191505060405180910390f35b61075d611e49565b604051808273ffffffffffffffffffffffffffffffffffffffff1673ffffffffffffffffffffffffffffffffffffffff16815260200191505060405180910390f35b6107a7611e6f565b6040518082815260200191505060405180910390f35b6107c5611e75565b005b6107cf611ec7565b6040518082815260200191505060405180910390f35b60006108fc600d60008473ffffffffffffffffffffffffffffffffffffffff1673ffffffffffffffffffffffffffffffffffffffff168152602001908152602001600020546108ee670de0b6b3a76400006108e0610892600c60008973ffffffffffffffffffffffffffffffffffffffff1673ffffffffffffffffffffffffffffffffffffffff16815260200190815260200160002054610884611dbb565b611ecd90919063ffffffff16565b600f60008973ffffffffffffffffffffffffffffffffffffffff1673ffffffffffffffffffffffffffffffffffffffff16815260200190815260200160002054611f5690919063ffffffff16565b611fdc90919063ffffffff16565b61206b90919063ffffffff16565b9050919050565b600d6020528060005260406000206000915090505481565b6109236120f3565b80600160006101000a81548173ffffffffffffffffffffffffffffffffffffffff021916908373ffffffffffffffffffffffffffffffffffffffff1602179055507f906a1c6bd7e3091ea86693dd029a831c19049ce77f1dce2ce0bab1cacbabce2281604051808273ffffffffffffffffffffffffffffffffffffffff1673ffffffffffffffffffffffffffffffffffffffff16815260200191505060405180910390a150565b6109d26120f3565b600560009054906101000a900460ff16151581151514156109f257610a74565b80600560006101000a81548160ff021916908315150217905550600560009054906101000a900460ff1615610a2957426004819055505b7f8fb6c181ee25a520cf3dd6565006ef91229fcfe5a989566c2a3b8c115570cec5600560009054906101000a900460ff16604051808215151515815260200191505060405180910390a15b50565b6000600e54905090565b610a896120f3565b80600260006101000a81548173ffffffffffffffffffffffffffffffffffffffff021916908373ffffffffffffffffffffffffffffffffffffffff16021790555050565b6000610ae6600954600854611f5690919063ffffffff16565b905090565b60016003600082825401925050819055506000600354905033610b0c611dbb565b600b81905550610b1a6117a8565b600a81905550600073ffffffffffffffffffffffffffffffffffffffff168173ffffffffffffffffffffffffffffffffffffffff1614610be757610b5d816107e5565b600d60008373ffffffffffffffffffffffffffffffffffffffff1673ffffffffffffffffffffffffffffffffffffffff16815260200190815260200160002081905550600b54600c60008373ffffffffffffffffffffffffffffffffffffffff1673ffffffffffffffffffffffffffffffffffffffff168152602001908152602001600020819055505b60008311610c5d576040517f08c379a00000000000000000000000000000000000000000000000000000000081526004018080602001828103825260118152602001807f43616e6e6f74207769746864726177203000000000000000000000000000000081525060200191505060405180910390fd5b610c7283600e54611ecd90919063ffffffff16565b600e81905550610cca83600f60003373ffffffffffffffffffffffffffffffffffffffff1673ffffffffffffffffffffffffffffffffffffffff16815260200190815260200160002054611ecd90919063ffffffff16565b600f60003373ffffffffffffffffffffffffffffffffffffffff1673ffffffffffffffffffffffffffffffffffffffff16815260200190815260200160002081905550610d5a3384600660009054906101000a900473ffffffffffffffffffffffffffffffffffffffff1673ffffffffffffffffffffffffffffffffffffffff1661219a9092919063ffffffff16565b3373ffffffffffffffffffffffffffffffffffffffff167f7084f5476618d8e60b11ef0d7d3f06914655adb8793e28ff7f018d4c76d505d5846040518082815260200191505060405180910390a2506003548114610e20576040517f08c379a000000000000000000000000000000000000000000000000000000000815260040180806020018281038252601f8152602001807f5265656e7472616e637947756172643a207265656e7472616e742063616c6c0081525060200191505060405180910390fd5b5050565b60095481565b600260009054906101000a900473ffffffffffffffffffffffffffffffffffffffff1673ffffffffffffffffffffffffffffffffffffffff163373ffffffffffffffffffffffffffffffffffffffff1614610ed0576040517f08c379a000000000000000000000000000000000000000000000000000000000815260040180806020018281038252602a8152602001806126e9602a913960400191505060405180910390fd5b6000610eda611dbb565b600b81905550610ee86117a8565b600a81905550600073ffffffffffffffffffffffffffffffffffffffff168173ffffffffffffffffffffffffffffffffffffffff1614610fb557610f2b816107e5565b600d60008373ffffffffffffffffffffffffffffffffffffffff1673ffffffffffffffffffffffffffffffffffffffff16815260200190815260200160002081905550600b54600c60008373ffffffffffffffffffffffffffffffffffffffff1673ffffffffffffffffffffffffffffffffffffffff168152602001908152602001600020819055505b6007544210610fde57610fd360095483611fdc90919063ffffffff16565b600881905550611040565b6000610ff542600754611ecd90919063ffffffff16565b9050600061100e60085483611f5690919063ffffffff16565b9050611037600954611029838761206b90919063ffffffff16565b611fdc90919063ffffffff16565b60088190555050505b6000600560019054906101000a900473ffffffffffffffffffffffffffffffffffffffff1673ffffffffffffffffffffffffffffffffffffffff166370a08231306040518263ffffffff1660e01b8152600401808273ffffffffffffffffffffffffffffffffffffffff1673ffffffffffffffffffffffffffffffffffffffff16815260200191505060206040518083038186803b1580156110e157600080fd5b505afa1580156110f5573d6000803e3d6000fd5b505050506040513d602081101561110b57600080fd5b8101908080519060200190929190505050905061113360095482611fdc90919063ffffffff16565b60085411156111aa576040517f08c379a00000000000000000000000000000000000000000000000000000000081526004018080602001828103825260188152602001807f50726f76696465642072657761726420746f6f2068696768000000000000000081525060200191505060405180910390fd5b42600a819055506111c66009544261206b90919063ffffffff16565b6007819055507fde88a922e0d3b88b24e9623efeb464919c6bf9f66857a65e2bfcf2ce87a9433d836040518082815260200191505060405180910390a1505050565b60016003600082825401925050819055506000600354905033611229611dbb565b600b819055506112376117a8565b600a81905550600073ffffffffffffffffffffffffffffffffffffffff168173ffffffffffffffffffffffffffffffffffffffff16146113045761127a816107e5565b600d60008373ffffffffffffffffffffffffffffffffffffffff1673ffffffffffffffffffffffffffffffffffffffff16815260200190815260200160002081905550600b54600c60008373ffffffffffffffffffffffffffffffffffffffff1673ffffffffffffffffffffffffffffffffffffffff168152602001908152602001600020819055505b6000600d60003373ffffffffffffffffffffffffffffffffffffffff1673ffffffffffffffffffffffffffffffffffffffff1681526020019081526020016000205490506000811115611432576000600d60003373ffffffffffffffffffffffffffffffffffffffff1673ffffffffffffffffffffffffffffffffffffffff168152602001908152602001600020819055506113e33382600560019054906101000a900473ffffffffffffffffffffffffffffffffffffffff1673ffffffffffffffffffffffffffffffffffffffff1661219a9092919063ffffffff16565b3373ffffffffffffffffffffffffffffffffffffffff167fe2403640ba68fed3a2f88b7557551d1993f84b99bb10ff833f0cf8db0c5e0486826040518082815260200191505060405180910390a25b505060035481146114ab576040517f08c379a000000000000000000000000000000000000000000000000000000000815260040180806020018281038252601f8152602001807f5265656e7472616e637947756172643a207265656e7472616e742063616c6c0081525060200191505060405180910390fd5b50565b600260009054906101000a900473ffffffffffffffffffffffffffffffffffffffff1681565b600160009054906101000a900473ffffffffffffffffffffffffffffffffffffffff1681565b600560009054906101000a900460ff1681565b6000600f60008373ffffffffffffffffffffffffffffffffffffffff1673ffffffffffffffffffffffffffffffffffffffff168152602001908152602001600020549050919050565b600660009054906101000a900473ffffffffffffffffffffffffffffffffffffffff1681565b600160009054906101000a900473ffffffffffffffffffffffffffffffffffffffff1673ffffffffffffffffffffffffffffffffffffffff163373ffffffffffffffffffffffffffffffffffffffff1614611622576040517f08c379a00000000000000000000000000000000000000000000000000000000081526004018080602001828103825260358152602001806126286035913960400191505060405180910390fd5b7fb532073b38c83145e3e5135377a08bf9aab55bc0fd7c1179cd4fb995d2a5159c6000809054906101000a900473ffffffffffffffffffffffffffffffffffffffff16600160009054906101000a900473ffffffffffffffffffffffffffffffffffffffff16604051808373ffffffffffffffffffffffffffffffffffffffff1673ffffffffffffffffffffffffffffffffffffffff1681526020018273ffffffffffffffffffffffffffffffffffffffff1673ffffffffffffffffffffffffffffffffffffffff1681526020019250505060405180910390a1600160009054906101000a900473ffffffffffffffffffffffffffffffffffffffff166000806101000a81548173ffffffffffffffffffffffffffffffffffffffff021916908373ffffffffffffffffffffffffffffffffffffffff1602179055506000600160006101000a81548173ffffffffffffffffffffffffffffffffffffffff021916908373ffffffffffffffffffffffffffffffffffffffff160217905550565b60085481565b600060075442106117bb576007546117bd565b425b905090565b6117ca6120f3565b600660009054906101000a900473ffffffffffffffffffffffffffffffffffffffff1673ffffffffffffffffffffffffffffffffffffffff168273ffffffffffffffffffffffffffffffffffffffff161415611871576040517f08c379a000000000000000000000000000000000000000000000000000000000815260040180806020018281038252602181526020018061273d6021913960400191505060405180910390fd5b6118bd6000809054906101000a900473ffffffffffffffffffffffffffffffffffffffff16828473ffffffffffffffffffffffffffffffffffffffff1661219a9092919063ffffffff16565b7f8c1256b8896378cd5044f80c202f9772b9d77dc85c8a6eb51967210b09bfaa288282604051808373ffffffffffffffffffffffffffffffffffffffff1673ffffffffffffffffffffffffffffffffffffffff1681526020018281526020019250505060405180910390a15050565b600c6020528060005260406000206000915090505481565b6000809054906101000a900473ffffffffffffffffffffffffffffffffffffffff1681565b60045481565b600160036000828254019250508190555060006003549050600560009054906101000a900460ff16156119ed576040517f08c379a000000000000000000000000000000000000000000000000000000000815260040180806020018281038252603c8152602001806126ad603c913960400191505060405180910390fd5b336119f6611dbb565b600b81905550611a046117a8565b600a81905550600073ffffffffffffffffffffffffffffffffffffffff168173ffffffffffffffffffffffffffffffffffffffff1614611ad157611a47816107e5565b600d60008373ffffffffffffffffffffffffffffffffffffffff1673ffffffffffffffffffffffffffffffffffffffff16815260200190815260200160002081905550600b54600c60008373ffffffffffffffffffffffffffffffffffffffff1673ffffffffffffffffffffffffffffffffffffffff168152602001908152602001600020819055505b60008311611b47576040517f08c379a000000000000000000000000000000000000000000000000000000000815260040180806020018281038252600e8152602001807f43616e6e6f74207374616b65203000000000000000000000000000000000000081525060200191505060405180910390fd5b611b5c83600e5461206b90919063ffffffff16565b600e81905550611bb483600f60003373ffffffffffffffffffffffffffffffffffffffff1673ffffffffffffffffffffffffffffffffffffffff1681526020019081526020016000205461206b90919063ffffffff16565b600f60003373ffffffffffffffffffffffffffffffffffffffff1673ffffffffffffffffffffffffffffffffffffffff16815260200190815260200160002081905550611c46333085600660009054906101000a900473ffffffffffffffffffffffffffffffffffffffff1673ffffffffffffffffffffffffffffffffffffffff1661226b909392919063ffffffff16565b3373ffffffffffffffffffffffffffffffffffffffff167f9e71bc8eea02a63969f509818f2dafb9254532904319f9dbda79b67bd34a5f3d846040518082815260200191505060405180910390a2506003548114611d0c576040517f08c379a000000000000000000000000000000000000000000000000000000000815260040180806020018281038252601f8152602001807f5265656e7472616e637947756172643a207265656e7472616e742063616c6c0081525060200191505060405180910390fd5b5050565b600a5481565b611d1e6120f3565b6007544211611d78576040517f08c379a00000000000000000000000000000000000000000000000000000000081526004018080602001828103825260588152602001806125d06058913960600191505060405180910390fd5b806009819055507ffb46ca5a5e06d4540d6387b930a7c978bce0db5f449ec6b3f5d07c6e1d44f2d36009546040518082815260200191505060405180910390a150565b600080600e541415611dd157600b549050611e46565b611e43611e32600e54611e24670de0b6b3a7640000611e16600854611e08600a54611dfa6117a8565b611ecd90919063ffffffff16565b611f5690919063ffffffff16565b611f5690919063ffffffff16565b611fdc90919063ffffffff16565b600b5461206b90919063ffffffff16565b90505b90565b600560019054906101000a900473ffffffffffffffffffffffffffffffffffffffff1681565b600b5481565b611ebd600f60003373ffffffffffffffffffffffffffffffffffffffff1673ffffffffffffffffffffffffffffffffffffffff16815260200190815260200160002054610aeb565b611ec5611208565b565b60075481565b600082821115611f45576040517f08c379a000000000000000000000000000000000000000000000000000000000815260040180806020018281038252601e8152602001807f536166654d6174683a207375627472616374696f6e206f766572666c6f77000081525060200191505060405180910390fd5b600082840390508091505092915050565b600080831415611f695760009050611fd6565b6000828402905082848281611f7a57fe5b0414611fd1576040517f08c379a000000000000000000000000000000000000000000000000000000000815260040180806020018281038252602181526020018061268c6021913960400191505060405180910390fd5b809150505b92915050565b6000808211612053576040517f08c379a000000000000000000000000000000000000000000000000000000000815260040180806020018281038252601a8152602001807f536166654d6174683a206469766973696f6e206279207a65726f00000000000081525060200191505060405180910390fd5b600082848161205e57fe5b0490508091505092915050565b6000808284019050838110156120e9576040517f08c379a000000000000000000000000000000000000000000000000000000000815260040180806020018281038252601b8152602001807f536166654d6174683a206164646974696f6e206f766572666c6f77000000000081525060200191505060405180910390fd5b8091505092915050565b6000809054906101000a900473ffffffffffffffffffffffffffffffffffffffff1673ffffffffffffffffffffffffffffffffffffffff163373ffffffffffffffffffffffffffffffffffffffff1614612198576040517f08c379a000000000000000000000000000000000000000000000000000000000815260040180806020018281038252602f81526020018061265d602f913960400191505060405180910390fd5b565b612266838473ffffffffffffffffffffffffffffffffffffffff1663a9059cbb905060e01b8484604051602401808373ffffffffffffffffffffffffffffffffffffffff1673ffffffffffffffffffffffffffffffffffffffff16815260200182815260200192505050604051602081830303815290604052907bffffffffffffffffffffffffffffffffffffffffffffffffffffffff19166020820180517bffffffffffffffffffffffffffffffffffffffffffffffffffffffff8381831617835250505050612371565b505050565b61236b848573ffffffffffffffffffffffffffffffffffffffff166323b872dd905060e01b858585604051602401808473ffffffffffffffffffffffffffffffffffffffff1673ffffffffffffffffffffffffffffffffffffffff1681526020018373ffffffffffffffffffffffffffffffffffffffff1673ffffffffffffffffffffffffffffffffffffffff1681526020018281526020019350505050604051602081830303815290604052907bffffffffffffffffffffffffffffffffffffffffffffffffffffffff19166020820180517bffffffffffffffffffffffffffffffffffffffffffffffffffffffff8381831617835250505050612371565b50505050565b6123908273ffffffffffffffffffffffffffffffffffffffff166125bc565b612402576040517f08c379a000000000000000000000000000000000000000000000000000000000815260040180806020018281038252601f8152602001807f5361666545524332303a2063616c6c20746f206e6f6e2d636f6e74726163740081525060200191505060405180910390fd5b600060608373ffffffffffffffffffffffffffffffffffffffff16836040518082805190602001908083835b60208310612451578051825260208201915060208101905060208303925061242e565b6001836020036101000a0380198251168184511680821785525050505050509050019150506000604051808303816000865af19150503d80600081146124b3576040519150601f19603f3d011682016040523d82523d6000602084013e6124b8565b606091505b509150915081612530576040517f08c379a00000000000000000000000000000000000000000000000000000000081526004018080602001828103825260208152602001807f5361666545524332303a206c6f772d6c6576656c2063616c6c206661696c656481525060200191505060405180910390fd5b6000815111156125b65780806020019051602081101561254f57600080fd5b81019080805190602001909291905050506125b5576040517f08c379a000000000000000000000000000000000000000000000000000000000815260040180806020018281038252602a815260200180612713602a913960400191505060405180910390fd5b5b50505050565b600080823b90506000811191505091905056fe50726576696f7573207265776172647320706572696f64206d75737420626520636f6d706c657465206265666f7265206368616e67696e6720746865206475726174696f6e20666f7220746865206e657720706572696f64596f75206d757374206265206e6f6d696e61746564206265666f726520796f752063616e20616363657074206f776e6572736869704f6e6c792074686520636f6e7472616374206f776e6572206d617920706572666f726d207468697320616374696f6e536166654d6174683a206d756c7469706c69636174696f6e206f766572666c6f775468697320616374696f6e2063616e6e6f7420626520706572666f726d6564207768696c652074686520636f6e74726163742069732070617573656443616c6c6572206973206e6f742052657761726473446973747269627574696f6e20636f6e74726163745361666545524332303a204552433230206f7065726174696f6e20646964206e6f74207375636365656443616e6e6f7420776974686472617720746865207374616b696e6720746f6b656ea265627a7a7231582006e94228cee1c056a7c52d7d287a7a59b0962bdf14a3600cb664e2cdc13b6e6264736f6c63430005100032",
					"opcodes": "PUSH1 0x80 PUSH1 0x40 MSTORE PUSH1 0x0 PUSH1 0x7 SSTORE PUSH1 0x0 PUSH1 0x8 SSTORE PUSH3 0x93A80 PUSH1 0x9 SSTORE CALLVALUE DUP1 ISZERO PUSH2 0x21 JUMPI PUSH1 0x0 DUP1 REVERT JUMPDEST POP PUSH1 0x40 MLOAD PUSH2 0x2B24 CODESIZE SUB DUP1 PUSH2 0x2B24 DUP4 CODECOPY DUP2 DUP2 ADD PUSH1 0x40 MSTORE PUSH1 0x80 DUP2 LT ISZERO PUSH2 0x44 JUMPI PUSH1 0x0 DUP1 REVERT JUMPDEST DUP2 ADD SWAP1 DUP1 DUP1 MLOAD SWAP1 PUSH1 0x20 ADD SWAP1 SWAP3 SWAP2 SWAP1 DUP1 MLOAD SWAP1 PUSH1 0x20 ADD SWAP1 SWAP3 SWAP2 SWAP1 DUP1 MLOAD SWAP1 PUSH1 0x20 ADD SWAP1 SWAP3 SWAP2 SWAP1 DUP1 MLOAD SWAP1 PUSH1 0x20 ADD SWAP1 SWAP3 SWAP2 SWAP1 POP POP POP DUP4 PUSH1 0x0 PUSH20 0xFFFFFFFFFFFFFFFFFFFFFFFFFFFFFFFFFFFFFFFF AND DUP2 PUSH20 0xFFFFFFFFFFFFFFFFFFFFFFFFFFFFFFFFFFFFFFFF AND EQ ISZERO PUSH2 0x117 JUMPI PUSH1 0x40 MLOAD PUSH32 0x8C379A000000000000000000000000000000000000000000000000000000000 DUP2 MSTORE PUSH1 0x4 ADD DUP1 DUP1 PUSH1 0x20 ADD DUP3 DUP2 SUB DUP3 MSTORE PUSH1 0x19 DUP2 MSTORE PUSH1 0x20 ADD DUP1 PUSH32 0x4F776E657220616464726573732063616E6E6F74206265203000000000000000 DUP2 MSTORE POP PUSH1 0x20 ADD SWAP2 POP POP PUSH1 0x40 MLOAD DUP1 SWAP2 SUB SWAP1 REVERT JUMPDEST DUP1 PUSH1 0x0 DUP1 PUSH2 0x100 EXP DUP2 SLOAD DUP2 PUSH20 0xFFFFFFFFFFFFFFFFFFFFFFFFFFFFFFFFFFFFFFFF MUL NOT AND SWAP1 DUP4 PUSH20 0xFFFFFFFFFFFFFFFFFFFFFFFFFFFFFFFFFFFFFFFF AND MUL OR SWAP1 SSTORE POP PUSH32 0xB532073B38C83145E3E5135377A08BF9AAB55BC0FD7C1179CD4FB995D2A5159C PUSH1 0x0 DUP3 PUSH1 0x40 MLOAD DUP1 DUP4 PUSH20 0xFFFFFFFFFFFFFFFFFFFFFFFFFFFFFFFFFFFFFFFF AND PUSH20 0xFFFFFFFFFFFFFFFFFFFFFFFFFFFFFFFFFFFFFFFF AND DUP2 MSTORE PUSH1 0x20 ADD DUP3 PUSH20 0xFFFFFFFFFFFFFFFFFFFFFFFFFFFFFFFFFFFFFFFF AND PUSH20 0xFFFFFFFFFFFFFFFFFFFFFFFFFFFFFFFFFFFFFFFF AND DUP2 MSTORE PUSH1 0x20 ADD SWAP3 POP POP POP PUSH1 0x40 MLOAD DUP1 SWAP2 SUB SWAP1 LOG1 POP PUSH1 0x1 PUSH1 0x3 DUP2 SWAP1 SSTORE POP PUSH1 0x0 PUSH20 0xFFFFFFFFFFFFFFFFFFFFFFFFFFFFFFFFFFFFFFFF AND PUSH1 0x0 DUP1 SWAP1 SLOAD SWAP1 PUSH2 0x100 EXP SWAP1 DIV PUSH20 0xFFFFFFFFFFFFFFFFFFFFFFFFFFFFFFFFFFFFFFFF AND PUSH20 0xFFFFFFFFFFFFFFFFFFFFFFFFFFFFFFFFFFFFFFFF AND EQ ISZERO PUSH2 0x2BC JUMPI PUSH1 0x40 MLOAD PUSH32 0x8C379A000000000000000000000000000000000000000000000000000000000 DUP2 MSTORE PUSH1 0x4 ADD DUP1 DUP1 PUSH1 0x20 ADD DUP3 DUP2 SUB DUP3 MSTORE PUSH1 0x11 DUP2 MSTORE PUSH1 0x20 ADD DUP1 PUSH32 0x4F776E6572206D75737420626520736574000000000000000000000000000000 DUP2 MSTORE POP PUSH1 0x20 ADD SWAP2 POP POP PUSH1 0x40 MLOAD DUP1 SWAP2 SUB SWAP1 REVERT JUMPDEST DUP2 PUSH1 0x5 PUSH1 0x1 PUSH2 0x100 EXP DUP2 SLOAD DUP2 PUSH20 0xFFFFFFFFFFFFFFFFFFFFFFFFFFFFFFFFFFFFFFFF MUL NOT AND SWAP1 DUP4 PUSH20 0xFFFFFFFFFFFFFFFFFFFFFFFFFFFFFFFFFFFFFFFF AND MUL OR SWAP1 SSTORE POP DUP1 PUSH1 0x6 PUSH1 0x0 PUSH2 0x100 EXP DUP2 SLOAD DUP2 PUSH20 0xFFFFFFFFFFFFFFFFFFFFFFFFFFFFFFFFFFFFFFFF MUL NOT AND SWAP1 DUP4 PUSH20 0xFFFFFFFFFFFFFFFFFFFFFFFFFFFFFFFFFFFFFFFF AND MUL OR SWAP1 SSTORE POP DUP3 PUSH1 0x2 PUSH1 0x0 PUSH2 0x100 EXP DUP2 SLOAD DUP2 PUSH20 0xFFFFFFFFFFFFFFFFFFFFFFFFFFFFFFFFFFFFFFFF MUL NOT AND SWAP1 DUP4 PUSH20 0xFFFFFFFFFFFFFFFFFFFFFFFFFFFFFFFFFFFFFFFF AND MUL OR SWAP1 SSTORE POP POP POP POP POP PUSH2 0x2792 DUP1 PUSH2 0x392 PUSH1 0x0 CODECOPY PUSH1 0x0 RETURN INVALID PUSH1 0x80 PUSH1 0x40 MSTORE CALLVALUE DUP1 ISZERO PUSH2 0x10 JUMPI PUSH1 0x0 DUP1 REVERT JUMPDEST POP PUSH1 0x4 CALLDATASIZE LT PUSH2 0x1E4 JUMPI PUSH1 0x0 CALLDATALOAD PUSH1 0xE0 SHR DUP1 PUSH4 0x72F702F3 GT PUSH2 0x10F JUMPI DUP1 PUSH4 0xA694FC3A GT PUSH2 0xA2 JUMPI DUP1 PUSH4 0xD1AF0C7D GT PUSH2 0x71 JUMPI DUP1 PUSH4 0xD1AF0C7D EQ PUSH2 0x755 JUMPI DUP1 PUSH4 0xDF136D65 EQ PUSH2 0x79F JUMPI DUP1 PUSH4 0xE9FAD8EE EQ PUSH2 0x7BD JUMPI DUP1 PUSH4 0xEBE2B12B EQ PUSH2 0x7C7 JUMPI PUSH2 0x1E4 JUMP JUMPDEST DUP1 PUSH4 0xA694FC3A EQ PUSH2 0x6BD JUMPI DUP1 PUSH4 0xC8F33C91 EQ PUSH2 0x6EB JUMPI DUP1 PUSH4 0xCC1A378F EQ PUSH2 0x709 JUMPI DUP1 PUSH4 0xCD3DAF9D EQ PUSH2 0x737 JUMPI PUSH2 0x1E4 JUMP JUMPDEST DUP1 PUSH4 0x8980F11F GT PUSH2 0xDE JUMPI DUP1 PUSH4 0x8980F11F EQ PUSH2 0x5AF JUMPI DUP1 PUSH4 0x8B876347 EQ PUSH2 0x5FD JUMPI DUP1 PUSH4 0x8DA5CB5B EQ PUSH2 0x655 JUMPI DUP1 PUSH4 0x91B4DED9 EQ PUSH2 0x69F JUMPI PUSH2 0x1E4 JUMP JUMPDEST DUP1 PUSH4 0x72F702F3 EQ PUSH2 0x51F JUMPI DUP1 PUSH4 0x79BA5097 EQ PUSH2 0x569 JUMPI DUP1 PUSH4 0x7B0A47EE EQ PUSH2 0x573 JUMPI DUP1 PUSH4 0x80FAA57D EQ PUSH2 0x591 JUMPI PUSH2 0x1E4 JUMP JUMPDEST DUP1 PUSH4 0x2E1A7D4D GT PUSH2 0x187 JUMPI DUP1 PUSH4 0x3FC6DF6E GT PUSH2 0x156 JUMPI DUP1 PUSH4 0x3FC6DF6E EQ PUSH2 0x411 JUMPI DUP1 PUSH4 0x53A47BB7 EQ PUSH2 0x45B JUMPI DUP1 PUSH4 0x5C975ABB EQ PUSH2 0x4A5 JUMPI DUP1 PUSH4 0x70A08231 EQ PUSH2 0x4C7 JUMPI PUSH2 0x1E4 JUMP JUMPDEST DUP1 PUSH4 0x2E1A7D4D EQ PUSH2 0x38D JUMPI DUP1 PUSH4 0x386A9525 EQ PUSH2 0x3BB JUMPI DUP1 PUSH4 0x3C6B16AB EQ PUSH2 0x3D9 JUMPI DUP1 PUSH4 0x3D18B912 EQ PUSH2 0x407 JUMPI PUSH2 0x1E4 JUMP JUMPDEST DUP1 PUSH4 0x16C38B3C GT PUSH2 0x1C3 JUMPI DUP1 PUSH4 0x16C38B3C EQ PUSH2 0x2DD JUMPI DUP1 PUSH4 0x18160DDD EQ PUSH2 0x30D JUMPI DUP1 PUSH4 0x19762143 EQ PUSH2 0x32B JUMPI DUP1 PUSH4 0x1C1F78EB EQ PUSH2 0x36F JUMPI PUSH2 0x1E4 JUMP JUMPDEST DUP1 PUSH3 0x8CC262 EQ PUSH2 0x1E9 JUMPI DUP1 PUSH4 0x700037D EQ PUSH2 0x241 JUMPI DUP1 PUSH4 0x1627540C EQ PUSH2 0x299 JUMPI JUMPDEST PUSH1 0x0 DUP1 REVERT JUMPDEST PUSH2 0x22B PUSH1 0x4 DUP1 CALLDATASIZE SUB PUSH1 0x20 DUP2 LT ISZERO PUSH2 0x1FF JUMPI PUSH1 0x0 DUP1 REVERT JUMPDEST DUP2 ADD SWAP1 DUP1 DUP1 CALLDATALOAD PUSH20 0xFFFFFFFFFFFFFFFFFFFFFFFFFFFFFFFFFFFFFFFF AND SWAP1 PUSH1 0x20 ADD SWAP1 SWAP3 SWAP2 SWAP1 POP POP POP PUSH2 0x7E5 JUMP JUMPDEST PUSH1 0x40 MLOAD DUP1 DUP3 DUP2 MSTORE PUSH1 0x20 ADD SWAP2 POP POP PUSH1 0x40 MLOAD DUP1 SWAP2 SUB SWAP1 RETURN JUMPDEST PUSH2 0x283 PUSH1 0x4 DUP1 CALLDATASIZE SUB PUSH1 0x20 DUP2 LT ISZERO PUSH2 0x257 JUMPI PUSH1 0x0 DUP1 REVERT JUMPDEST DUP2 ADD SWAP1 DUP1 DUP1 CALLDATALOAD PUSH20 0xFFFFFFFFFFFFFFFFFFFFFFFFFFFFFFFFFFFFFFFF AND SWAP1 PUSH1 0x20 ADD SWAP1 SWAP3 SWAP2 SWAP1 POP POP POP PUSH2 0x903 JUMP JUMPDEST PUSH1 0x40 MLOAD DUP1 DUP3 DUP2 MSTORE PUSH1 0x20 ADD SWAP2 POP POP PUSH1 0x40 MLOAD DUP1 SWAP2 SUB SWAP1 RETURN JUMPDEST PUSH2 0x2DB PUSH1 0x4 DUP1 CALLDATASIZE SUB PUSH1 0x20 DUP2 LT ISZERO PUSH2 0x2AF JUMPI PUSH1 0x0 DUP1 REVERT JUMPDEST DUP2 ADD SWAP1 DUP1 DUP1 CALLDATALOAD PUSH20 0xFFFFFFFFFFFFFFFFFFFFFFFFFFFFFFFFFFFFFFFF AND SWAP1 PUSH1 0x20 ADD SWAP1 SWAP3 SWAP2 SWAP1 POP POP POP PUSH2 0x91B JUMP JUMPDEST STOP JUMPDEST PUSH2 0x30B PUSH1 0x4 DUP1 CALLDATASIZE SUB PUSH1 0x20 DUP2 LT ISZERO PUSH2 0x2F3 JUMPI PUSH1 0x0 DUP1 REVERT JUMPDEST DUP2 ADD SWAP1 DUP1 DUP1 CALLDATALOAD ISZERO ISZERO SWAP1 PUSH1 0x20 ADD SWAP1 SWAP3 SWAP2 SWAP1 POP POP POP PUSH2 0x9CA JUMP JUMPDEST STOP JUMPDEST PUSH2 0x315 PUSH2 0xA77 JUMP JUMPDEST PUSH1 0x40 MLOAD DUP1 DUP3 DUP2 MSTORE PUSH1 0x20 ADD SWAP2 POP POP PUSH1 0x40 MLOAD DUP1 SWAP2 SUB SWAP1 RETURN JUMPDEST PUSH2 0x36D PUSH1 0x4 DUP1 CALLDATASIZE SUB PUSH1 0x20 DUP2 LT ISZERO PUSH2 0x341 JUMPI PUSH1 0x0 DUP1 REVERT JUMPDEST DUP2 ADD SWAP1 DUP1 DUP1 CALLDATALOAD PUSH20 0xFFFFFFFFFFFFFFFFFFFFFFFFFFFFFFFFFFFFFFFF AND SWAP1 PUSH1 0x20 ADD SWAP1 SWAP3 SWAP2 SWAP1 POP POP POP PUSH2 0xA81 JUMP JUMPDEST STOP JUMPDEST PUSH2 0x377 PUSH2 0xACD JUMP JUMPDEST PUSH1 0x40 MLOAD DUP1 DUP3 DUP2 MSTORE PUSH1 0x20 ADD SWAP2 POP POP PUSH1 0x40 MLOAD DUP1 SWAP2 SUB SWAP1 RETURN JUMPDEST PUSH2 0x3B9 PUSH1 0x4 DUP1 CALLDATASIZE SUB PUSH1 0x20 DUP2 LT ISZERO PUSH2 0x3A3 JUMPI PUSH1 0x0 DUP1 REVERT JUMPDEST DUP2 ADD SWAP1 DUP1 DUP1 CALLDATALOAD SWAP1 PUSH1 0x20 ADD SWAP1 SWAP3 SWAP2 SWAP1 POP POP POP PUSH2 0xAEB JUMP JUMPDEST STOP JUMPDEST PUSH2 0x3C3 PUSH2 0xE24 JUMP JUMPDEST PUSH1 0x40 MLOAD DUP1 DUP3 DUP2 MSTORE PUSH1 0x20 ADD SWAP2 POP POP PUSH1 0x40 MLOAD DUP1 SWAP2 SUB SWAP1 RETURN JUMPDEST PUSH2 0x405 PUSH1 0x4 DUP1 CALLDATASIZE SUB PUSH1 0x20 DUP2 LT ISZERO PUSH2 0x3EF JUMPI PUSH1 0x0 DUP1 REVERT JUMPDEST DUP2 ADD SWAP1 DUP1 DUP1 CALLDATALOAD SWAP1 PUSH1 0x20 ADD SWAP1 SWAP3 SWAP2 SWAP1 POP POP POP PUSH2 0xE2A JUMP JUMPDEST STOP JUMPDEST PUSH2 0x40F PUSH2 0x1208 JUMP JUMPDEST STOP JUMPDEST PUSH2 0x419 PUSH2 0x14AE JUMP JUMPDEST PUSH1 0x40 MLOAD DUP1 DUP3 PUSH20 0xFFFFFFFFFFFFFFFFFFFFFFFFFFFFFFFFFFFFFFFF AND PUSH20 0xFFFFFFFFFFFFFFFFFFFFFFFFFFFFFFFFFFFFFFFF AND DUP2 MSTORE PUSH1 0x20 ADD SWAP2 POP POP PUSH1 0x40 MLOAD DUP1 SWAP2 SUB SWAP1 RETURN JUMPDEST PUSH2 0x463 PUSH2 0x14D4 JUMP JUMPDEST PUSH1 0x40 MLOAD DUP1 DUP3 PUSH20 0xFFFFFFFFFFFFFFFFFFFFFFFFFFFFFFFFFFFFFFFF AND PUSH20 0xFFFFFFFFFFFFFFFFFFFFFFFFFFFFFFFFFFFFFFFF AND DUP2 MSTORE PUSH1 0x20 ADD SWAP2 POP POP PUSH1 0x40 MLOAD DUP1 SWAP2 SUB SWAP1 RETURN JUMPDEST PUSH2 0x4AD PUSH2 0x14FA JUMP JUMPDEST PUSH1 0x40 MLOAD DUP1 DUP3 ISZERO ISZERO ISZERO ISZERO DUP2 MSTORE PUSH1 0x20 ADD SWAP2 POP POP PUSH1 0x40 MLOAD DUP1 SWAP2 SUB SWAP1 RETURN JUMPDEST PUSH2 0x509 PUSH1 0x4 DUP1 CALLDATASIZE SUB PUSH1 0x20 DUP2 LT ISZERO PUSH2 0x4DD JUMPI PUSH1 0x0 DUP1 REVERT JUMPDEST DUP2 ADD SWAP1 DUP1 DUP1 CALLDATALOAD PUSH20 0xFFFFFFFFFFFFFFFFFFFFFFFFFFFFFFFFFFFFFFFF AND SWAP1 PUSH1 0x20 ADD SWAP1 SWAP3 SWAP2 SWAP1 POP POP POP PUSH2 0x150D JUMP JUMPDEST PUSH1 0x40 MLOAD DUP1 DUP3 DUP2 MSTORE PUSH1 0x20 ADD SWAP2 POP POP PUSH1 0x40 MLOAD DUP1 SWAP2 SUB SWAP1 RETURN JUMPDEST PUSH2 0x527 PUSH2 0x1556 JUMP JUMPDEST PUSH1 0x40 MLOAD DUP1 DUP3 PUSH20 0xFFFFFFFFFFFFFFFFFFFFFFFFFFFFFFFFFFFFFFFF AND PUSH20 0xFFFFFFFFFFFFFFFFFFFFFFFFFFFFFFFFFFFFFFFF AND DUP2 MSTORE PUSH1 0x20 ADD SWAP2 POP POP PUSH1 0x40 MLOAD DUP1 SWAP2 SUB SWAP1 RETURN JUMPDEST PUSH2 0x571 PUSH2 0x157C JUMP JUMPDEST STOP JUMPDEST PUSH2 0x57B PUSH2 0x17A2 JUMP JUMPDEST PUSH1 0x40 MLOAD DUP1 DUP3 DUP2 MSTORE PUSH1 0x20 ADD SWAP2 POP POP PUSH1 0x40 MLOAD DUP1 SWAP2 SUB SWAP1 RETURN JUMPDEST PUSH2 0x599 PUSH2 0x17A8 JUMP JUMPDEST PUSH1 0x40 MLOAD DUP1 DUP3 DUP2 MSTORE PUSH1 0x20 ADD SWAP2 POP POP PUSH1 0x40 MLOAD DUP1 SWAP2 SUB SWAP1 RETURN JUMPDEST PUSH2 0x5FB PUSH1 0x4 DUP1 CALLDATASIZE SUB PUSH1 0x40 DUP2 LT ISZERO PUSH2 0x5C5 JUMPI PUSH1 0x0 DUP1 REVERT JUMPDEST DUP2 ADD SWAP1 DUP1 DUP1 CALLDATALOAD PUSH20 0xFFFFFFFFFFFFFFFFFFFFFFFFFFFFFFFFFFFFFFFF AND SWAP1 PUSH1 0x20 ADD SWAP1 SWAP3 SWAP2 SWAP1 DUP1 CALLDATALOAD SWAP1 PUSH1 0x20 ADD SWAP1 SWAP3 SWAP2 SWAP1 POP POP POP PUSH2 0x17C2 JUMP JUMPDEST STOP JUMPDEST PUSH2 0x63F PUSH1 0x4 DUP1 CALLDATASIZE SUB PUSH1 0x20 DUP2 LT ISZERO PUSH2 0x613 JUMPI PUSH1 0x0 DUP1 REVERT JUMPDEST DUP2 ADD SWAP1 DUP1 DUP1 CALLDATALOAD PUSH20 0xFFFFFFFFFFFFFFFFFFFFFFFFFFFFFFFFFFFFFFFF AND SWAP1 PUSH1 0x20 ADD SWAP1 SWAP3 SWAP2 SWAP1 POP POP POP PUSH2 0x192C JUMP JUMPDEST PUSH1 0x40 MLOAD DUP1 DUP3 DUP2 MSTORE PUSH1 0x20 ADD SWAP2 POP POP PUSH1 0x40 MLOAD DUP1 SWAP2 SUB SWAP1 RETURN JUMPDEST PUSH2 0x65D PUSH2 0x1944 JUMP JUMPDEST PUSH1 0x40 MLOAD DUP1 DUP3 PUSH20 0xFFFFFFFFFFFFFFFFFFFFFFFFFFFFFFFFFFFFFFFF AND PUSH20 0xFFFFFFFFFFFFFFFFFFFFFFFFFFFFFFFFFFFFFFFF AND DUP2 MSTORE PUSH1 0x20 ADD SWAP2 POP POP PUSH1 0x40 MLOAD DUP1 SWAP2 SUB SWAP1 RETURN JUMPDEST PUSH2 0x6A7 PUSH2 0x1969 JUMP JUMPDEST PUSH1 0x40 MLOAD DUP1 DUP3 DUP2 MSTORE PUSH1 0x20 ADD SWAP2 POP POP PUSH1 0x40 MLOAD DUP1 SWAP2 SUB SWAP1 RETURN JUMPDEST PUSH2 0x6E9 PUSH1 0x4 DUP1 CALLDATASIZE SUB PUSH1 0x20 DUP2 LT ISZERO PUSH2 0x6D3 JUMPI PUSH1 0x0 DUP1 REVERT JUMPDEST DUP2 ADD SWAP1 DUP1 DUP1 CALLDATALOAD SWAP1 PUSH1 0x20 ADD SWAP1 SWAP3 SWAP2 SWAP1 POP POP POP PUSH2 0x196F JUMP JUMPDEST STOP JUMPDEST PUSH2 0x6F3 PUSH2 0x1D10 JUMP JUMPDEST PUSH1 0x40 MLOAD DUP1 DUP3 DUP2 MSTORE PUSH1 0x20 ADD SWAP2 POP POP PUSH1 0x40 MLOAD DUP1 SWAP2 SUB SWAP1 RETURN JUMPDEST PUSH2 0x735 PUSH1 0x4 DUP1 CALLDATASIZE SUB PUSH1 0x20 DUP2 LT ISZERO PUSH2 0x71F JUMPI PUSH1 0x0 DUP1 REVERT JUMPDEST DUP2 ADD SWAP1 DUP1 DUP1 CALLDATALOAD SWAP1 PUSH1 0x20 ADD SWAP1 SWAP3 SWAP2 SWAP1 POP POP POP PUSH2 0x1D16 JUMP JUMPDEST STOP JUMPDEST PUSH2 0x73F PUSH2 0x1DBB JUMP JUMPDEST PUSH1 0x40 MLOAD DUP1 DUP3 DUP2 MSTORE PUSH1 0x20 ADD SWAP2 POP POP PUSH1 0x40 MLOAD DUP1 SWAP2 SUB SWAP1 RETURN JUMPDEST PUSH2 0x75D PUSH2 0x1E49 JUMP JUMPDEST PUSH1 0x40 MLOAD DUP1 DUP3 PUSH20 0xFFFFFFFFFFFFFFFFFFFFFFFFFFFFFFFFFFFFFFFF AND PUSH20 0xFFFFFFFFFFFFFFFFFFFFFFFFFFFFFFFFFFFFFFFF AND DUP2 MSTORE PUSH1 0x20 ADD SWAP2 POP POP PUSH1 0x40 MLOAD DUP1 SWAP2 SUB SWAP1 RETURN JUMPDEST PUSH2 0x7A7 PUSH2 0x1E6F JUMP JUMPDEST PUSH1 0x40 MLOAD DUP1 DUP3 DUP2 MSTORE PUSH1 0x20 ADD SWAP2 POP POP PUSH1 0x40 MLOAD DUP1 SWAP2 SUB SWAP1 RETURN JUMPDEST PUSH2 0x7C5 PUSH2 0x1E75 JUMP JUMPDEST STOP JUMPDEST PUSH2 0x7CF PUSH2 0x1EC7 JUMP JUMPDEST PUSH1 0x40 MLOAD DUP1 DUP3 DUP2 MSTORE PUSH1 0x20 ADD SWAP2 POP POP PUSH1 0x40 MLOAD DUP1 SWAP2 SUB SWAP1 RETURN JUMPDEST PUSH1 0x0 PUSH2 0x8FC PUSH1 0xD PUSH1 0x0 DUP5 PUSH20 0xFFFFFFFFFFFFFFFFFFFFFFFFFFFFFFFFFFFFFFFF AND PUSH20 0xFFFFFFFFFFFFFFFFFFFFFFFFFFFFFFFFFFFFFFFF AND DUP2 MSTORE PUSH1 0x20 ADD SWAP1 DUP2 MSTORE PUSH1 0x20 ADD PUSH1 0x0 KECCAK256 SLOAD PUSH2 0x8EE PUSH8 0xDE0B6B3A7640000 PUSH2 0x8E0 PUSH2 0x892 PUSH1 0xC PUSH1 0x0 DUP10 PUSH20 0xFFFFFFFFFFFFFFFFFFFFFFFFFFFFFFFFFFFFFFFF AND PUSH20 0xFFFFFFFFFFFFFFFFFFFFFFFFFFFFFFFFFFFFFFFF AND DUP2 MSTORE PUSH1 0x20 ADD SWAP1 DUP2 MSTORE PUSH1 0x20 ADD PUSH1 0x0 KECCAK256 SLOAD PUSH2 0x884 PUSH2 0x1DBB JUMP JUMPDEST PUSH2 0x1ECD SWAP1 SWAP2 SWAP1 PUSH4 0xFFFFFFFF AND JUMP JUMPDEST PUSH1 0xF PUSH1 0x0 DUP10 PUSH20 0xFFFFFFFFFFFFFFFFFFFFFFFFFFFFFFFFFFFFFFFF AND PUSH20 0xFFFFFFFFFFFFFFFFFFFFFFFFFFFFFFFFFFFFFFFF AND DUP2 MSTORE PUSH1 0x20 ADD SWAP1 DUP2 MSTORE PUSH1 0x20 ADD PUSH1 0x0 KECCAK256 SLOAD PUSH2 0x1F56 SWAP1 SWAP2 SWAP1 PUSH4 0xFFFFFFFF AND JUMP JUMPDEST PUSH2 0x1FDC SWAP1 SWAP2 SWAP1 PUSH4 0xFFFFFFFF AND JUMP JUMPDEST PUSH2 0x206B SWAP1 SWAP2 SWAP1 PUSH4 0xFFFFFFFF AND JUMP JUMPDEST SWAP1 POP SWAP2 SWAP1 POP JUMP JUMPDEST PUSH1 0xD PUSH1 0x20 MSTORE DUP1 PUSH1 0x0 MSTORE PUSH1 0x40 PUSH1 0x0 KECCAK256 PUSH1 0x0 SWAP2 POP SWAP1 POP SLOAD DUP2 JUMP JUMPDEST PUSH2 0x923 PUSH2 0x20F3 JUMP JUMPDEST DUP1 PUSH1 0x1 PUSH1 0x0 PUSH2 0x100 EXP DUP2 SLOAD DUP2 PUSH20 0xFFFFFFFFFFFFFFFFFFFFFFFFFFFFFFFFFFFFFFFF MUL NOT AND SWAP1 DUP4 PUSH20 0xFFFFFFFFFFFFFFFFFFFFFFFFFFFFFFFFFFFFFFFF AND MUL OR SWAP1 SSTORE POP PUSH32 0x906A1C6BD7E3091EA86693DD029A831C19049CE77F1DCE2CE0BAB1CACBABCE22 DUP2 PUSH1 0x40 MLOAD DUP1 DUP3 PUSH20 0xFFFFFFFFFFFFFFFFFFFFFFFFFFFFFFFFFFFFFFFF AND PUSH20 0xFFFFFFFFFFFFFFFFFFFFFFFFFFFFFFFFFFFFFFFF AND DUP2 MSTORE PUSH1 0x20 ADD SWAP2 POP POP PUSH1 0x40 MLOAD DUP1 SWAP2 SUB SWAP1 LOG1 POP JUMP JUMPDEST PUSH2 0x9D2 PUSH2 0x20F3 JUMP JUMPDEST PUSH1 0x5 PUSH1 0x0 SWAP1 SLOAD SWAP1 PUSH2 0x100 EXP SWAP1 DIV PUSH1 0xFF AND ISZERO ISZERO DUP2 ISZERO ISZERO EQ ISZERO PUSH2 0x9F2 JUMPI PUSH2 0xA74 JUMP JUMPDEST DUP1 PUSH1 0x5 PUSH1 0x0 PUSH2 0x100 EXP DUP2 SLOAD DUP2 PUSH1 0xFF MUL NOT AND SWAP1 DUP4 ISZERO ISZERO MUL OR SWAP1 SSTORE POP PUSH1 0x5 PUSH1 0x0 SWAP1 SLOAD SWAP1 PUSH2 0x100 EXP SWAP1 DIV PUSH1 0xFF AND ISZERO PUSH2 0xA29 JUMPI TIMESTAMP PUSH1 0x4 DUP2 SWAP1 SSTORE POP JUMPDEST PUSH32 0x8FB6C181EE25A520CF3DD6565006EF91229FCFE5A989566C2A3B8C115570CEC5 PUSH1 0x5 PUSH1 0x0 SWAP1 SLOAD SWAP1 PUSH2 0x100 EXP SWAP1 DIV PUSH1 0xFF AND PUSH1 0x40 MLOAD DUP1 DUP3 ISZERO ISZERO ISZERO ISZERO DUP2 MSTORE PUSH1 0x20 ADD SWAP2 POP POP PUSH1 0x40 MLOAD DUP1 SWAP2 SUB SWAP1 LOG1 JUMPDEST POP JUMP JUMPDEST PUSH1 0x0 PUSH1 0xE SLOAD SWAP1 POP SWAP1 JUMP JUMPDEST PUSH2 0xA89 PUSH2 0x20F3 JUMP JUMPDEST DUP1 PUSH1 0x2 PUSH1 0x0 PUSH2 0x100 EXP DUP2 SLOAD DUP2 PUSH20 0xFFFFFFFFFFFFFFFFFFFFFFFFFFFFFFFFFFFFFFFF MUL NOT AND SWAP1 DUP4 PUSH20 0xFFFFFFFFFFFFFFFFFFFFFFFFFFFFFFFFFFFFFFFF AND MUL OR SWAP1 SSTORE POP POP JUMP JUMPDEST PUSH1 0x0 PUSH2 0xAE6 PUSH1 0x9 SLOAD PUSH1 0x8 SLOAD PUSH2 0x1F56 SWAP1 SWAP2 SWAP1 PUSH4 0xFFFFFFFF AND JUMP JUMPDEST SWAP1 POP SWAP1 JUMP JUMPDEST PUSH1 0x1 PUSH1 0x3 PUSH1 0x0 DUP3 DUP3 SLOAD ADD SWAP3 POP POP DUP2 SWAP1 SSTORE POP PUSH1 0x0 PUSH1 0x3 SLOAD SWAP1 POP CALLER PUSH2 0xB0C PUSH2 0x1DBB JUMP JUMPDEST PUSH1 0xB DUP2 SWAP1 SSTORE POP PUSH2 0xB1A PUSH2 0x17A8 JUMP JUMPDEST PUSH1 0xA DUP2 SWAP1 SSTORE POP PUSH1 0x0 PUSH20 0xFFFFFFFFFFFFFFFFFFFFFFFFFFFFFFFFFFFFFFFF AND DUP2 PUSH20 0xFFFFFFFFFFFFFFFFFFFFFFFFFFFFFFFFFFFFFFFF AND EQ PUSH2 0xBE7 JUMPI PUSH2 0xB5D DUP2 PUSH2 0x7E5 JUMP JUMPDEST PUSH1 0xD PUSH1 0x0 DUP4 PUSH20 0xFFFFFFFFFFFFFFFFFFFFFFFFFFFFFFFFFFFFFFFF AND PUSH20 0xFFFFFFFFFFFFFFFFFFFFFFFFFFFFFFFFFFFFFFFF AND DUP2 MSTORE PUSH1 0x20 ADD SWAP1 DUP2 MSTORE PUSH1 0x20 ADD PUSH1 0x0 KECCAK256 DUP2 SWAP1 SSTORE POP PUSH1 0xB SLOAD PUSH1 0xC PUSH1 0x0 DUP4 PUSH20 0xFFFFFFFFFFFFFFFFFFFFFFFFFFFFFFFFFFFFFFFF AND PUSH20 0xFFFFFFFFFFFFFFFFFFFFFFFFFFFFFFFFFFFFFFFF AND DUP2 MSTORE PUSH1 0x20 ADD SWAP1 DUP2 MSTORE PUSH1 0x20 ADD PUSH1 0x0 KECCAK256 DUP2 SWAP1 SSTORE POP JUMPDEST PUSH1 0x0 DUP4 GT PUSH2 0xC5D JUMPI PUSH1 0x40 MLOAD PUSH32 0x8C379A000000000000000000000000000000000000000000000000000000000 DUP2 MSTORE PUSH1 0x4 ADD DUP1 DUP1 PUSH1 0x20 ADD DUP3 DUP2 SUB DUP3 MSTORE PUSH1 0x11 DUP2 MSTORE PUSH1 0x20 ADD DUP1 PUSH32 0x43616E6E6F742077697468647261772030000000000000000000000000000000 DUP2 MSTORE POP PUSH1 0x20 ADD SWAP2 POP POP PUSH1 0x40 MLOAD DUP1 SWAP2 SUB SWAP1 REVERT JUMPDEST PUSH2 0xC72 DUP4 PUSH1 0xE SLOAD PUSH2 0x1ECD SWAP1 SWAP2 SWAP1 PUSH4 0xFFFFFFFF AND JUMP JUMPDEST PUSH1 0xE DUP2 SWAP1 SSTORE POP PUSH2 0xCCA DUP4 PUSH1 0xF PUSH1 0x0 CALLER PUSH20 0xFFFFFFFFFFFFFFFFFFFFFFFFFFFFFFFFFFFFFFFF AND PUSH20 0xFFFFFFFFFFFFFFFFFFFFFFFFFFFFFFFFFFFFFFFF AND DUP2 MSTORE PUSH1 0x20 ADD SWAP1 DUP2 MSTORE PUSH1 0x20 ADD PUSH1 0x0 KECCAK256 SLOAD PUSH2 0x1ECD SWAP1 SWAP2 SWAP1 PUSH4 0xFFFFFFFF AND JUMP JUMPDEST PUSH1 0xF PUSH1 0x0 CALLER PUSH20 0xFFFFFFFFFFFFFFFFFFFFFFFFFFFFFFFFFFFFFFFF AND PUSH20 0xFFFFFFFFFFFFFFFFFFFFFFFFFFFFFFFFFFFFFFFF AND DUP2 MSTORE PUSH1 0x20 ADD SWAP1 DUP2 MSTORE PUSH1 0x20 ADD PUSH1 0x0 KECCAK256 DUP2 SWAP1 SSTORE POP PUSH2 0xD5A CALLER DUP5 PUSH1 0x6 PUSH1 0x0 SWAP1 SLOAD SWAP1 PUSH2 0x100 EXP SWAP1 DIV PUSH20 0xFFFFFFFFFFFFFFFFFFFFFFFFFFFFFFFFFFFFFFFF AND PUSH20 0xFFFFFFFFFFFFFFFFFFFFFFFFFFFFFFFFFFFFFFFF AND PUSH2 0x219A SWAP1 SWAP3 SWAP2 SWAP1 PUSH4 0xFFFFFFFF AND JUMP JUMPDEST CALLER PUSH20 0xFFFFFFFFFFFFFFFFFFFFFFFFFFFFFFFFFFFFFFFF AND PUSH32 0x7084F5476618D8E60B11EF0D7D3F06914655ADB8793E28FF7F018D4C76D505D5 DUP5 PUSH1 0x40 MLOAD DUP1 DUP3 DUP2 MSTORE PUSH1 0x20 ADD SWAP2 POP POP PUSH1 0x40 MLOAD DUP1 SWAP2 SUB SWAP1 LOG2 POP PUSH1 0x3 SLOAD DUP2 EQ PUSH2 0xE20 JUMPI PUSH1 0x40 MLOAD PUSH32 0x8C379A000000000000000000000000000000000000000000000000000000000 DUP2 MSTORE PUSH1 0x4 ADD DUP1 DUP1 PUSH1 0x20 ADD DUP3 DUP2 SUB DUP3 MSTORE PUSH1 0x1F DUP2 MSTORE PUSH1 0x20 ADD DUP1 PUSH32 0x5265656E7472616E637947756172643A207265656E7472616E742063616C6C00 DUP2 MSTORE POP PUSH1 0x20 ADD SWAP2 POP POP PUSH1 0x40 MLOAD DUP1 SWAP2 SUB SWAP1 REVERT JUMPDEST POP POP JUMP JUMPDEST PUSH1 0x9 SLOAD DUP2 JUMP JUMPDEST PUSH1 0x2 PUSH1 0x0 SWAP1 SLOAD SWAP1 PUSH2 0x100 EXP SWAP1 DIV PUSH20 0xFFFFFFFFFFFFFFFFFFFFFFFFFFFFFFFFFFFFFFFF AND PUSH20 0xFFFFFFFFFFFFFFFFFFFFFFFFFFFFFFFFFFFFFFFF AND CALLER PUSH20 0xFFFFFFFFFFFFFFFFFFFFFFFFFFFFFFFFFFFFFFFF AND EQ PUSH2 0xED0 JUMPI PUSH1 0x40 MLOAD PUSH32 0x8C379A000000000000000000000000000000000000000000000000000000000 DUP2 MSTORE PUSH1 0x4 ADD DUP1 DUP1 PUSH1 0x20 ADD DUP3 DUP2 SUB DUP3 MSTORE PUSH1 0x2A DUP2 MSTORE PUSH1 0x20 ADD DUP1 PUSH2 0x26E9 PUSH1 0x2A SWAP2 CODECOPY PUSH1 0x40 ADD SWAP2 POP POP PUSH1 0x40 MLOAD DUP1 SWAP2 SUB SWAP1 REVERT JUMPDEST PUSH1 0x0 PUSH2 0xEDA PUSH2 0x1DBB JUMP JUMPDEST PUSH1 0xB DUP2 SWAP1 SSTORE POP PUSH2 0xEE8 PUSH2 0x17A8 JUMP JUMPDEST PUSH1 0xA DUP2 SWAP1 SSTORE POP PUSH1 0x0 PUSH20 0xFFFFFFFFFFFFFFFFFFFFFFFFFFFFFFFFFFFFFFFF AND DUP2 PUSH20 0xFFFFFFFFFFFFFFFFFFFFFFFFFFFFFFFFFFFFFFFF AND EQ PUSH2 0xFB5 JUMPI PUSH2 0xF2B DUP2 PUSH2 0x7E5 JUMP JUMPDEST PUSH1 0xD PUSH1 0x0 DUP4 PUSH20 0xFFFFFFFFFFFFFFFFFFFFFFFFFFFFFFFFFFFFFFFF AND PUSH20 0xFFFFFFFFFFFFFFFFFFFFFFFFFFFFFFFFFFFFFFFF AND DUP2 MSTORE PUSH1 0x20 ADD SWAP1 DUP2 MSTORE PUSH1 0x20 ADD PUSH1 0x0 KECCAK256 DUP2 SWAP1 SSTORE POP PUSH1 0xB SLOAD PUSH1 0xC PUSH1 0x0 DUP4 PUSH20 0xFFFFFFFFFFFFFFFFFFFFFFFFFFFFFFFFFFFFFFFF AND PUSH20 0xFFFFFFFFFFFFFFFFFFFFFFFFFFFFFFFFFFFFFFFF AND DUP2 MSTORE PUSH1 0x20 ADD SWAP1 DUP2 MSTORE PUSH1 0x20 ADD PUSH1 0x0 KECCAK256 DUP2 SWAP1 SSTORE POP JUMPDEST PUSH1 0x7 SLOAD TIMESTAMP LT PUSH2 0xFDE JUMPI PUSH2 0xFD3 PUSH1 0x9 SLOAD DUP4 PUSH2 0x1FDC SWAP1 SWAP2 SWAP1 PUSH4 0xFFFFFFFF AND JUMP JUMPDEST PUSH1 0x8 DUP2 SWAP1 SSTORE POP PUSH2 0x1040 JUMP JUMPDEST PUSH1 0x0 PUSH2 0xFF5 TIMESTAMP PUSH1 0x7 SLOAD PUSH2 0x1ECD SWAP1 SWAP2 SWAP1 PUSH4 0xFFFFFFFF AND JUMP JUMPDEST SWAP1 POP PUSH1 0x0 PUSH2 0x100E PUSH1 0x8 SLOAD DUP4 PUSH2 0x1F56 SWAP1 SWAP2 SWAP1 PUSH4 0xFFFFFFFF AND JUMP JUMPDEST SWAP1 POP PUSH2 0x1037 PUSH1 0x9 SLOAD PUSH2 0x1029 DUP4 DUP8 PUSH2 0x206B SWAP1 SWAP2 SWAP1 PUSH4 0xFFFFFFFF AND JUMP JUMPDEST PUSH2 0x1FDC SWAP1 SWAP2 SWAP1 PUSH4 0xFFFFFFFF AND JUMP JUMPDEST PUSH1 0x8 DUP2 SWAP1 SSTORE POP POP POP JUMPDEST PUSH1 0x0 PUSH1 0x5 PUSH1 0x1 SWAP1 SLOAD SWAP1 PUSH2 0x100 EXP SWAP1 DIV PUSH20 0xFFFFFFFFFFFFFFFFFFFFFFFFFFFFFFFFFFFFFFFF AND PUSH20 0xFFFFFFFFFFFFFFFFFFFFFFFFFFFFFFFFFFFFFFFF AND PUSH4 0x70A08231 ADDRESS PUSH1 0x40 MLOAD DUP3 PUSH4 0xFFFFFFFF AND PUSH1 0xE0 SHL DUP2 MSTORE PUSH1 0x4 ADD DUP1 DUP3 PUSH20 0xFFFFFFFFFFFFFFFFFFFFFFFFFFFFFFFFFFFFFFFF AND PUSH20 0xFFFFFFFFFFFFFFFFFFFFFFFFFFFFFFFFFFFFFFFF AND DUP2 MSTORE PUSH1 0x20 ADD SWAP2 POP POP PUSH1 0x20 PUSH1 0x40 MLOAD DUP1 DUP4 SUB DUP2 DUP7 DUP1 EXTCODESIZE ISZERO DUP1 ISZERO PUSH2 0x10E1 JUMPI PUSH1 0x0 DUP1 REVERT JUMPDEST POP GAS STATICCALL ISZERO DUP1 ISZERO PUSH2 0x10F5 JUMPI RETURNDATASIZE PUSH1 0x0 DUP1 RETURNDATACOPY RETURNDATASIZE PUSH1 0x0 REVERT JUMPDEST POP POP POP POP PUSH1 0x40 MLOAD RETURNDATASIZE PUSH1 0x20 DUP2 LT ISZERO PUSH2 0x110B JUMPI PUSH1 0x0 DUP1 REVERT JUMPDEST DUP2 ADD SWAP1 DUP1 DUP1 MLOAD SWAP1 PUSH1 0x20 ADD SWAP1 SWAP3 SWAP2 SWAP1 POP POP POP SWAP1 POP PUSH2 0x1133 PUSH1 0x9 SLOAD DUP3 PUSH2 0x1FDC SWAP1 SWAP2 SWAP1 PUSH4 0xFFFFFFFF AND JUMP JUMPDEST PUSH1 0x8 SLOAD GT ISZERO PUSH2 0x11AA JUMPI PUSH1 0x40 MLOAD PUSH32 0x8C379A000000000000000000000000000000000000000000000000000000000 DUP2 MSTORE PUSH1 0x4 ADD DUP1 DUP1 PUSH1 0x20 ADD DUP3 DUP2 SUB DUP3 MSTORE PUSH1 0x18 DUP2 MSTORE PUSH1 0x20 ADD DUP1 PUSH32 0x50726F76696465642072657761726420746F6F20686967680000000000000000 DUP2 MSTORE POP PUSH1 0x20 ADD SWAP2 POP POP PUSH1 0x40 MLOAD DUP1 SWAP2 SUB SWAP1 REVERT JUMPDEST TIMESTAMP PUSH1 0xA DUP2 SWAP1 SSTORE POP PUSH2 0x11C6 PUSH1 0x9 SLOAD TIMESTAMP PUSH2 0x206B SWAP1 SWAP2 SWAP1 PUSH4 0xFFFFFFFF AND JUMP JUMPDEST PUSH1 0x7 DUP2 SWAP1 SSTORE POP PUSH32 0xDE88A922E0D3B88B24E9623EFEB464919C6BF9F66857A65E2BFCF2CE87A9433D DUP4 PUSH1 0x40 MLOAD DUP1 DUP3 DUP2 MSTORE PUSH1 0x20 ADD SWAP2 POP POP PUSH1 0x40 MLOAD DUP1 SWAP2 SUB SWAP1 LOG1 POP POP POP JUMP JUMPDEST PUSH1 0x1 PUSH1 0x3 PUSH1 0x0 DUP3 DUP3 SLOAD ADD SWAP3 POP POP DUP2 SWAP1 SSTORE POP PUSH1 0x0 PUSH1 0x3 SLOAD SWAP1 POP CALLER PUSH2 0x1229 PUSH2 0x1DBB JUMP JUMPDEST PUSH1 0xB DUP2 SWAP1 SSTORE POP PUSH2 0x1237 PUSH2 0x17A8 JUMP JUMPDEST PUSH1 0xA DUP2 SWAP1 SSTORE POP PUSH1 0x0 PUSH20 0xFFFFFFFFFFFFFFFFFFFFFFFFFFFFFFFFFFFFFFFF AND DUP2 PUSH20 0xFFFFFFFFFFFFFFFFFFFFFFFFFFFFFFFFFFFFFFFF AND EQ PUSH2 0x1304 JUMPI PUSH2 0x127A DUP2 PUSH2 0x7E5 JUMP JUMPDEST PUSH1 0xD PUSH1 0x0 DUP4 PUSH20 0xFFFFFFFFFFFFFFFFFFFFFFFFFFFFFFFFFFFFFFFF AND PUSH20 0xFFFFFFFFFFFFFFFFFFFFFFFFFFFFFFFFFFFFFFFF AND DUP2 MSTORE PUSH1 0x20 ADD SWAP1 DUP2 MSTORE PUSH1 0x20 ADD PUSH1 0x0 KECCAK256 DUP2 SWAP1 SSTORE POP PUSH1 0xB SLOAD PUSH1 0xC PUSH1 0x0 DUP4 PUSH20 0xFFFFFFFFFFFFFFFFFFFFFFFFFFFFFFFFFFFFFFFF AND PUSH20 0xFFFFFFFFFFFFFFFFFFFFFFFFFFFFFFFFFFFFFFFF AND DUP2 MSTORE PUSH1 0x20 ADD SWAP1 DUP2 MSTORE PUSH1 0x20 ADD PUSH1 0x0 KECCAK256 DUP2 SWAP1 SSTORE POP JUMPDEST PUSH1 0x0 PUSH1 0xD PUSH1 0x0 CALLER PUSH20 0xFFFFFFFFFFFFFFFFFFFFFFFFFFFFFFFFFFFFFFFF AND PUSH20 0xFFFFFFFFFFFFFFFFFFFFFFFFFFFFFFFFFFFFFFFF AND DUP2 MSTORE PUSH1 0x20 ADD SWAP1 DUP2 MSTORE PUSH1 0x20 ADD PUSH1 0x0 KECCAK256 SLOAD SWAP1 POP PUSH1 0x0 DUP2 GT ISZERO PUSH2 0x1432 JUMPI PUSH1 0x0 PUSH1 0xD PUSH1 0x0 CALLER PUSH20 0xFFFFFFFFFFFFFFFFFFFFFFFFFFFFFFFFFFFFFFFF AND PUSH20 0xFFFFFFFFFFFFFFFFFFFFFFFFFFFFFFFFFFFFFFFF AND DUP2 MSTORE PUSH1 0x20 ADD SWAP1 DUP2 MSTORE PUSH1 0x20 ADD PUSH1 0x0 KECCAK256 DUP2 SWAP1 SSTORE POP PUSH2 0x13E3 CALLER DUP3 PUSH1 0x5 PUSH1 0x1 SWAP1 SLOAD SWAP1 PUSH2 0x100 EXP SWAP1 DIV PUSH20 0xFFFFFFFFFFFFFFFFFFFFFFFFFFFFFFFFFFFFFFFF AND PUSH20 0xFFFFFFFFFFFFFFFFFFFFFFFFFFFFFFFFFFFFFFFF AND PUSH2 0x219A SWAP1 SWAP3 SWAP2 SWAP1 PUSH4 0xFFFFFFFF AND JUMP JUMPDEST CALLER PUSH20 0xFFFFFFFFFFFFFFFFFFFFFFFFFFFFFFFFFFFFFFFF AND PUSH32 0xE2403640BA68FED3A2F88B7557551D1993F84B99BB10FF833F0CF8DB0C5E0486 DUP3 PUSH1 0x40 MLOAD DUP1 DUP3 DUP2 MSTORE PUSH1 0x20 ADD SWAP2 POP POP PUSH1 0x40 MLOAD DUP1 SWAP2 SUB SWAP1 LOG2 JUMPDEST POP POP PUSH1 0x3 SLOAD DUP2 EQ PUSH2 0x14AB JUMPI PUSH1 0x40 MLOAD PUSH32 0x8C379A000000000000000000000000000000000000000000000000000000000 DUP2 MSTORE PUSH1 0x4 ADD DUP1 DUP1 PUSH1 0x20 ADD DUP3 DUP2 SUB DUP3 MSTORE PUSH1 0x1F DUP2 MSTORE PUSH1 0x20 ADD DUP1 PUSH32 0x5265656E7472616E637947756172643A207265656E7472616E742063616C6C00 DUP2 MSTORE POP PUSH1 0x20 ADD SWAP2 POP POP PUSH1 0x40 MLOAD DUP1 SWAP2 SUB SWAP1 REVERT JUMPDEST POP JUMP JUMPDEST PUSH1 0x2 PUSH1 0x0 SWAP1 SLOAD SWAP1 PUSH2 0x100 EXP SWAP1 DIV PUSH20 0xFFFFFFFFFFFFFFFFFFFFFFFFFFFFFFFFFFFFFFFF AND DUP2 JUMP JUMPDEST PUSH1 0x1 PUSH1 0x0 SWAP1 SLOAD SWAP1 PUSH2 0x100 EXP SWAP1 DIV PUSH20 0xFFFFFFFFFFFFFFFFFFFFFFFFFFFFFFFFFFFFFFFF AND DUP2 JUMP JUMPDEST PUSH1 0x5 PUSH1 0x0 SWAP1 SLOAD SWAP1 PUSH2 0x100 EXP SWAP1 DIV PUSH1 0xFF AND DUP2 JUMP JUMPDEST PUSH1 0x0 PUSH1 0xF PUSH1 0x0 DUP4 PUSH20 0xFFFFFFFFFFFFFFFFFFFFFFFFFFFFFFFFFFFFFFFF AND PUSH20 0xFFFFFFFFFFFFFFFFFFFFFFFFFFFFFFFFFFFFFFFF AND DUP2 MSTORE PUSH1 0x20 ADD SWAP1 DUP2 MSTORE PUSH1 0x20 ADD PUSH1 0x0 KECCAK256 SLOAD SWAP1 POP SWAP2 SWAP1 POP JUMP JUMPDEST PUSH1 0x6 PUSH1 0x0 SWAP1 SLOAD SWAP1 PUSH2 0x100 EXP SWAP1 DIV PUSH20 0xFFFFFFFFFFFFFFFFFFFFFFFFFFFFFFFFFFFFFFFF AND DUP2 JUMP JUMPDEST PUSH1 0x1 PUSH1 0x0 SWAP1 SLOAD SWAP1 PUSH2 0x100 EXP SWAP1 DIV PUSH20 0xFFFFFFFFFFFFFFFFFFFFFFFFFFFFFFFFFFFFFFFF AND PUSH20 0xFFFFFFFFFFFFFFFFFFFFFFFFFFFFFFFFFFFFFFFF AND CALLER PUSH20 0xFFFFFFFFFFFFFFFFFFFFFFFFFFFFFFFFFFFFFFFF AND EQ PUSH2 0x1622 JUMPI PUSH1 0x40 MLOAD PUSH32 0x8C379A000000000000000000000000000000000000000000000000000000000 DUP2 MSTORE PUSH1 0x4 ADD DUP1 DUP1 PUSH1 0x20 ADD DUP3 DUP2 SUB DUP3 MSTORE PUSH1 0x35 DUP2 MSTORE PUSH1 0x20 ADD DUP1 PUSH2 0x2628 PUSH1 0x35 SWAP2 CODECOPY PUSH1 0x40 ADD SWAP2 POP POP PUSH1 0x40 MLOAD DUP1 SWAP2 SUB SWAP1 REVERT JUMPDEST PUSH32 0xB532073B38C83145E3E5135377A08BF9AAB55BC0FD7C1179CD4FB995D2A5159C PUSH1 0x0 DUP1 SWAP1 SLOAD SWAP1 PUSH2 0x100 EXP SWAP1 DIV PUSH20 0xFFFFFFFFFFFFFFFFFFFFFFFFFFFFFFFFFFFFFFFF AND PUSH1 0x1 PUSH1 0x0 SWAP1 SLOAD SWAP1 PUSH2 0x100 EXP SWAP1 DIV PUSH20 0xFFFFFFFFFFFFFFFFFFFFFFFFFFFFFFFFFFFFFFFF AND PUSH1 0x40 MLOAD DUP1 DUP4 PUSH20 0xFFFFFFFFFFFFFFFFFFFFFFFFFFFFFFFFFFFFFFFF AND PUSH20 0xFFFFFFFFFFFFFFFFFFFFFFFFFFFFFFFFFFFFFFFF AND DUP2 MSTORE PUSH1 0x20 ADD DUP3 PUSH20 0xFFFFFFFFFFFFFFFFFFFFFFFFFFFFFFFFFFFFFFFF AND PUSH20 0xFFFFFFFFFFFFFFFFFFFFFFFFFFFFFFFFFFFFFFFF AND DUP2 MSTORE PUSH1 0x20 ADD SWAP3 POP POP POP PUSH1 0x40 MLOAD DUP1 SWAP2 SUB SWAP1 LOG1 PUSH1 0x1 PUSH1 0x0 SWAP1 SLOAD SWAP1 PUSH2 0x100 EXP SWAP1 DIV PUSH20 0xFFFFFFFFFFFFFFFFFFFFFFFFFFFFFFFFFFFFFFFF AND PUSH1 0x0 DUP1 PUSH2 0x100 EXP DUP2 SLOAD DUP2 PUSH20 0xFFFFFFFFFFFFFFFFFFFFFFFFFFFFFFFFFFFFFFFF MUL NOT AND SWAP1 DUP4 PUSH20 0xFFFFFFFFFFFFFFFFFFFFFFFFFFFFFFFFFFFFFFFF AND MUL OR SWAP1 SSTORE POP PUSH1 0x0 PUSH1 0x1 PUSH1 0x0 PUSH2 0x100 EXP DUP2 SLOAD DUP2 PUSH20 0xFFFFFFFFFFFFFFFFFFFFFFFFFFFFFFFFFFFFFFFF MUL NOT AND SWAP1 DUP4 PUSH20 0xFFFFFFFFFFFFFFFFFFFFFFFFFFFFFFFFFFFFFFFF AND MUL OR SWAP1 SSTORE POP JUMP JUMPDEST PUSH1 0x8 SLOAD DUP2 JUMP JUMPDEST PUSH1 0x0 PUSH1 0x7 SLOAD TIMESTAMP LT PUSH2 0x17BB JUMPI PUSH1 0x7 SLOAD PUSH2 0x17BD JUMP JUMPDEST TIMESTAMP JUMPDEST SWAP1 POP SWAP1 JUMP JUMPDEST PUSH2 0x17CA PUSH2 0x20F3 JUMP JUMPDEST PUSH1 0x6 PUSH1 0x0 SWAP1 SLOAD SWAP1 PUSH2 0x100 EXP SWAP1 DIV PUSH20 0xFFFFFFFFFFFFFFFFFFFFFFFFFFFFFFFFFFFFFFFF AND PUSH20 0xFFFFFFFFFFFFFFFFFFFFFFFFFFFFFFFFFFFFFFFF AND DUP3 PUSH20 0xFFFFFFFFFFFFFFFFFFFFFFFFFFFFFFFFFFFFFFFF AND EQ ISZERO PUSH2 0x1871 JUMPI PUSH1 0x40 MLOAD PUSH32 0x8C379A000000000000000000000000000000000000000000000000000000000 DUP2 MSTORE PUSH1 0x4 ADD DUP1 DUP1 PUSH1 0x20 ADD DUP3 DUP2 SUB DUP3 MSTORE PUSH1 0x21 DUP2 MSTORE PUSH1 0x20 ADD DUP1 PUSH2 0x273D PUSH1 0x21 SWAP2 CODECOPY PUSH1 0x40 ADD SWAP2 POP POP PUSH1 0x40 MLOAD DUP1 SWAP2 SUB SWAP1 REVERT JUMPDEST PUSH2 0x18BD PUSH1 0x0 DUP1 SWAP1 SLOAD SWAP1 PUSH2 0x100 EXP SWAP1 DIV PUSH20 0xFFFFFFFFFFFFFFFFFFFFFFFFFFFFFFFFFFFFFFFF AND DUP3 DUP5 PUSH20 0xFFFFFFFFFFFFFFFFFFFFFFFFFFFFFFFFFFFFFFFF AND PUSH2 0x219A SWAP1 SWAP3 SWAP2 SWAP1 PUSH4 0xFFFFFFFF AND JUMP JUMPDEST PUSH32 0x8C1256B8896378CD5044F80C202F9772B9D77DC85C8A6EB51967210B09BFAA28 DUP3 DUP3 PUSH1 0x40 MLOAD DUP1 DUP4 PUSH20 0xFFFFFFFFFFFFFFFFFFFFFFFFFFFFFFFFFFFFFFFF AND PUSH20 0xFFFFFFFFFFFFFFFFFFFFFFFFFFFFFFFFFFFFFFFF AND DUP2 MSTORE PUSH1 0x20 ADD DUP3 DUP2 MSTORE PUSH1 0x20 ADD SWAP3 POP POP POP PUSH1 0x40 MLOAD DUP1 SWAP2 SUB SWAP1 LOG1 POP POP JUMP JUMPDEST PUSH1 0xC PUSH1 0x20 MSTORE DUP1 PUSH1 0x0 MSTORE PUSH1 0x40 PUSH1 0x0 KECCAK256 PUSH1 0x0 SWAP2 POP SWAP1 POP SLOAD DUP2 JUMP JUMPDEST PUSH1 0x0 DUP1 SWAP1 SLOAD SWAP1 PUSH2 0x100 EXP SWAP1 DIV PUSH20 0xFFFFFFFFFFFFFFFFFFFFFFFFFFFFFFFFFFFFFFFF AND DUP2 JUMP JUMPDEST PUSH1 0x4 SLOAD DUP2 JUMP JUMPDEST PUSH1 0x1 PUSH1 0x3 PUSH1 0x0 DUP3 DUP3 SLOAD ADD SWAP3 POP POP DUP2 SWAP1 SSTORE POP PUSH1 0x0 PUSH1 0x3 SLOAD SWAP1 POP PUSH1 0x5 PUSH1 0x0 SWAP1 SLOAD SWAP1 PUSH2 0x100 EXP SWAP1 DIV PUSH1 0xFF AND ISZERO PUSH2 0x19ED JUMPI PUSH1 0x40 MLOAD PUSH32 0x8C379A000000000000000000000000000000000000000000000000000000000 DUP2 MSTORE PUSH1 0x4 ADD DUP1 DUP1 PUSH1 0x20 ADD DUP3 DUP2 SUB DUP3 MSTORE PUSH1 0x3C DUP2 MSTORE PUSH1 0x20 ADD DUP1 PUSH2 0x26AD PUSH1 0x3C SWAP2 CODECOPY PUSH1 0x40 ADD SWAP2 POP POP PUSH1 0x40 MLOAD DUP1 SWAP2 SUB SWAP1 REVERT JUMPDEST CALLER PUSH2 0x19F6 PUSH2 0x1DBB JUMP JUMPDEST PUSH1 0xB DUP2 SWAP1 SSTORE POP PUSH2 0x1A04 PUSH2 0x17A8 JUMP JUMPDEST PUSH1 0xA DUP2 SWAP1 SSTORE POP PUSH1 0x0 PUSH20 0xFFFFFFFFFFFFFFFFFFFFFFFFFFFFFFFFFFFFFFFF AND DUP2 PUSH20 0xFFFFFFFFFFFFFFFFFFFFFFFFFFFFFFFFFFFFFFFF AND EQ PUSH2 0x1AD1 JUMPI PUSH2 0x1A47 DUP2 PUSH2 0x7E5 JUMP JUMPDEST PUSH1 0xD PUSH1 0x0 DUP4 PUSH20 0xFFFFFFFFFFFFFFFFFFFFFFFFFFFFFFFFFFFFFFFF AND PUSH20 0xFFFFFFFFFFFFFFFFFFFFFFFFFFFFFFFFFFFFFFFF AND DUP2 MSTORE PUSH1 0x20 ADD SWAP1 DUP2 MSTORE PUSH1 0x20 ADD PUSH1 0x0 KECCAK256 DUP2 SWAP1 SSTORE POP PUSH1 0xB SLOAD PUSH1 0xC PUSH1 0x0 DUP4 PUSH20 0xFFFFFFFFFFFFFFFFFFFFFFFFFFFFFFFFFFFFFFFF AND PUSH20 0xFFFFFFFFFFFFFFFFFFFFFFFFFFFFFFFFFFFFFFFF AND DUP2 MSTORE PUSH1 0x20 ADD SWAP1 DUP2 MSTORE PUSH1 0x20 ADD PUSH1 0x0 KECCAK256 DUP2 SWAP1 SSTORE POP JUMPDEST PUSH1 0x0 DUP4 GT PUSH2 0x1B47 JUMPI PUSH1 0x40 MLOAD PUSH32 0x8C379A000000000000000000000000000000000000000000000000000000000 DUP2 MSTORE PUSH1 0x4 ADD DUP1 DUP1 PUSH1 0x20 ADD DUP3 DUP2 SUB DUP3 MSTORE PUSH1 0xE DUP2 MSTORE PUSH1 0x20 ADD DUP1 PUSH32 0x43616E6E6F74207374616B652030000000000000000000000000000000000000 DUP2 MSTORE POP PUSH1 0x20 ADD SWAP2 POP POP PUSH1 0x40 MLOAD DUP1 SWAP2 SUB SWAP1 REVERT JUMPDEST PUSH2 0x1B5C DUP4 PUSH1 0xE SLOAD PUSH2 0x206B SWAP1 SWAP2 SWAP1 PUSH4 0xFFFFFFFF AND JUMP JUMPDEST PUSH1 0xE DUP2 SWAP1 SSTORE POP PUSH2 0x1BB4 DUP4 PUSH1 0xF PUSH1 0x0 CALLER PUSH20 0xFFFFFFFFFFFFFFFFFFFFFFFFFFFFFFFFFFFFFFFF AND PUSH20 0xFFFFFFFFFFFFFFFFFFFFFFFFFFFFFFFFFFFFFFFF AND DUP2 MSTORE PUSH1 0x20 ADD SWAP1 DUP2 MSTORE PUSH1 0x20 ADD PUSH1 0x0 KECCAK256 SLOAD PUSH2 0x206B SWAP1 SWAP2 SWAP1 PUSH4 0xFFFFFFFF AND JUMP JUMPDEST PUSH1 0xF PUSH1 0x0 CALLER PUSH20 0xFFFFFFFFFFFFFFFFFFFFFFFFFFFFFFFFFFFFFFFF AND PUSH20 0xFFFFFFFFFFFFFFFFFFFFFFFFFFFFFFFFFFFFFFFF AND DUP2 MSTORE PUSH1 0x20 ADD SWAP1 DUP2 MSTORE PUSH1 0x20 ADD PUSH1 0x0 KECCAK256 DUP2 SWAP1 SSTORE POP PUSH2 0x1C46 CALLER ADDRESS DUP6 PUSH1 0x6 PUSH1 0x0 SWAP1 SLOAD SWAP1 PUSH2 0x100 EXP SWAP1 DIV PUSH20 0xFFFFFFFFFFFFFFFFFFFFFFFFFFFFFFFFFFFFFFFF AND PUSH20 0xFFFFFFFFFFFFFFFFFFFFFFFFFFFFFFFFFFFFFFFF AND PUSH2 0x226B SWAP1 SWAP4 SWAP3 SWAP2 SWAP1 PUSH4 0xFFFFFFFF AND JUMP JUMPDEST CALLER PUSH20 0xFFFFFFFFFFFFFFFFFFFFFFFFFFFFFFFFFFFFFFFF AND PUSH32 0x9E71BC8EEA02A63969F509818F2DAFB9254532904319F9DBDA79B67BD34A5F3D DUP5 PUSH1 0x40 MLOAD DUP1 DUP3 DUP2 MSTORE PUSH1 0x20 ADD SWAP2 POP POP PUSH1 0x40 MLOAD DUP1 SWAP2 SUB SWAP1 LOG2 POP PUSH1 0x3 SLOAD DUP2 EQ PUSH2 0x1D0C JUMPI PUSH1 0x40 MLOAD PUSH32 0x8C379A000000000000000000000000000000000000000000000000000000000 DUP2 MSTORE PUSH1 0x4 ADD DUP1 DUP1 PUSH1 0x20 ADD DUP3 DUP2 SUB DUP3 MSTORE PUSH1 0x1F DUP2 MSTORE PUSH1 0x20 ADD DUP1 PUSH32 0x5265656E7472616E637947756172643A207265656E7472616E742063616C6C00 DUP2 MSTORE POP PUSH1 0x20 ADD SWAP2 POP POP PUSH1 0x40 MLOAD DUP1 SWAP2 SUB SWAP1 REVERT JUMPDEST POP POP JUMP JUMPDEST PUSH1 0xA SLOAD DUP2 JUMP JUMPDEST PUSH2 0x1D1E PUSH2 0x20F3 JUMP JUMPDEST PUSH1 0x7 SLOAD TIMESTAMP GT PUSH2 0x1D78 JUMPI PUSH1 0x40 MLOAD PUSH32 0x8C379A000000000000000000000000000000000000000000000000000000000 DUP2 MSTORE PUSH1 0x4 ADD DUP1 DUP1 PUSH1 0x20 ADD DUP3 DUP2 SUB DUP3 MSTORE PUSH1 0x58 DUP2 MSTORE PUSH1 0x20 ADD DUP1 PUSH2 0x25D0 PUSH1 0x58 SWAP2 CODECOPY PUSH1 0x60 ADD SWAP2 POP POP PUSH1 0x40 MLOAD DUP1 SWAP2 SUB SWAP1 REVERT JUMPDEST DUP1 PUSH1 0x9 DUP2 SWAP1 SSTORE POP PUSH32 0xFB46CA5A5E06D4540D6387B930A7C978BCE0DB5F449EC6B3F5D07C6E1D44F2D3 PUSH1 0x9 SLOAD PUSH1 0x40 MLOAD DUP1 DUP3 DUP2 MSTORE PUSH1 0x20 ADD SWAP2 POP POP PUSH1 0x40 MLOAD DUP1 SWAP2 SUB SWAP1 LOG1 POP JUMP JUMPDEST PUSH1 0x0 DUP1 PUSH1 0xE SLOAD EQ ISZERO PUSH2 0x1DD1 JUMPI PUSH1 0xB SLOAD SWAP1 POP PUSH2 0x1E46 JUMP JUMPDEST PUSH2 0x1E43 PUSH2 0x1E32 PUSH1 0xE SLOAD PUSH2 0x1E24 PUSH8 0xDE0B6B3A7640000 PUSH2 0x1E16 PUSH1 0x8 SLOAD PUSH2 0x1E08 PUSH1 0xA SLOAD PUSH2 0x1DFA PUSH2 0x17A8 JUMP JUMPDEST PUSH2 0x1ECD SWAP1 SWAP2 SWAP1 PUSH4 0xFFFFFFFF AND JUMP JUMPDEST PUSH2 0x1F56 SWAP1 SWAP2 SWAP1 PUSH4 0xFFFFFFFF AND JUMP JUMPDEST PUSH2 0x1F56 SWAP1 SWAP2 SWAP1 PUSH4 0xFFFFFFFF AND JUMP JUMPDEST PUSH2 0x1FDC SWAP1 SWAP2 SWAP1 PUSH4 0xFFFFFFFF AND JUMP JUMPDEST PUSH1 0xB SLOAD PUSH2 0x206B SWAP1 SWAP2 SWAP1 PUSH4 0xFFFFFFFF AND JUMP JUMPDEST SWAP1 POP JUMPDEST SWAP1 JUMP JUMPDEST PUSH1 0x5 PUSH1 0x1 SWAP1 SLOAD SWAP1 PUSH2 0x100 EXP SWAP1 DIV PUSH20 0xFFFFFFFFFFFFFFFFFFFFFFFFFFFFFFFFFFFFFFFF AND DUP2 JUMP JUMPDEST PUSH1 0xB SLOAD DUP2 JUMP JUMPDEST PUSH2 0x1EBD PUSH1 0xF PUSH1 0x0 CALLER PUSH20 0xFFFFFFFFFFFFFFFFFFFFFFFFFFFFFFFFFFFFFFFF AND PUSH20 0xFFFFFFFFFFFFFFFFFFFFFFFFFFFFFFFFFFFFFFFF AND DUP2 MSTORE PUSH1 0x20 ADD SWAP1 DUP2 MSTORE PUSH1 0x20 ADD PUSH1 0x0 KECCAK256 SLOAD PUSH2 0xAEB JUMP JUMPDEST PUSH2 0x1EC5 PUSH2 0x1208 JUMP JUMPDEST JUMP JUMPDEST PUSH1 0x7 SLOAD DUP2 JUMP JUMPDEST PUSH1 0x0 DUP3 DUP3 GT ISZERO PUSH2 0x1F45 JUMPI PUSH1 0x40 MLOAD PUSH32 0x8C379A000000000000000000000000000000000000000000000000000000000 DUP2 MSTORE PUSH1 0x4 ADD DUP1 DUP1 PUSH1 0x20 ADD DUP3 DUP2 SUB DUP3 MSTORE PUSH1 0x1E DUP2 MSTORE PUSH1 0x20 ADD DUP1 PUSH32 0x536166654D6174683A207375627472616374696F6E206F766572666C6F770000 DUP2 MSTORE POP PUSH1 0x20 ADD SWAP2 POP POP PUSH1 0x40 MLOAD DUP1 SWAP2 SUB SWAP1 REVERT JUMPDEST PUSH1 0x0 DUP3 DUP5 SUB SWAP1 POP DUP1 SWAP2 POP POP SWAP3 SWAP2 POP POP JUMP JUMPDEST PUSH1 0x0 DUP1 DUP4 EQ ISZERO PUSH2 0x1F69 JUMPI PUSH1 0x0 SWAP1 POP PUSH2 0x1FD6 JUMP JUMPDEST PUSH1 0x0 DUP3 DUP5 MUL SWAP1 POP DUP3 DUP5 DUP3 DUP2 PUSH2 0x1F7A JUMPI INVALID JUMPDEST DIV EQ PUSH2 0x1FD1 JUMPI PUSH1 0x40 MLOAD PUSH32 0x8C379A000000000000000000000000000000000000000000000000000000000 DUP2 MSTORE PUSH1 0x4 ADD DUP1 DUP1 PUSH1 0x20 ADD DUP3 DUP2 SUB DUP3 MSTORE PUSH1 0x21 DUP2 MSTORE PUSH1 0x20 ADD DUP1 PUSH2 0x268C PUSH1 0x21 SWAP2 CODECOPY PUSH1 0x40 ADD SWAP2 POP POP PUSH1 0x40 MLOAD DUP1 SWAP2 SUB SWAP1 REVERT JUMPDEST DUP1 SWAP2 POP POP JUMPDEST SWAP3 SWAP2 POP POP JUMP JUMPDEST PUSH1 0x0 DUP1 DUP3 GT PUSH2 0x2053 JUMPI PUSH1 0x40 MLOAD PUSH32 0x8C379A000000000000000000000000000000000000000000000000000000000 DUP2 MSTORE PUSH1 0x4 ADD DUP1 DUP1 PUSH1 0x20 ADD DUP3 DUP2 SUB DUP3 MSTORE PUSH1 0x1A DUP2 MSTORE PUSH1 0x20 ADD DUP1 PUSH32 0x536166654D6174683A206469766973696F6E206279207A65726F000000000000 DUP2 MSTORE POP PUSH1 0x20 ADD SWAP2 POP POP PUSH1 0x40 MLOAD DUP1 SWAP2 SUB SWAP1 REVERT JUMPDEST PUSH1 0x0 DUP3 DUP5 DUP2 PUSH2 0x205E JUMPI INVALID JUMPDEST DIV SWAP1 POP DUP1 SWAP2 POP POP SWAP3 SWAP2 POP POP JUMP JUMPDEST PUSH1 0x0 DUP1 DUP3 DUP5 ADD SWAP1 POP DUP4 DUP2 LT ISZERO PUSH2 0x20E9 JUMPI PUSH1 0x40 MLOAD PUSH32 0x8C379A000000000000000000000000000000000000000000000000000000000 DUP2 MSTORE PUSH1 0x4 ADD DUP1 DUP1 PUSH1 0x20 ADD DUP3 DUP2 SUB DUP3 MSTORE PUSH1 0x1B DUP2 MSTORE PUSH1 0x20 ADD DUP1 PUSH32 0x536166654D6174683A206164646974696F6E206F766572666C6F770000000000 DUP2 MSTORE POP PUSH1 0x20 ADD SWAP2 POP POP PUSH1 0x40 MLOAD DUP1 SWAP2 SUB SWAP1 REVERT JUMPDEST DUP1 SWAP2 POP POP SWAP3 SWAP2 POP POP JUMP JUMPDEST PUSH1 0x0 DUP1 SWAP1 SLOAD SWAP1 PUSH2 0x100 EXP SWAP1 DIV PUSH20 0xFFFFFFFFFFFFFFFFFFFFFFFFFFFFFFFFFFFFFFFF AND PUSH20 0xFFFFFFFFFFFFFFFFFFFFFFFFFFFFFFFFFFFFFFFF AND CALLER PUSH20 0xFFFFFFFFFFFFFFFFFFFFFFFFFFFFFFFFFFFFFFFF AND EQ PUSH2 0x2198 JUMPI PUSH1 0x40 MLOAD PUSH32 0x8C379A000000000000000000000000000000000000000000000000000000000 DUP2 MSTORE PUSH1 0x4 ADD DUP1 DUP1 PUSH1 0x20 ADD DUP3 DUP2 SUB DUP3 MSTORE PUSH1 0x2F DUP2 MSTORE PUSH1 0x20 ADD DUP1 PUSH2 0x265D PUSH1 0x2F SWAP2 CODECOPY PUSH1 0x40 ADD SWAP2 POP POP PUSH1 0x40 MLOAD DUP1 SWAP2 SUB SWAP1 REVERT JUMPDEST JUMP JUMPDEST PUSH2 0x2266 DUP4 DUP5 PUSH20 0xFFFFFFFFFFFFFFFFFFFFFFFFFFFFFFFFFFFFFFFF AND PUSH4 0xA9059CBB SWAP1 POP PUSH1 0xE0 SHL DUP5 DUP5 PUSH1 0x40 MLOAD PUSH1 0x24 ADD DUP1 DUP4 PUSH20 0xFFFFFFFFFFFFFFFFFFFFFFFFFFFFFFFFFFFFFFFF AND PUSH20 0xFFFFFFFFFFFFFFFFFFFFFFFFFFFFFFFFFFFFFFFF AND DUP2 MSTORE PUSH1 0x20 ADD DUP3 DUP2 MSTORE PUSH1 0x20 ADD SWAP3 POP POP POP PUSH1 0x40 MLOAD PUSH1 0x20 DUP2 DUP4 SUB SUB DUP2 MSTORE SWAP1 PUSH1 0x40 MSTORE SWAP1 PUSH28 0xFFFFFFFFFFFFFFFFFFFFFFFFFFFFFFFFFFFFFFFFFFFFFFFFFFFFFFFF NOT AND PUSH1 0x20 DUP3 ADD DUP1 MLOAD PUSH28 0xFFFFFFFFFFFFFFFFFFFFFFFFFFFFFFFFFFFFFFFFFFFFFFFFFFFFFFFF DUP4 DUP2 DUP4 AND OR DUP4 MSTORE POP POP POP POP PUSH2 0x2371 JUMP JUMPDEST POP POP POP JUMP JUMPDEST PUSH2 0x236B DUP5 DUP6 PUSH20 0xFFFFFFFFFFFFFFFFFFFFFFFFFFFFFFFFFFFFFFFF AND PUSH4 0x23B872DD SWAP1 POP PUSH1 0xE0 SHL DUP6 DUP6 DUP6 PUSH1 0x40 MLOAD PUSH1 0x24 ADD DUP1 DUP5 PUSH20 0xFFFFFFFFFFFFFFFFFFFFFFFFFFFFFFFFFFFFFFFF AND PUSH20 0xFFFFFFFFFFFFFFFFFFFFFFFFFFFFFFFFFFFFFFFF AND DUP2 MSTORE PUSH1 0x20 ADD DUP4 PUSH20 0xFFFFFFFFFFFFFFFFFFFFFFFFFFFFFFFFFFFFFFFF AND PUSH20 0xFFFFFFFFFFFFFFFFFFFFFFFFFFFFFFFFFFFFFFFF AND DUP2 MSTORE PUSH1 0x20 ADD DUP3 DUP2 MSTORE PUSH1 0x20 ADD SWAP4 POP POP POP POP PUSH1 0x40 MLOAD PUSH1 0x20 DUP2 DUP4 SUB SUB DUP2 MSTORE SWAP1 PUSH1 0x40 MSTORE SWAP1 PUSH28 0xFFFFFFFFFFFFFFFFFFFFFFFFFFFFFFFFFFFFFFFFFFFFFFFFFFFFFFFF NOT AND PUSH1 0x20 DUP3 ADD DUP1 MLOAD PUSH28 0xFFFFFFFFFFFFFFFFFFFFFFFFFFFFFFFFFFFFFFFFFFFFFFFFFFFFFFFF DUP4 DUP2 DUP4 AND OR DUP4 MSTORE POP POP POP POP PUSH2 0x2371 JUMP JUMPDEST POP POP POP POP JUMP JUMPDEST PUSH2 0x2390 DUP3 PUSH20 0xFFFFFFFFFFFFFFFFFFFFFFFFFFFFFFFFFFFFFFFF AND PUSH2 0x25BC JUMP JUMPDEST PUSH2 0x2402 JUMPI PUSH1 0x40 MLOAD PUSH32 0x8C379A000000000000000000000000000000000000000000000000000000000 DUP2 MSTORE PUSH1 0x4 ADD DUP1 DUP1 PUSH1 0x20 ADD DUP3 DUP2 SUB DUP3 MSTORE PUSH1 0x1F DUP2 MSTORE PUSH1 0x20 ADD DUP1 PUSH32 0x5361666545524332303A2063616C6C20746F206E6F6E2D636F6E747261637400 DUP2 MSTORE POP PUSH1 0x20 ADD SWAP2 POP POP PUSH1 0x40 MLOAD DUP1 SWAP2 SUB SWAP1 REVERT JUMPDEST PUSH1 0x0 PUSH1 0x60 DUP4 PUSH20 0xFFFFFFFFFFFFFFFFFFFFFFFFFFFFFFFFFFFFFFFF AND DUP4 PUSH1 0x40 MLOAD DUP1 DUP3 DUP1 MLOAD SWAP1 PUSH1 0x20 ADD SWAP1 DUP1 DUP4 DUP4 JUMPDEST PUSH1 0x20 DUP4 LT PUSH2 0x2451 JUMPI DUP1 MLOAD DUP3 MSTORE PUSH1 0x20 DUP3 ADD SWAP2 POP PUSH1 0x20 DUP2 ADD SWAP1 POP PUSH1 0x20 DUP4 SUB SWAP3 POP PUSH2 0x242E JUMP JUMPDEST PUSH1 0x1 DUP4 PUSH1 0x20 SUB PUSH2 0x100 EXP SUB DUP1 NOT DUP3 MLOAD AND DUP2 DUP5 MLOAD AND DUP1 DUP3 OR DUP6 MSTORE POP POP POP POP POP POP SWAP1 POP ADD SWAP2 POP POP PUSH1 0x0 PUSH1 0x40 MLOAD DUP1 DUP4 SUB DUP2 PUSH1 0x0 DUP7 GAS CALL SWAP2 POP POP RETURNDATASIZE DUP1 PUSH1 0x0 DUP2 EQ PUSH2 0x24B3 JUMPI PUSH1 0x40 MLOAD SWAP2 POP PUSH1 0x1F NOT PUSH1 0x3F RETURNDATASIZE ADD AND DUP3 ADD PUSH1 0x40 MSTORE RETURNDATASIZE DUP3 MSTORE RETURNDATASIZE PUSH1 0x0 PUSH1 0x20 DUP5 ADD RETURNDATACOPY PUSH2 0x24B8 JUMP JUMPDEST PUSH1 0x60 SWAP2 POP JUMPDEST POP SWAP2 POP SWAP2 POP DUP2 PUSH2 0x2530 JUMPI PUSH1 0x40 MLOAD PUSH32 0x8C379A000000000000000000000000000000000000000000000000000000000 DUP2 MSTORE PUSH1 0x4 ADD DUP1 DUP1 PUSH1 0x20 ADD DUP3 DUP2 SUB DUP3 MSTORE PUSH1 0x20 DUP2 MSTORE PUSH1 0x20 ADD DUP1 PUSH32 0x5361666545524332303A206C6F772D6C6576656C2063616C6C206661696C6564 DUP2 MSTORE POP PUSH1 0x20 ADD SWAP2 POP POP PUSH1 0x40 MLOAD DUP1 SWAP2 SUB SWAP1 REVERT JUMPDEST PUSH1 0x0 DUP2 MLOAD GT ISZERO PUSH2 0x25B6 JUMPI DUP1 DUP1 PUSH1 0x20 ADD SWAP1 MLOAD PUSH1 0x20 DUP2 LT ISZERO PUSH2 0x254F JUMPI PUSH1 0x0 DUP1 REVERT JUMPDEST DUP2 ADD SWAP1 DUP1 DUP1 MLOAD SWAP1 PUSH1 0x20 ADD SWAP1 SWAP3 SWAP2 SWAP1 POP POP POP PUSH2 0x25B5 JUMPI PUSH1 0x40 MLOAD PUSH32 0x8C379A000000000000000000000000000000000000000000000000000000000 DUP2 MSTORE PUSH1 0x4 ADD DUP1 DUP1 PUSH1 0x20 ADD DUP3 DUP2 SUB DUP3 MSTORE PUSH1 0x2A DUP2 MSTORE PUSH1 0x20 ADD DUP1 PUSH2 0x2713 PUSH1 0x2A SWAP2 CODECOPY PUSH1 0x40 ADD SWAP2 POP POP PUSH1 0x40 MLOAD DUP1 SWAP2 SUB SWAP1 REVERT JUMPDEST JUMPDEST POP POP POP POP JUMP JUMPDEST PUSH1 0x0 DUP1 DUP3 EXTCODESIZE SWAP1 POP PUSH1 0x0 DUP2 GT SWAP2 POP POP SWAP2 SWAP1 POP JUMP INVALID POP PUSH19 0x6576696F757320726577617264732070657269 PUSH16 0x64206D75737420626520636F6D706C65 PUSH21 0x65206265666F7265206368616E67696E6720746865 KECCAK256 PUSH5 0x7572617469 PUSH16 0x6E20666F7220746865206E6577207065 PUSH19 0x696F64596F75206D757374206265206E6F6D69 PUSH15 0x61746564206265666F726520796F75 KECCAK256 PUSH4 0x616E2061 PUSH4 0x63657074 KECCAK256 PUSH16 0x776E6572736869704F6E6C7920746865 KECCAK256 PUSH4 0x6F6E7472 PUSH2 0x6374 KECCAK256 PUSH16 0x776E6572206D617920706572666F726D KECCAK256 PUSH21 0x68697320616374696F6E536166654D6174683A206D PUSH22 0x6C7469706C69636174696F6E206F766572666C6F7754 PUSH9 0x697320616374696F6E KECCAK256 PUSH4 0x616E6E6F PUSH21 0x20626520706572666F726D6564207768696C652074 PUSH9 0x6520636F6E74726163 PUSH21 0x2069732070617573656443616C6C6572206973206E PUSH16 0x74205265776172647344697374726962 PUSH22 0x74696F6E20636F6E7472616374536166654552433230 GASPRICE KECCAK256 GASLIMIT MSTORE NUMBER ORIGIN ADDRESS KECCAK256 PUSH16 0x7065726174696F6E20646964206E6F74 KECCAK256 PUSH20 0x75636365656443616E6E6F742077697468647261 PUSH24 0x20746865207374616B696E6720746F6B656EA265627A7A72 BALANCE PC KECCAK256 MOD 0xE9 TIMESTAMP 0x28 0xCE 0xE1 0xC0 JUMP 0xA7 0xC5 0x2D PUSH30 0x287A7A59B0962BDF14A3600CB664E2CDC13B6E6264736F6C634300051000 ORIGIN "
				},
				"gasEstimates": {
					"creation": {
						"codeDepositCost": "2026000",
						"executionCost": "infinite",
						"totalCost": "infinite"
					},
					"external": {
						"acceptOwnership()": "infinite",
						"balanceOf(address)": "1307",
						"earned(address)": "infinite",
						"exit()": "infinite",
						"getReward()": "infinite",
						"getRewardForDuration()": "infinite",
						"lastPauseTime()": "1116",
						"lastTimeRewardApplicable()": "1958",
						"lastUpdateTime()": "1072",
						"nominateNewOwner(address)": "infinite",
						"nominatedOwner()": "1120",
						"notifyRewardAmount(uint256)": "infinite",
						"owner()": "1142",
						"paused()": "1142",
						"periodFinish()": "1115",
						"recoverERC20(address,uint256)": "infinite",
						"rewardPerToken()": "infinite",
						"rewardPerTokenStored()": "1071",
						"rewardRate()": "1095",
						"rewards(address)": "1238",
						"rewardsDistribution()": "1098",
						"rewardsDuration()": "1073",
						"rewardsToken()": "1147",
						"setPaused(bool)": "infinite",
						"setRewardsDistribution(address)": "infinite",
						"setRewardsDuration(uint256)": "infinite",
						"stake(uint256)": "infinite",
						"stakingToken()": "1099",
						"totalSupply()": "1081",
						"userRewardPerTokenPaid(address)": "1236",
						"withdraw(uint256)": "infinite"
					}
				},
				"methodIdentifiers": {
					"acceptOwnership()": "79ba5097",
					"balanceOf(address)": "70a08231",
					"earned(address)": "008cc262",
					"exit()": "e9fad8ee",
					"getReward()": "3d18b912",
					"getRewardForDuration()": "1c1f78eb",
					"lastPauseTime()": "91b4ded9",
					"lastTimeRewardApplicable()": "80faa57d",
					"lastUpdateTime()": "c8f33c91",
					"nominateNewOwner(address)": "1627540c",
					"nominatedOwner()": "53a47bb7",
					"notifyRewardAmount(uint256)": "3c6b16ab",
					"owner()": "8da5cb5b",
					"paused()": "5c975abb",
					"periodFinish()": "ebe2b12b",
					"recoverERC20(address,uint256)": "8980f11f",
					"rewardPerToken()": "cd3daf9d",
					"rewardPerTokenStored()": "df136d65",
					"rewardRate()": "7b0a47ee",
					"rewards(address)": "0700037d",
					"rewardsDistribution()": "3fc6df6e",
					"rewardsDuration()": "386a9525",
					"rewardsToken()": "d1af0c7d",
					"setPaused(bool)": "16c38b3c",
					"setRewardsDistribution(address)": "19762143",
					"setRewardsDuration(uint256)": "cc1a378f",
					"stake(uint256)": "a694fc3a",
					"stakingToken()": "72f702f3",
					"totalSupply()": "18160ddd",
					"userRewardPerTokenPaid(address)": "8b876347",
					"withdraw(uint256)": "2e1a7d4d"
				}
			},
			"storageLayout": {
				"storage": [
					{
						"astId": 3,
						"contract": "contracts/StakingRewards.sol:StakingRewards",
						"label": "owner",
						"offset": 0,
						"slot": "0",
						"type": "t_address"
					},
					{
						"astId": 5,
						"contract": "contracts/StakingRewards.sol:StakingRewards",
						"label": "nominatedOwner",
						"offset": 0,
						"slot": "1",
						"type": "t_address"
					},
					{
						"astId": 177,
						"contract": "contracts/StakingRewards.sol:StakingRewards",
						"label": "rewardsDistribution",
						"offset": 0,
						"slot": "2",
						"type": "t_address"
					},
					{
						"astId": 1345,
						"contract": "contracts/StakingRewards.sol:StakingRewards",
						"label": "_guardCounter",
						"offset": 0,
						"slot": "3",
						"type": "t_uint256"
					},
					{
						"astId": 111,
						"contract": "contracts/StakingRewards.sol:StakingRewards",
						"label": "lastPauseTime",
						"offset": 0,
						"slot": "4",
						"type": "t_uint256"
					},
					{
						"astId": 113,
						"contract": "contracts/StakingRewards.sol:StakingRewards",
						"label": "paused",
						"offset": 0,
						"slot": "5",
						"type": "t_bool"
					},
					{
						"astId": 232,
						"contract": "contracts/StakingRewards.sol:StakingRewards",
						"label": "rewardsToken",
						"offset": 1,
						"slot": "5",
						"type": "t_contract(IERC20)1103"
					},
					{
						"astId": 234,
						"contract": "contracts/StakingRewards.sol:StakingRewards",
						"label": "stakingToken",
						"offset": 0,
						"slot": "6",
						"type": "t_contract(IERC20)1103"
					},
					{
						"astId": 237,
						"contract": "contracts/StakingRewards.sol:StakingRewards",
						"label": "periodFinish",
						"offset": 0,
						"slot": "7",
						"type": "t_uint256"
					},
					{
						"astId": 240,
						"contract": "contracts/StakingRewards.sol:StakingRewards",
						"label": "rewardRate",
						"offset": 0,
						"slot": "8",
						"type": "t_uint256"
					},
					{
						"astId": 243,
						"contract": "contracts/StakingRewards.sol:StakingRewards",
						"label": "rewardsDuration",
						"offset": 0,
						"slot": "9",
						"type": "t_uint256"
					},
					{
						"astId": 245,
						"contract": "contracts/StakingRewards.sol:StakingRewards",
						"label": "lastUpdateTime",
						"offset": 0,
						"slot": "10",
						"type": "t_uint256"
					},
					{
						"astId": 247,
						"contract": "contracts/StakingRewards.sol:StakingRewards",
						"label": "rewardPerTokenStored",
						"offset": 0,
						"slot": "11",
						"type": "t_uint256"
					},
					{
						"astId": 251,
						"contract": "contracts/StakingRewards.sol:StakingRewards",
						"label": "userRewardPerTokenPaid",
						"offset": 0,
						"slot": "12",
						"type": "t_mapping(t_address,t_uint256)"
					},
					{
						"astId": 255,
						"contract": "contracts/StakingRewards.sol:StakingRewards",
						"label": "rewards",
						"offset": 0,
						"slot": "13",
						"type": "t_mapping(t_address,t_uint256)"
					},
					{
						"astId": 257,
						"contract": "contracts/StakingRewards.sol:StakingRewards",
						"label": "_totalSupply",
						"offset": 0,
						"slot": "14",
						"type": "t_uint256"
					},
					{
						"astId": 261,
						"contract": "contracts/StakingRewards.sol:StakingRewards",
						"label": "_balances",
						"offset": 0,
						"slot": "15",
						"type": "t_mapping(t_address,t_uint256)"
					}
				],
				"types": {
					"t_address": {
						"encoding": "inplace",
						"label": "address",
						"numberOfBytes": "20"
					},
					"t_bool": {
						"encoding": "inplace",
						"label": "bool",
						"numberOfBytes": "1"
					},
					"t_contract(IERC20)1103": {
						"encoding": "inplace",
						"label": "contract IERC20",
						"numberOfBytes": "20"
					},
					"t_mapping(t_address,t_uint256)": {
						"encoding": "mapping",
						"key": "t_address",
						"label": "mapping(address => uint256)",
						"numberOfBytes": "32",
						"value": "t_uint256"
					},
					"t_uint256": {
						"encoding": "inplace",
						"label": "uint256",
						"numberOfBytes": "32"
					}
				}
			},
			"userdoc": {
				"methods": {
					"setPaused(bool)": {
						"notice": "Change the paused state of the contract"
					}
				}
			}
		}
	}
}